:100000000C9453000C947B000C947B000C947B00AC
:100010000C947B000C947B000C947B000C947B0074
:100020000C947B000C947B000C947B000C947B0064
:100030000C947B000C947B000C947B000C947B0054
:100040000C943C020C947B000C940A020C94E40186
:100050000C947B000C947B000C947B000C947B0034
:100060000C947B000C947B004E414E494E495459F0
:10007000494E46CDCCCC3D0AD7233C17B7D1387773
:10008000CC2B329595E6241FB14F0A000020410089
:1000900000C84200401C4620BCBE4CCA1B0E5AAED3
:1000A000C59D7400EB0311241FBECFEFD8E0DEBF67
:1000B000CDBF21E0A0E4B1E001C01D92AC3EB2078B
:1000C000E1F711E0A0E0B1E0EEEFF1E102C0059050
:1000D0000D92A034B107D9F710E0C3E5D0E004C019
:1000E0002197FE010E940507C235D107C9F70E947A
:1000F00086020C94FD080C940000AF92BF92CF9240
:10010000DF92EF92FF920F931F93CF93DF936C01D7
:100110007B018B01040F151FEB015E01AE18BF08B8
:10012000C017D10759F06991D601ED91FC9101906A
:10013000F081E02DC6010995892B79F7C501DF9182
:10014000CF911F910F91FF90EF90DF90CF90BF90D4
:10015000AF900895FC01538D448D252F30E0842FFE
:1001600090E0821B930B541710F0CF9608950197DF
:100170000895FC01918D828D981761F0A28DAE0FCC
:10018000BF2FB11D5D968C91928D9F5F9F73928F53
:1001900090E008958FEF9FEF0895FC01918D828D7F
:1001A000981731F0828DE80FF11D858D90E008954C
:1001B0008FEF9FEF0895FC01918D228D892F90E0A4
:1001C000805C9F4F821B91098F739927089589E462
:1001D00091E00E94DB0021E0892B09F420E0822FCE
:1001E000089580E090E0892B29F00E94E7008111BA
:1001F0000C9400000895FC01A48DA80FB92FB11D27
:10020000A35ABF4F2C91848D90E001968F7399274C
:10021000848FA689B7892C93A089B1898C9183702A
:1002200080648C93938D848D981306C00288F38923
:10023000E02D80818F7D80830895EF92FF920F9350
:100240001F93CF93DF93EC0181E0888F9B8D8C8D82
:1002500098131AC0E889F989808185FF15C09FB776
:10026000F894EE89FF896083E889F9898081837039
:10027000806480839FBF81E090E0DF91CF911F91E8
:100280000F91FF90EF900895F62E0B8D10E00F5F09
:100290001F4F0F731127E02E8C8D8E110CC00FB6DF
:1002A00007FCFACFE889F989808185FFF5CFCE0177
:1002B0000E94FB00F1CFEB8DEC0FFD2FF11DE35AF7
:1002C000FF4FF0829FB7F8940B8FEA89FB898081FA
:1002D0008062CFCFCF93DF93EC01888D8823B9F074
:1002E000AA89BB89E889F9898C9185FD03C0808141
:1002F00086FD0DC00FB607FCF7CF8C9185FFF2CFBE
:10030000808185FFEDCFCE010E94FB00E9CFDF9118
:10031000CF9108953FB7F89480914501909146019F
:10032000A0914701B091480126B5A89B05C02F3F79
:1003300019F00196A11DB11D3FBFBA2FA92F982F0B
:100340008827BC01CD01620F711D811D911D42E006
:10035000660F771F881F991F4A95D1F70895FC01F2
:1003600001900020E9F73197AF01481B590BBC0100
:1003700089E491E00C947D000F931F93CF93DF935A
:10038000EC0188819981009759F02A813B812617D9
:10039000370730F081E0DF91CF911F910F910895E1
:1003A0008B016F5F7F4F0E943008009759F099834F
:1003B00088831B830A832C813D81232B59F7FC0101
:1003C0001082E8CF80E0E7CF1F920F920FB60F9216
:1003D00011242F933F934F935F936F937F938F934A
:1003E0009F93AF93BF93EF93FF9389E491E00E94B3
:1003F000FB00FF91EF91BF91AF919F918F917F9102
:100400006F915F914F913F912F910F900FBE0F9081
:100410001F9018951F920F920FB60F9211242F93D1
:100420008F939F93EF93FF93E0915901F0915A01BD
:100430008081E0915F01F091600182FD1BC090819D
:10044000809162018F5F8F7320916301821741F069
:10045000E0916201F0E0E75BFE4F958F80936201CF
:10046000FF91EF919F918F912F910F900FBE0F9061
:100470001F9018958081F4CF1F920F920FB60F92A4
:1004800011242F933F938F939F93AF93BF938091AA
:10049000410190914201A0914301B09144013091FA
:1004A000400123E0230F2D3758F50196A11DB11D02
:1004B000209340018093410190934201A093430116
:1004C000B09344018091450190914601A09147016C
:1004D000B09148010196A11DB11D809345019093F3
:1004E0004601A0934701B0934801BF91AF919F91FE
:1004F0008F913F912F910F900FBE0F901F901895E5
:1005000026E8230F0296A11DB11DD2CFCF93DF9312
:10051000CDB7DEB72E970FB6F894DEBF0FBECDBFB6
:10052000789484B5826084BD84B5816084BD85B5CE
:10053000826085BD85B5816085BD80916E008160DA
:1005400080936E0010928100809181008260809380
:100550008100809181008160809381008091800082
:100560008160809380008091B10084608093B100AD
:100570008091B00081608093B00080917A008460A7
:1005800080937A0080917A00826080937A008091D3
:100590007A00816080937A0080917A0080688093ED
:1005A0007A001092C100E0915901F0915A0182E065
:1005B0008083E0915501F09156011082E09157013E
:1005C000F09158018FEC808310926101E0915D0100
:1005D000F0915E0186E08083E0915B01F0915C0127
:1005E000808180618083E0915B01F0915C0180817A
:1005F00088608083E0915B01F0915C01808180687C
:100600008083E0915B01F0915C0180818F7D80832C
:1006100090E0E92E90E0F92E18861F821A8619863E
:100620001C861B8670E060E0CE0107960E94BC012C
:100630002F813885811189C02115310519F0C90133
:100640000E94A70718861F821C861B861A86198699
:1006500088E191E00E94AF0188E291E00E94AF0141
:1006600089E491E00E94DB00892BD1F389E491E0D9
:100670000E94DB00181619060CF09BC01A82198222
:100680001C821B821E821D8270E060E0CE010196FA
:100690000E94BC0129813A8181115FC02115310579
:1006A00019F0C9010E94A7071A8219821E821D82B1
:1006B0001C821B8289E491E00E94DB001816190657
:1006C0000CF053C089E491E00E94B9008D871E862A
:1006D0000D811E810F5F1F4FB801CE0101960E9450
:1006E000BC01882369F029813A818D819E81BE01F8
:1006F000635F7F4F820F931F0E94F6081E830D8356
:100700000E948A012B013C0184E6882E912CA12CA9
:10071000B12C0E948A016419750986099709683EFF
:10072000734081059105A8F321E0821A9108A10880
:10073000B10888EE480E83E0581E611C711C8114BC
:100740009104A104B10429F7B5CF1C861B866AE287
:1007500071E0C9010E94F6087BCF1E821D826AE209
:1007600071E0C9010E94F608A5CF89819A8100979E
:1007700011F00E9418048BE291E00E94AF014D81BC
:100780005E8169817A8189E491E00E947D0088E23E
:1007900091E00E94AF018EE391E00E94AF0188E2F8
:1007A00091E00E94AF0189819A81009711F00E9427
:1007B000A7078F819885009711F00E94A707E11481
:1007C000F10409F429CF0E94E700882309F424CF1B
:1007D0000E94000021CFE9E4F1E01382128288EE4A
:1007E00093E0A0E0B0E084839583A683B7838AE09A
:1007F00091E09183808385EC90E09587848784ECF9
:1008000090E09787868780EC90E0918B808B81ECDD
:1008100090E0938B828B82EC90E0958B848B86ECBE
:1008200090E0978B868B118E128E138E148E089506
:10083000662777270C941C04B0E0A0E0E2E2F4E025
:100840000C94C5065C017B016115710519F0DB0193
:100850008D939C9385010F5F1F4FF501D0818D2FE4
:1008600090E00E946C056C01892BB9F5DD32B9F579
:100870000F5F1F4FD5011196DC91C1E05801F1E0E7
:10088000AF1AB10843E050E060E770E0C5010E9494
:100890007505892B69F5680182E0C80ED11C45E019
:1008A00050E06BE670E0C6010E947505892B21F4CB
:1008B000680197E0C90ED11CE114F10419F0D701C9
:1008C000CD92DC9260E070E080E89FEFC111FFC044
:1008D00060E070E080E89FE7FAC05801BBCFDB32F0
:1008E00029F485010E5F1F4FF501D181C0E0C6CF0D
:1008F00043E050E068E670E0C5010E947505892B71
:10090000E9F0F80110E000E020E030E0A9015F012B
:10091000B0ED8B2E8D0E89E08815C8F19C2E689461
:1009200091F88C2F8870C2FF16C0811102C00F5F32
:100930001F4F3196D501DC91C92DE9CFE114F104A7
:1009400029F00E5F1F4FF7011183008360E070E014
:1009500080EC9FE7BCC0882311F001501109A5E08D
:10096000B0E00E94B4069B01AC01220F331F441F6C
:10097000551F280D311D411D511D283999E9390791
:10098000490799E15907A8F2C6609C2ED2CFAEEF75
:100990008A1206C0C3FD3CC09C2E689493F8C9CF50
:1009A000DF7DD534A9F580818D3239F4C061DF0156
:1009B0001296818162E070E006C0DF018B32C1F3E4
:1009C000119661E070E080535D01A61AB70A8A3083
:1009D000F8F4E0E8CE16ECE0DE065CF4B601660F53
:1009E000771F660F771FC60ED71ECC0CDD1CC80EF6
:1009F000D11C5D01FFEFAF1ABF0A8C9180538A3082
:100A0000A8F1C4FF03C0D194C194D1080C0D1D1DE1
:100A1000C1FF09C0E114F10431F081E0A81AB10866
:100A2000D701AD92BC92CA01B9010E949205C37070
:100A3000C33009F490584B015C0120E030E0A9017B
:100A40000E948D05882309F440C0CFE9D0E017FF4C
:100A500005C0119501951109C7E8D0E06E01B8E114
:100A6000CB1AD10880E2E82EF12C0FC0D501B1CF0E
:100A7000FE0125913591459154910E191F09C5012B
:100A8000B4010E94F3054B015C01D501C4010E15B0
:100A90001F0574F72497F594E794CC16DD06A9F7A3
:100AA0008A2F880F8B2F881F8F3F49F020E030E07E
:100AB000A901C501B4010E948D05811106C082E221
:100AC00090E09093E7018093E601C501B401CDB7B2
:100AD000DEB7ECE00C94E10691110C9460068032D4
:100AE00019F089508550C8F70895FB01DC01415089
:100AF000504088F08D9181341CF08B350CF4805E71
:100B0000659161341CF06B350CF4605E861B6111DD
:100B100071F3990B0895881BFCCF0E94CF0508F450
:100B200081E00895E89409C097FB3EF49095809584
:100B3000709561957F4F8F4F9F4F9923A9F0F92FA3
:100B400096E9BB279395F695879577956795B79521
:100B5000F111F8CFFAF4BB0F11F460FF1BC06F5F07
:100B60007F4F8F4F9F4F16C0882311F096E911C019
:100B7000772321F09EE8872F762F05C0662371F03A
:100B800096E8862F70E060E02AF09A95660F771F4E
:100B9000881FDAF7880F9695879597F90895990F2A
:100BA0000008550FAA0BE0E8FEEF16161706E80737
:100BB000F907C0F012161306E407F50798F0621B58
:100BC000730B840B950B39F40A2661F0232B242B2D
:100BD000252B21F408950A2609F4A140A6958FEF4C
:100BE000811D811D08950E9406060C947A060E94BC
:100BF0006C0638F00E94730620F0952311F00C94D7
:100C000063060C94690611240C94AE060E948B06B0
:100C100070F3959FC1F3950F50E0551F629FF0014F
:100C2000729FBB27F00DB11D639FAA27F00DB11D68
:100C3000AA1F649F6627B00DA11D661F829F2227F1
:100C4000B00DA11D621F739FB00DA11D621F839F78
:100C5000A00D611D221F749F3327A00D611D231F4E
:100C6000849F600D211D822F762F6A2F11249F579C
:100C700050409AF0F1F088234AF0EE0FFF1FBB1F9F
:100C8000661F771F881F91505040A9F79E3F51055E
:100C900080F00C9463060C94AE065F3FE4F3983E3C
:100CA000D4F3869577956795B795F795E7959F5F08
:100CB000C1F7FE2B880F911D9695879597F908959A
:100CC00099278827089597F99F6780E870E060E08A
:100CD00008959FEF80EC089500240A9416161706D5
:100CE00018060906089500240A941216130614061D
:100CF00005060895092E0394000C11F4882352F080
:100D0000BB0F40F4BF2B11F460FF04C06F5F7F4F37
:100D10008F4F9F4F089557FD9058440F551F59F01E
:100D20005F3F71F04795880F97FB991F61F09F3FD8
:100D300079F087950895121613061406551FF2CF01
:100D40004695F1DF08C0161617061806991FF1CF51
:100D500086957105610508940895E894BB27662778
:100D60007727CB0197F908950E94F606A59F900D6D
:100D7000B49F900DA49F800D911D112408952F9272
:100D80003F924F925F926F927F928F929F92AF921B
:100D9000BF92CF92DF92EF92FF920F931F93CF9368
:100DA000DF93CDB7DEB7CA1BDB0B0FB6F894DEBFFF
:100DB0000FBECDBF09942A88398848885F846E8425
:100DC0007D848C849B84AA84B984C884DF80EE806F
:100DD000FD800C811B81AA81B981CE0FD11D0FB678
:100DE000F894DEBF0FBECDBFED010895A29FB00104
:100DF000B39FC001A39F700D811D1124911DB29F4F
:100E0000700D811D1124911D0895EE0FFF1F059097
:100E1000F491E02D09940F931F93CF93DF938230C9
:100E2000910510F482E090E0E091EA01F091EB018D
:100E300030E020E0B0E0A0E0309799F421153105D2
:100E400009F44AC0281B390B24303105D8F58A81B2
:100E50009B816115710589F1FB0193838283FE01FA
:100E600011C0408151810281138148175907E0F078
:100E70004817590799F4109761F012960C9312973E
:100E800013961C933296CF01DF91CF911F910F9152
:100E900008950093EA011093EB01F4CF2115310579
:100EA00051F04217530738F0A901DB019A01BD0147
:100EB000DF01F801C1CFEF01F9CF9093EB018093EF
:100EC000EA01CDCFFE01E20FF31F819391932250EF
:100ED000310939832883D7CF2091E8013091E90186
:100EE000232B41F420910201309103013093E90159
:100EF0002093E80120910001309101012115310575
:100F000041F42DB73EB74091040150910501241BD7
:100F1000350BE091E801F091E901E217F307A0F445
:100F20002E1B3F0B2817390778F0AC014E5F5F4F3F
:100F30002417350748F04E0F5F1F5093E901409387
:100F4000E801819391939FCFF0E0E0E09CCFCF93B5
:100F5000DF930097E9F0FC01329713821282A0918F
:100F6000EA01B091EB01ED0130E020E01097A1F42F
:100F700020813181820F931F2091E8013091E90196
:100F80002817390709F061C0F093E901E093E801FF
:100F9000DF91CF910895EA01CE17DF07E8F54A8186
:100FA0005B819E0141155105B1F7E901FB83EA839D
:100FB00049915991C40FD51FEC17FD0761F4808149
:100FC00091810296840F951FE9019983888382811C
:100FD00093819B838A83F0E0E0E012968D919C914F
:100FE00013970097B9F52D913C911197CD01029679
:100FF000820F931F2091E8013091E90128173907EA
:1010000039F6309751F51092EB011092EA01B09346
:10101000E901A093E801BCCFD383C2834081518111
:10102000840F951FC817D90761F44E5F5F4F888101
:101030009981480F591F518340838A819B819383F3
:1010400082832115310509F0B0CFF093EB01E093D5
:10105000EA019ECFFD01DC01C0CF13821282D7CFFF
:10106000B0E0A0E0E6E3F8E00C94C1068C01009744
:1010700051F4CB010E940B078C01C801CDB7DEB73C
:10108000E0E10C94DD06FC01E60FF71F9C01225005
:101090003109E217F30708F49DC0D901CD91DC9125
:1010A0001197C617D70798F0C530D10530F3CE0198
:1010B00004978617970708F3C61BD70B2297C1938F
:1010C000D1936D937C93CF010E94A707D6CF5B018C
:1010D000AC1ABD0A4C018C0E9D1EA091EA01B09184
:1010E000EB01512C412CF12CE12C109731F5809122
:1010F000E8019091E9018815990509F05CC0461650
:10110000570608F058C080910001909101010097A6
:1011100041F48DB79EB74091040150910501841BA5
:10112000950BE817F90708F055C0F093E901E09333
:10113000E801F90171836083A0CF8D919C91119793
:1011400012966C90129713967C901397A815B90578
:1011500059F56C0142E0C40ED11CCA14DB0420F125
:10116000AC014A195B09DA011296159780F0628288
:10117000738251834083D9016D937C93E114F10410
:1011800071F0D7011396FC93EE93129776CF2296C7
:101190008C0F9D1FF90191838083F301EFCFF093B2
:1011A000EB01E093EA0169CF4816590608F42C01D7
:1011B0007D01D3019ACFCB010E940B077C010097E0
:1011C00049F0AE01B8010E94ED08C8010E94A707CE
:1011D000870153CF10E000E050CFFB01DC0102C0DB
:1011E00001900D9241505040D8F70895FB01DC0169
:0E11F00001900D920020E1F70895F894FFCFD2
:1011FE000000EC018000000000001D017D00AA002F
:10120E006A01DB00B900CD00446967697465207519
:10121E006D2076616C6F72000D0A004F2076616C46
:10122E006F7220646967697461646F20653A20008B
:00000001FF
