:100000000C9462000C948A000C948A000C948A0070
:100010000C948A000C948A000C948A000C948A0038
:100020000C948A000C948A000C948A000C948A0028
:100030000C948A000C948A000C948A000C948A0018
:100040000C9475030C948A000C948A000C948A001A
:100050000C948A000C948A000C948A000C948A00F8
:100060000C948A000C948A000000000024002700F1
:100070002A0000000000250028002B0000000000DE
:1000800023002600290004040404040404040202DA
:100090000202020203030303030301020408102007
:1000A0004080010204081020010204081020000012
:1000B0000008000201000003040700000000000027
:1000C0000000BE0411241FBECFEFD8E0DEBFCDBFBD
:1000D00011E0A0E0B1E0ECE0FAE002C005900D9282
:1000E000A433B107D9F721E0A4E3B1E001C01D9228
:1000F000A635B207E1F710E0C2E6D0E004C02197D0
:10010000FE010E94FE04C136D107C9F70E94BF0359
:100110000C9404050C940000AF92BF92CF92DF9232
:10012000EF92FF920F931F93CF93DF936C017B01AC
:100130008B01040F151FEB015E01AE18BF08C0173D
:10014000D10759F06991D601ED91FC910190F081B0
:10015000E02DC6010995892B79F7C501DF91CF9173
:100160001F910F91FF90EF90DF90CF90BF90AF90D5
:100170000895833081F028F4813099F08230A9F01D
:1001800008958730A9F08830C9F08430B1F48091A7
:1001900080008F7D03C0809180008F7780938000E6
:1001A000089584B58F7784BD089584B58F7DFBCF86
:1001B0008091B0008F778093B00008958091B00057
:1001C0008F7DF9CFCF93DF93EBEBF0E08491E7EAFB
:1001D000F0E0D491E3E9F0E0C491CC23A1F08111E7
:1001E0000E94B900EC2FF0E0EE0FFF1FE458FF4F24
:1001F000A591B491EC91ED2381E090E009F480E0C9
:10020000DF91CF91089580E090E0FACF1F93CF93D4
:10021000DF93282F30E0F901E255FF4F8491F90177
:10022000E656FF4FD491F901EA57FF4FC491CC2312
:10023000A9F0162F81110E94B900EC2FF0E0EE0F0B
:10024000FF1FEE58FF4FA591B4918FB7F894EC9132
:10025000111108C0D095DE23DC938FBFDF91CF91C1
:100260001F910895DE2BF8CFCF93DF9390E0FC0130
:10027000E656FF4F24918A579F4FFC0184918823B3
:10028000D1F090E0880F991FFC01E859FF4FA5912C
:10029000B491FC01EE58FF4FC591D49161110EC08D
:1002A0009FB7F8948C91E22FE0958E238C93288150
:1002B000E223E8839FBFDF91CF9108958FB7F89431
:1002C000EC91E22BEC938FBFF6CF3FB7F89480917F
:1002D000390190913A01A0913B01B0913C0126B5C2
:1002E000A89B05C02F3F19F00196A11DB11D3FBF6E
:1002F000BA2FA92F982F8827BC01CD01620F711D3D
:10030000811D911D42E0660F771F881F991F4A9536
:10031000D1F708958F929F92AF92BF92CF92DF92C2
:10032000EF92FF924B015C010E9465016B017C0121
:100330000E9465016C197D098E099F09683E734012
:1003400081059105A8F321E0821A9108A108B1085E
:1003500088EEC80E83E0D81EE11CF11C81149104C4
:10036000A104B10429F7FF90EF90DF90CF90BF90E8
:10037000AF909F908F900895089590E080E0089549
:100380008F929F92AF92BF920F931F93CF93DF9361
:10039000CDB7DEB7A1970FB6F894DEBF0FBECDBFC5
:1003A00019A2423008F44AE08E010F5D1F4F842EDF
:1003B000912CB12CA12CA50194010E94DC04E62F04
:1003C000B901CA01EA3044F5E05DD801EE938D0130
:1003D000232B242B252B79F790E080E0109769F0F0
:1003E000FD0101900020E9F73197AF014A1B5B0B3B
:1003F000BD018EE391E00E948C00A1960FB6F894A7
:10040000DEBF0FBECDBFDF91CF911F910F91BF9087
:10041000AF909F908F900895E95CD7CFFC01019039
:100420000020E9F73197AF01481B590BBC018EE35F
:1004300091E00C948C00CF93DF93EC0160E08E810F
:100440000E94060161E08E810E94060160E08E81BB
:100450000E9406018BE891E00197F1F7DF91CF91BF
:100460000895CF92DF92EF92FF920F931F93CF9355
:10047000DF936C017C0187E0E80EF11CD0E0C0E066
:10048000062F10E0B8010C2E02C0759567950A94EE
:10049000E2F76170F70181917F010E9406012196C8
:1004A000C430D10579F7C601DF91CF911F910F912B
:1004B000FF90EF90DF90CF900C941B02CF92DF92D1
:1004C000EF92FF920F931F93CF93DF93EC01F62EE1
:1004D000642F8C810E9406018D818F3F19F060E0AE
:1004E0000E9406010F2D10E08F8584FF25C06E014C
:1004F00087E0C80ED11CF12CE12CB8010E2C02C0F3
:10050000759567950A94E2F76170F60181916F0124
:100510000E940601FFEFEF1AFF0A88E0E816F104D7
:1005200061F7CE01DF91CF911F910F91FF90EF9076
:10053000DF90CF900C941B02B80184E0759567950D
:100540008A95E1F7CE010E9431026F2DCE01DF9135
:10055000CF911F910F91FF90EF90DF90CF900C946F
:10056000310240E0682F8EE391E00C945E0281E05E
:100570000E94B1028BE39FE10197F1F70895CF93B9
:10058000DF93823029F490914D01986090934D0152
:10059000809351011092520180E48093530180E1D5
:1005A0008093540180E58093550161E08091420180
:1005B0000E943401809143018F3F19F061E00E9455
:1005C000340161E0809144010E943401CEE3D1E026
:1005D0009E012E53314080914D0184FD0BC084E07B
:1005E00090E021962817390744F461E08E810E943B
:1005F0003401EECF88E090E0F4CF8BE39DE00197EB
:10060000F1F760E0809142010E94060160E0809174
:1006100044010E940601809143018F3F19F060E080
:100620000E94060180914D0184FD34C063E08EE399
:1006300091E00E943102CBE4D6E4CE010197F1F7BC
:1006400063E08EE391E00E9431022197F1F763E0CD
:100650008EE391E00E94310283E592E00197F1F789
:1006600062E08EE391E00E94310280914D01806250
:100670000E94B10284E080934E018CE00E94B1029E
:100680000E94B70282E080934F0186E0DF91CF9114
:100690000C94B10280620E94B1028BE496E401974F
:1006A000F1F780914D0180620E94B10283E592E0F2
:1006B0000197F1F780914D0180620E94B102D5CF80
:1006C00090915101691710F06FEF690FE62FF0E07C
:1006D000E25CFE4F9489890F80680C94B10241E07E
:1006E0000E945E0281E090E008951F920F920FB683
:1006F0000F9211242F933F938F939F93AF93BF93A8
:100700008091350190913601A0913701B091380167
:100710003091340123E0230F2D3758F50196A11DA8
:10072000B11D209334018093350190933601A0933D
:100730003701B09338018091390190913A01A0912D
:100740003B01B0913C010196A11DB11D809339017F
:1007500090933A01A0933B01B0933C01BF91AF91BC
:100760009F918F913F912F910F900FBE0F901F90EF
:10077000189526E8230F0296A11DB11DD2CF7894BB
:1007800084B5826084BD84B5816084BD85B5826096
:1007900085BD85B5816085BD80916E008160809347
:1007A0006E001092810080918100826080938100B0
:1007B00080918100816080938100809180008160C0
:1007C000809380008091B10084608093B10080911B
:1007D000B00081608093B00080917A008460809343
:1007E0007A0080917A00826080937A0080917A000A
:1007F000816080937A0080917A00806880937A008B
:100800001092C10060E08DE00E94340182E00E94FD
:10081000BF020E94B70260E081E00E9460038EE0A8
:1008200091E00E940E0261E083E00E9460038EE18D
:1008300091E00E940E0268EE73E080E090E00E947A
:100840008A0188E10E94B10268EC70E080E090E0EB
:100850000E948A0188E10E94B10268EC70E080E0A9
:1008600090E00E948A018CE10E94B10268EC70E085
:1008700080E090E00E948A018CE10E94B10268EC65
:1008800070E080E090E00E948A0188E10E94B1025D
:1008900068EC70E080E090E00E948A0160ED77E013
:1008A00080E090E00E948A010E94B70260E083E04D
:1008B0000E94600388E291E00E940E02CCE0D0E04A
:1008C00088E10E94B10260E971E080E090E00E945E
:1008D0008A012197A9F788E10E94B10268EC70E0D3
:1008E00080E090E00E948A0188E10E94B10268ECF9
:1008F00070E080E090E00E948A01C0E0D0E00E94B9
:10090000E200019781F580913D0181112CC061E0E9
:100910000E946003C0900001D09001010D2C000CDA
:10092000EE08FF084AE0C701B601F7FE0EC041E03D
:100930006DE28EE391E00E945E0266277727CB018D
:100940006C197D098E099F094AE00E94C0018091BF
:1009500000019091010101969093010180930001A3
:1009600081E080933D010E94E200892B11F41092F6
:100970003D01209721F20E940000C1CFEEE3F1E09B
:100980001382128286E091E0918380838CE08483DD
:100990008FEF85838BE0868385E0878384E0808783
:1009A00083E0818782E08287138614861586168607
:1009B000178681E00C94BF02A1E21A2EAA1BBB1B72
:1009C000FD010DC0AA1FBB1FEE1FFF1FA217B3071B
:1009D000E407F50720F0A21BB30BE40BF50B661F31
:1009E000771F881F991F1A9469F7609570958095F5
:1009F00090959B01AC01BD01CF010895EE0FFF1F43
:0C0A00000590F491E02D0994F894FFCFCC
:100A0C000100000000006F038C00BD01BC01436CB1
:100A1C0065616E6F20466572726569726100204C6B
:100A2C0043442031367832004F6C61204D756E6432
:040A3C006F21210005
:00000001FF
