:100000000C945E000C9486000C9486000C94860080
:100010000C9486000C9486000C9486000C94860048
:100020000C9486000C9486000C9486000C94950524
:100030000C9486000C9486000C9486000C94860028
:100040000C944B050C9486000C9419050C94F30445
:100050000C9486000C9486000C9486000C94860008
:100060000C9486000C948600000000080002010039
:100070000003040700000000000000000000000072
:10008000250028002B0000000000240027002A0083
:10009000040404040404040402020202020203032E
:1000A0000303030301020408102040800102040836
:1000B00010200102040810205106000A11241FBE5E
:1000C000CFEFD8E0DEBFCDBF11E0A0E0B1E0E4EEBD
:1000D000F9E102C005900D92A43BB107D9F722E0E7
:1000E000A4EBB1E001C01D92A53AB207E1F710E020
:1000F000CDE5D0E004C02197FE010E94E40ACC3592
:10010000D107C9F70E94EE060C94E50C0C94000090
:1001100090E0FC01EC55FF4F249180579F4FFC016C
:100120008491882399F090E0880F991FFC01EA5789
:10013000FF4FA591B491FC01E458FF4F8591949134
:100140008FB7F894EC91E22BEC938FBF0895CF9288
:10015000DF92EF92FF92DC01A03282E0B807D4F583
:10016000A53BB10514F0A4EBB0E04091870228E86C
:1001700030E0241B310947FD3395220F331F220F36
:10018000331F6901330FEE08FF084091880228E50C
:1001900032E0241B310947FD3395220F331F220F14
:1001A000331F032E000C440B550B2C193D094E092F
:1001B0005F09B7FF02C0B0E0A0E00E94680A24EB2C
:1001C00030E040E050E00E943E0AC20ED31EE41E22
:1001D000F51ED601E0918602EC3080F52091870271
:1001E00088E890E0821B910927FD9395880F991F5D
:1001F000880F991FA817B90784F02091880288E515
:1002000092E0821B910927FD9395880F991F880F13
:10021000991FA817B9070CF4CD010297880F991FF1
:100220004FB7F8942E2F30E0F901EE0FFF1FE20FC9
:10023000F31FE55AFD4F928381834FBFFF90EF90EC
:10024000DF90CF900895AF92BF92CF92DF92EF925E
:10025000FF920F931F93CF93DF936C017B018B0170
:10026000040F151FEB015E01AE18BF08C017D107C0
:1002700059F06991D601ED91FC910190F081E02D4A
:10028000C6010995892B79F7C501DF91CF911F919F
:100290000F91FF90EF90DF90CF90BF90AF900895B7
:1002A000FC01538D448D252F30E0842F90E0821B7C
:1002B000930B541710F0CF96089501970895FC0101
:1002C000918D828D981761F0A28DAE0FBF2FB11D59
:1002D0005D968C91928D9F5F9F73928F90E00895B1
:1002E0008FEF9FEF0895FC01918D828D981731F06B
:1002F000828DE80FF11D858D90E008958FEF9FEFBF
:100300000895FC01918D228D892F90E0805C9F4F94
:10031000821B91098F73992708958EEB91E00E94BB
:10032000810121E0892B09F420E0822F089580E0EB
:1003300090E0892B29F00E948D0181110C9400001E
:100340000895FC01A48DA80FB92FB11DA35ABF4F6A
:100350002C91848D90E001968F739927848FA689C4
:10036000B7892C93A089B1898C91837080648C9318
:10037000938D848D981306C00288F389E02D8081C7
:100380008F7D80830895EF92FF920F931F93CF93F9
:10039000DF93EC0181E0888F9B8D8C8D98131AC0C0
:1003A000E889F989808185FF15C09FB7F894EE89A7
:1003B000FF896083E889F989808183708064808304
:1003C0009FBF81E090E0DF91CF911F910F91FF904F
:1003D000EF900895F62E0B8D10E00F5F1F4F0F73F7
:1003E0001127E02E8C8D8E110CC00FB607FCFACFB2
:1003F000E889F989808185FFF5CFCE010E94A101AE
:10040000F1CFEB8DEC0FFD2FF11DE35AFF4FF08282
:100410009FB7F8940B8FEA89FB8980818062CFCFE8
:10042000CF93DF93EC01888D8823B9F0AA89BB892B
:10043000E889F9898C9185FD03C0808186FD0DC016
:100440000FB607FCF7CF8C9185FFF2CF808185FF37
:10045000EDCFCE010E94A101E9CFDF91CF910895A8
:1004600090E0FC01E859FF4F2491FC01EC55FF4F4F
:100470003491FC01E057FF4FE491EE23C9F02223B1
:1004800039F0233001F1A8F4213019F1223029F19B
:10049000F0E0EE0FFF1FE458FF4FA591B4918FB726
:1004A000F894EC91611126C030953E233C938FBFA8
:1004B00008952730A9F02830C9F0243049F78091F9
:1004C00080008F7D03C0809180008F7780938000B3
:1004D000DFCF84B58F7784BDDBCF84B58F7DFBCF35
:1004E0008091B0008F778093B000D2CF8091B00020
:1004F0008F7DF9CF3E2BDACF8E3008F08E5087708B
:10050000806480937C0080917A00806480937A007C
:1005100080917A0086FDFCCF8091780090917900DF
:1005200008953FB7F8948091BA019091BB01A091D2
:10053000BC01B091BD0126B5A89B05C02F3F19F0A5
:100540000196A11DB11D3FBFBA2FA92F982F882753
:10055000BC01CD01620F711D811D911D42E0660F2E
:10056000771F881F991F4A95D1F708958F929F9200
:10057000AF92BF92CF92DF92EF92FF924B015C015C
:100580000E9491026B017C010E9491026C197D090D
:100590008E099F09683E734081059105A8F321E00B
:1005A000821A9108A108B10888EEC80E83E0D81E0F
:1005B000E11CF11C81149104A104B10429F7FF90FE
:1005C000EF90DF90CF90BF90AF909F908F90089565
:1005D000089590E080E00895CF93DF93EC0160E010
:1005E0008E810E94300261E08E810E94300260E0C4
:1005F0008E810E9430028BE891E00197F1F7DF9144
:10060000CF910895CF92DF92EF92FF920F931F93B5
:10061000CF93DF936C017C0187E0E80EF11CD0E002
:10062000C0E0062F10E0B8010C2E02C0759567954A
:100630000A94E2F76170F70181917F010E94300214
:100640002196C430D10579F7C601DF91CF911F9172
:100650000F91FF90EF90DF90CF900C94EC02CF922F
:10066000DF92EF92FF920F931F93CF93DF93EC01F2
:10067000F62E642F8C810E9430028D818F3F19F0FD
:1006800060E00E9430020F2D10E08F8584FF25C0AE
:100690006E0187E0C80ED11CF12CE12CB8010E2CA4
:1006A00002C0759567950A94E2F76170F601819131
:1006B0006F010E943002FFEFEF1AFF0A88E0E81690
:1006C000F10461F7CE01DF91CF911F910F91FF905F
:1006D000EF90DF90CF900C94EC02B80184E0759518
:1006E00067958A95E1F7CE010E9402036F2DCE0136
:1006F000DF91CF911F910F91FF90EF90DF90CF90FE
:100700000C94020340E0682F89E892E00C942F03D8
:1007100081E00E9482038BE39FE10197F1F7089546
:10072000CF93DF93823029F4909198029860909350
:10073000980280939C0210929D0280E480939E0216
:1007400080E180939F0280E58093A00280918D02DA
:100750000E94880080918E028F3F11F00E948800D5
:1007600080918F020E948800C9E8D2E09E0129583A
:1007700032408091980284FD0AC084E090E0219686
:10078000281739073CF48E810E948800EFCF88E05B
:1007900090E0F5CF8BE39DE00197F1F760E0809169
:1007A0008D020E94300260E080918F020E94300230
:1007B00080918E028F3F19F060E00E94300280919C
:1007C000980284FD34C063E089E892E00E9402034D
:1007D000CBE4D6E4CE010197F1F763E089E892E03B
:1007E0000E9402032197F1F763E089E892E00E94FA
:1007F000020383E592E00197F1F762E089E892E075
:100800000E9402038091980280620E94820384E029
:10081000809399028CE00E9482030E94880382E008
:1008200080939A0286E0DF91CF910C9482038062DC
:100830000E9482038BE496E40197F1F7809198027D
:1008400080620E94820383E592E00197F1F7809134
:10085000980280620E948203D5CF90919C02691712
:1008600010F06FEF690FE62FF0E0E757FD4F948926
:10087000890F80680C94820341E00E942F0381E07D
:1008800090E00895FB0101900020E9F73197AF0156
:10089000461B570BDC01ED91FC910280F381E02DAA
:1008A0000994BC0189E892E00C9442040F931F93D1
:1008B000CF93DF93EC0188819981009759F02A81C9
:1008C0003B812617370730F081E0DF91CF911F91F0
:1008D0000F9108958B016F5F7F4F0E940F0C00975F
:1008E00059F0998388831B830A832C813D81232BB4
:1008F00059F7FC011082E8CF80E0E7CFEF92FF923A
:100900000F931F93CF93DF93EC017B018A01BA0110
:100910000E94560428813981811114C021153105A6
:1009200019F0C9010E94860B198218821D821C824F
:100930001B821A82CE01DF91CF911F910F91FF9000
:10094000EF9008951D830C83B701C9010E94DE0C4E
:10095000F1CFCF93DF93EC0170E060E00E9456048A
:100960002881398181110FC02115310519F0C90184
:100970000E94860B198218821D821C821B821A8299
:10098000DF91CF9108951D821C826CE771E0C9014F
:10099000DF91CF910C94DE0CEF92FF920F931F9397
:1009A000CF93DF9341155105B1F07B01EC010C8130
:1009B0001D81040F151FB8010E945604882361F0A1
:1009C000288139818C819D81B701820F931F0E94FC
:1009D000DE0C1D830C8381E0DF91CF911F910F917D
:1009E000FF90EF9008951F920F920FB60F9211246F
:1009F0002F933F934F935F936F937F938F939F9327
:100A0000AF93BF93EF93FF938EEB91E00E94A10110
:100A1000FF91EF91BF91AF919F918F917F916F91D6
:100A20005F914F913F912F910F900FBE0F901F90AC
:100A300018951F920F920FB60F9211242F938F9338
:100A40009F93EF93FF93E091CE01F091CF018081CE
:100A5000E091D401F091D50182FD1BC0908180917D
:100A6000D7018F5F8F732091D801821741F0E091F9
:100A7000D701F0E0E254FE4F958F8093D701FF91AC
:100A8000EF919F918F912F910F900FBE0F901F901C
:100A900018958081F4CF1F920F920FB60F921124F8
:100AA0002F933F938F939F93AF93BF938091B60102
:100AB0009091B701A091B801B091B9013091B50101
:100AC00023E0230F2D3758F50196A11DB11D20936A
:100AD000B5018093B6019093B701A093B801B0938C
:100AE000B9018091BA019091BB01A091BC01B09174
:100AF000BD010196A11DB11D8093BA019093BB0168
:100B0000A093BC01B093BD01BF91AF919F918F9114
:100B10003F912F910F900FBE0F901F90189526E8D0
:100B2000230F0296A11DB11DD2CF1F920F920FB6B7
:100B30000F9211242F933F934F935F936F937F9363
:100B40008F939F93AF93BF93CF93DF93EF93FF93D5
:100B50008091B401C0917F02D0E087FF24C0109241
:100B60008500109284008091B4018F5F8093B4015E
:100B70008091B401082E000C990B8C179D0724F46A
:100B80008091B4018C30C4F18091840090918500F3
:100B9000049680349C4908F47AC080918400909136
:100BA0008500049676C08091B401082E000C990B44
:100BB0008C179D07C4F6E091B4018E2FEE0F990BB0
:100BC000FC01EE0FFF1FE80FF91FE55AFD4F808172
:100BD00086FFC9CFE091B4018E2FEE0F990BFC0177
:100BE000EE0FFF1FE80FF91FE55AFD4F808160E00F
:100BF0008F730E943002B7CF20918400309185001E
:100C0000E091B4018E2FEE0F990BFC01EE0FFF1F48
:100C1000E80FF91FE55AFD4F81819281820F931FE2
:100C20009093890080938800E091B4018E2FEE0F9D
:100C3000990BFC01EE0FFF1FE80FF91FE55AFD4F5E
:100C4000808186FF11C0E091B4018E2FEE0F990BC9
:100C5000FC01EE0FFF1FE80FF91FE55AFD4F8081E1
:100C600061E08F730E943002FF91EF91DF91CF918D
:100C7000BF91AF919F918F917F916F915F914F91B4
:100C80003F912F910F900FBE0F901F90189580E409
:100C90009CE990938900809388008FEF8093B40142
:100CA000E3CFCF931092C1011092C00188EE93E080
:100CB000A0E0B0E08093C2019093C301A093C4016F
:100CC000B093C50182E291E09093BF018093BE0191
:100CD00085EC90E09093CB018093CA0184EC90E086
:100CE0009093CD018093CC0180EC90E09093CF0164
:100CF0008093CE0181EC90E09093D1018093D0015C
:100D000082EC90E09093D3018093D20186EC90E046
:100D10009093D5018093D4011092D7011092D801FD
:100D20001092D9011092DA0110928C0210928B026B
:100D300084E391E090938A02809389028CE080930F
:100D40008D02CFEFC0938E028BE080938F0289E0FB
:100D50008093900288E08093910287E080939202D2
:100D600086E0809393021092940210929502109262
:100D70009602109297021092980281E00E949003CE
:100D800080917F028C3038F591E0980F90937F022C
:100D90008093860290E0FC01EE0FFF1FE80FF91F21
:100DA000E55AFD4F88EB9BE092838183109281028C
:100DB0001092800210928302109282021092850299
:100DC0001092840244E050E06CE371E080E892E02D
:100DD000CF910C947E04C0938602E8CFCF93DF932B
:100DE000CDB7DEB7AA970FB6F894DEBF0FBECDBF62
:100DF000789484B5826084BD84B5816084BD85B5F6
:100E0000826085BD85B5816085BD80916E00816001
:100E100080936E00109281008091810082608093A7
:100E200081008091810081608093810080918000A9
:100E30008160809380008091B10084608093B100D4
:100E40008091B00081608093B00080917A008460CE
:100E500080937A0080917A00826080937A008091FA
:100E60007A00816080937A0080917A008068809314
:100E70007A001092C100E091CE01F091CF0182E0A2
:100E80008083E091CA01F091CB011082E091CC0106
:100E9000F091CD018FEC80831092D601E091D201C8
:100EA000F091D30186E08083E091D001F091D101EF
:100EB000808180618083E091D001F091D1018081B7
:100EC00088608083E091D001F091D10180818068B9
:100ED0008083E091D001F091D10180818F7D80836A
:100EE000809186028C3008F050C08AE00E94880011
:100EF00080918602282F30E0F901EE0FFF1FE20FEC
:100F0000F31FE55AFD4F9081907C9A609083109278
:100F10008702109288022CE0622F0E94D80A829FDA
:100F2000B001112430E020E0AB01420F531FFA0161
:100F3000EE0FFF1FE40FF51FE55AFD4F908196FD60
:100F400016C02F5F3F4F2C30310571F781110FC054
:100F50001092800082E080938100109285001092B0
:100F60008400B19A80916F00826080936F00E0915D
:100F700086028E2F90E0FC01EE0FFF1FE80FF91F95
:100F8000E55AFD4F80818064808390E080E00E947C
:100F9000A70082E00E9490030E94880360E082E044
:100FA0000E942D0481E491E00E94510461E083E0FD
:100FB0000E942D048FE491E00E94510468EE73E0DA
:100FC00080E090E00E94B6020E948803CE01019664
:100FD0001C012AE0422E512C612C712C1BA21AA25A
:100FE0001DA21CA21FA21EA250E040E06CE771E00F
:100FF000CE0182960E947E0460E081E00E942D0472
:1010000088E591E00E94510482E1E82E81E0F82E0B
:1010100092E098A719A661E088A50E94300205E039
:1010200010E00AA7802F0E947C02843893400CF4C1
:1010300006C1F801EE0FFF1F7697EE0DFF1DC08071
:10104000D180FCE0CF16D104E9F441E050E067E63E
:1010500071E0CE0182960E94CC04D12CC12C8EA1CD
:101060009FA101978C159D0508F497C061E08C2D18
:101070000E942D0489E691E00E9451042FEFC21ACC
:10108000D20AEDCF8DE0C816D104E9F441E050E07A
:101090006BE671E0CE0182960E94CC04D12CC12C6B
:1010A0008EA19FA101978C159D0508F476C061E083
:1010B0008C2D0E942D0489E691E00E9451049FEF3F
:1010C000C91AD90AEDCF46010D2C000CAA08BB089D
:1010D000B7FE4DC06DE28EEB91E00E94C301222766
:1010E0003327A901281939094A095B0919A2FE0108
:1010F000B1965F01CA01B901A30192010E94A70A3A
:10110000605DF50162935F012115310541055105CF
:1011100089F7A114B10429F0B5018EEB91E00E948A
:1011200042044AE0B101C6010E94090AF10101909E
:101130000020E9F73197AF0142195309B101CE01FF
:1011400082960E94CC04D12CC12C8EA19FA1019724
:101150008C159D0510F161E08C2D0E942D0489E60F
:1011600091E00E945104FFEFCF1ADF0AEECFA501F4
:10117000940119A2CE0181965C01CA01B901A301B3
:1011800092010E94A70A605DF50162935F0121153B
:1011900031054105510589F7BCCF81E00E947C02F1
:1011A000843893405CF064E670E080E090E00E9458
:1011B000B6020E94880381E089A71CC082E00E94D9
:1011C0007C0284389340B4F00E948803CE0182965A
:1011D0000E94A90461E083E00E942D048DE691E065
:1011E0000E9451046CE271E080E090E00E94B6023F
:1011F0000E9488038AA50E947C0284389340FCF0F8
:1012000081E00E947C02843893406CF682E00E9468
:101210007C028438934074F30E948803CE01829646
:101220000E94A90461E083E00E942D048DE691E014
:101230000E94510468EE73E080E090E0D7CF0F5F2A
:101240001F4F0830110509F0ECCE81E00E947C02AE
:10125000843893400CF452C064E670E080E090E083
:101260000E94B6020E94880321E029A760E088A5B9
:101270000E943002F8A5FF5FF8A726E0E20EF11CFD
:10128000F63009F0C8CE99A5992309F4BDCE4EA138
:101290005FA16AA17BA18EEB91E00E9423016AE726
:1012A00071E08EEB91E00E94420460E081E00E94D8
:1012B0002D048DE791E00E94510468EE73E080E018
:1012C00090E00E94B60220918402309185028EA1A6
:1012D0009FA12817390799F580918002909181028A
:1012E0006AA17BA10097F1F16115710529F5232B06
:1012F00009F445C0FC01808190E03FC082E00E947B
:101300007C02843893400CF4B1CF0E948803CE0154
:1013100082960E94A90461E083E00E942D048DE67C
:1013200091E00E9451046CE271E080E090E00E9444
:10133000B6020E9488039ACF0E94D50C1EC00E945C
:10134000880360E081E00E942D0487EA91E00E941A
:10135000510468EB7BE080E090E00E94B6020E94BE
:1013600088033BC06115710551F0232B41F0FB014F
:10137000808190E0919581959109892B01F70E94D8
:10138000880360E081E00E942D048CE891E00E94D7
:10139000510484EB90E00E94A70068EB7BE080E0C2
:1013A00090E00E94B6020E94880360E081E00E9403
:1013B0002D0489E991E00E94510468EE73E080E019
:1013C00090E00E94B60290E080E00E94A7000E9498
:1013D0008803CE0182960E94A9048AA19BA100974E
:1013E00011F00E94860B80E090E0892B09F4F6CD85
:1013F0000E948D01882309F4F1CD0E940000EECDFA
:101400008091800290918102009711F00C94860BDC
:101410000895BB274A3031F4992322F4BDE2909518
:1014200081959F4F0C94150ABB27FB015527AA27CE
:10143000880F991FAA1FA41710F0A41B8395505161
:10144000B9F7A05DAA3308F0A95DA193009779F7D9
:10145000B111B1931192CB010C942E0ADC01FC0165
:10146000672F71917723E1F7329704C07C916D93D8
:1014700070836291AE17BF07C8F30895052E97FBDE
:101480001EF400940E94550A57FD07D00E94A70A37
:1014900007FC03D04EF40C94550A509540953095B6
:1014A00021953F4F4F4F5F4F0895909580957095D0
:1014B00061957F4F8F4F9F4F08950E94C90AA59F46
:1014C000900DB49F900DA49F800D911D112408953F
:1014D000B7FF0C945D0A0E945D0A821B930B08956E
:1014E0002F923F924F925F926F927F928F929F9234
:1014F000AF92BF92CF92DF92EF92FF920F931F9322
:10150000CF93DF93CDB7DEB7CA1BDB0B0FB6F894D2
:10151000DEBF0FBECDBF09942A88398848885F8412
:101520006E847D848C849B84AA84B984C884DF8083
:10153000EE80FD800C811B81AA81B981CE0FD11D67
:101540000FB6F894DEBF0FBECDBFED010895A1E246
:101550001A2EAA1BBB1BFD010DC0AA1FBB1FEE1F2D
:10156000FF1FA217B307E407F50720F0A21BB30B78
:10157000E40BF50B661F771F881F991F1A9469F7F4
:1015800060957095809590959B01AC01BD01CF0150
:101590000895A29FB001B39FC001A39F700D811D4C
:1015A0001124911DB29F700D811D1124911D08956C
:1015B000991B79E004C0991F961708F0961B881FA5
:1015C0007A95C9F780950895EE0FFF1F0590F49165
:1015D000E02D09940F931F93CF93DF9382309105F1
:1015E00010F482E090E0E091A302F091A40230E0D8
:1015F00020E0B0E0A0E0309799F42115310509F41E
:101600004AC0281B390B24303105D8F58A819B81CB
:101610006115710589F1FB0193838283FE0111C07D
:10162000408151810281138148175907E0F0481722
:10163000590799F4109761F012960C93129713962C
:101640001C933296CF01DF91CF911F910F91089596
:101650000093A3021093A402F4CF2115310551F099
:101660004217530738F0A901DB019A01BD01DF01E0
:10167000F801C1CFEF01F9CF9093A4028093A302A8
:10168000CDCFFE01E20FF31F8193919322503109D8
:1016900039832883D7CF2091A1023091A202232B36
:1016A00041F420910201309103013093A202209372
:1016B000A10220910001309101012115310541F471
:1016C0002DB73EB74091040150910501241B350B05
:1016D000E091A102F091A202E217F307A0F42E1B01
:1016E0003F0B2817390778F0AC014E5F5F4F241786
:1016F000350748F04E0F5F1F5093A2024093A1029E
:10170000819391939FCFF0E0E0E09CCFCF93DF9364
:101710000097E9F0FC01329713821282A091A30294
:10172000B091A402ED0130E020E01097A1F42081F7
:101730003181820F931F2091A1023091A2022817BC
:10174000390709F061C0F093A202E093A102DF9192
:10175000CF910895EA01CE17DF07E8F54A815B8152
:101760009E0141155105B1F7E901FB83EA834991D7
:101770005991C40FD51FEC17FD0761F48081918149
:101780000296840F951FE901998388838281938152
:101790009B838A83F0E0E0E012968D919C911397F1
:1017A0000097B9F52D913C911197CD010296820FCA
:1017B000931F2091A1023091A2022817390739F610
:1017C000309751F51092A4021092A302B093A20296
:1017D000A093A102BCCFD383C28340815181840FE7
:1017E000951FC817D90761F44E5F5F4F88819981B3
:1017F000480F591F518340838A819B819383828341
:101800002115310509F0B0CFF093A402E093A302B3
:101810009ECFFD01DC01C0CF13821282D7CFB0E092
:10182000A0E0E5E1FCE00C94720A8C01009751F411
:10183000CB010E94EA0A8C01C801CDB7DEB7E0E116
:101840000C948E0AFC01E60FF71F9C01225031090F
:10185000E217F30708F49DC0D901CD91DC911197EF
:10186000C617D70798F0C530D10530F3CE010497DD
:101870008617970708F3C61BD70B2297C193D193FE
:101880006D937C93CF010E94860BD6CF5B01AC1A7F
:10189000BD0A4C018C0E9D1EA091A302B091A40222
:1018A000512C412CF12CE12C109731F58091A102A3
:1018B0009091A2028815990509F05CC0461657065A
:1018C00008F058C08091000190910101009741F407
:1018D0008DB79EB74091040150910501841B950B73
:1018E000E817F90708F055C0F093A202E093A102AF
:1018F000F90171836083A0CF8D919C91119712960D
:101900006C90129713967C901397A815B90559F50A
:101910006C0142E0C40ED11CCA14DB0420F1AC01FE
:101920004A195B09DA011296159780F06282738278
:1019300051834083D9016D937C93E114F10471F0DC
:10194000D7011396FC93EE93129776CF22968C0FC5
:101950009D1FF90191838083F301EFCFF093A402DF
:10196000E093A30269CF4816590608F42C017D01C3
:10197000D3019ACFCB010E94EA0A7C01009749F07B
:10198000AE01B8010E94CC0CC8010E94860B8701F1
:1019900053CF10E000E050CFFB01DC0102C001900A
:1019A0000D9241505040D8F70895FB01DC018D9114
:1019B000019080190110D9F3990B0895FB01DC0106
:1019C00001900D920020E1F7089510E0CDE5D0E000
:1019D00004C0FE010E94E40A2196CE35D107C9F762
:0419E000F894FFCFA9
:1019E4000000A502800001000200030004000500BD
:1019F40006000700080009000C0000000D000000AC
:101A04000000C30123015001100281015F01730131
:101A1400000000003C042301E902E80231323330C3
:101A240000496E696369616E646F202E2E2E004C2E
:101A34004344203136783200446967697465206113
:101A44002073656E6861002A0040002300526573AC
:101A54006574616E646F2E2E2E000D0A0056657239
:101A640069666963616E646F2E2E2E00506F727406
:101A7400612061626572746100506F7274612066E6
:101A84006563686164610053656E686120657272A4
:041A94006164610028
:00000001FF
