:100000000C945E000C9486000C9486000C94860080
:100010000C9486000C9486000C9486000C94860048
:100020000C9486000C9486000C9486000C94950524
:100030000C9486000C9486000C9486000C94860028
:100040000C944B050C9486000C9419050C94F30445
:100050000C9486000C9486000C9486000C94860008
:100060000C9486000C948600000000080002010039
:100070000003040700000000000000000000000072
:10008000250028002B0000000000240027002A0083
:10009000040404040404040402020202020203032E
:1000A0000303030301020408102040800102040836
:1000B00010200102040810205106E00911241FBE7F
:1000C000CFEFD8E0DEBFCDBF11E0A0E0B1E0E4EAC1
:1000D000F9E102C005900D92A03BB107D9F722E0EB
:1000E000A0EBB1E001C01D92A13AB207E1F710E028
:1000F000CDE5D0E004C02197FE010E94C40ACC35B2
:10010000D107C9F70E94EE060C94C50C0C940000B0
:1001100090E0FC01EC55FF4F249180579F4FFC016C
:100120008491882399F090E0880F991FFC01EA5789
:10013000FF4FA591B491FC01E458FF4F8591949134
:100140008FB7F894EC91E22BEC938FBF0895CF9288
:10015000DF92EF92FF92DC01A03282E0B807D4F583
:10016000A53BB10514F0A4EBB0E04091830228E870
:1001700030E0241B310947FD3395220F331F220F36
:10018000331F6901330FEE08FF084091840228E510
:1001900032E0241B310947FD3395220F331F220F14
:1001A000331F032E000C440B550B2C193D094E092F
:1001B0005F09B7FF02C0B0E0A0E00E94480A24EB4C
:1001C00030E040E050E00E941E0AC20ED31EE41E42
:1001D000F51ED601E0918202EC3080F52091830279
:1001E00088E890E0821B910927FD9395880F991F5D
:1001F000880F991FA817B90784F02091840288E519
:1002000092E0821B910927FD9395880F991F880F13
:10021000991FA817B9070CF4CD010297880F991FF1
:100220004FB7F8942E2F30E0F901EE0FFF1FE20FC9
:10023000F31FE95AFD4F928381834FBFFF90EF90E8
:10024000DF90CF900895AF92BF92CF92DF92EF925E
:10025000FF920F931F93CF93DF936C017B018B0170
:10026000040F151FEB015E01AE18BF08C017D107C0
:1002700059F06991D601ED91FC910190F081E02D4A
:10028000C6010995892B79F7C501DF91CF911F919F
:100290000F91FF90EF90DF90CF90BF90AF900895B7
:1002A000FC01538D448D252F30E0842F90E0821B7C
:1002B000930B541710F0CF96089501970895FC0101
:1002C000918D828D981761F0A28DAE0FBF2FB11D59
:1002D0005D968C91928D9F5F9F73928F90E00895B1
:1002E0008FEF9FEF0895FC01918D828D981731F06B
:1002F000828DE80FF11D858D90E008958FEF9FEFBF
:100300000895FC01918D228D892F90E0805C9F4F94
:10031000821B91098F73992708958AEB91E00E94BF
:10032000810121E0892B09F420E0822F089580E0EB
:1003300090E0892B29F00E948D0181110C9400001E
:100340000895FC01A48DA80FB92FB11DA35ABF4F6A
:100350002C91848D90E001968F739927848FA689C4
:10036000B7892C93A089B1898C91837080648C9318
:10037000938D848D981306C00288F389E02D8081C7
:100380008F7D80830895EF92FF920F931F93CF93F9
:10039000DF93EC0181E0888F9B8D8C8D98131AC0C0
:1003A000E889F989808185FF15C09FB7F894EE89A7
:1003B000FF896083E889F989808183708064808304
:1003C0009FBF81E090E0DF91CF911F910F91FF904F
:1003D000EF900895F62E0B8D10E00F5F1F4F0F73F7
:1003E0001127E02E8C8D8E110CC00FB607FCFACFB2
:1003F000E889F989808185FFF5CFCE010E94A101AE
:10040000F1CFEB8DEC0FFD2FF11DE35AFF4FF08282
:100410009FB7F8940B8FEA89FB8980818062CFCFE8
:10042000CF93DF93EC01888D8823B9F0AA89BB892B
:10043000E889F9898C9185FD03C0808186FD0DC016
:100440000FB607FCF7CF8C9185FFF2CF808185FF37
:10045000EDCFCE010E94A101E9CFDF91CF910895A8
:1004600090E0FC01E859FF4F2491FC01EC55FF4F4F
:100470003491FC01E057FF4FE491EE23C9F02223B1
:1004800039F0233001F1A8F4213019F1223029F19B
:10049000F0E0EE0FFF1FE458FF4FA591B4918FB726
:1004A000F894EC91611126C030953E233C938FBFA8
:1004B00008952730A9F02830C9F0243049F78091F9
:1004C00080008F7D03C0809180008F7780938000B3
:1004D000DFCF84B58F7784BDDBCF84B58F7DFBCF35
:1004E0008091B0008F778093B000D2CF8091B00020
:1004F0008F7DF9CF3E2BDACF8E3008F08E5087708B
:10050000806480937C0080917A00806480937A007C
:1005100080917A0086FDFCCF8091780090917900DF
:1005200008953FB7F8948091B6019091B701A091DA
:10053000B801B091B90126B5A89B05C02F3F19F0AD
:100540000196A11DB11D3FBFBA2FA92F982F882753
:10055000BC01CD01620F711D811D911D42E0660F2E
:10056000771F881F991F4A95D1F708958F929F9200
:10057000AF92BF92CF92DF92EF92FF924B015C015C
:100580000E9491026B017C010E9491026C197D090D
:100590008E099F09683E734081059105A8F321E00B
:1005A000821A9108A108B10888EEC80E83E0D81E0F
:1005B000E11CF11C81149104A104B10429F7FF90FE
:1005C000EF90DF90CF90BF90AF909F908F90089565
:1005D000089590E080E00895CF93DF93EC0160E010
:1005E0008E810E94300261E08E810E94300260E0C4
:1005F0008E810E9430028BE891E00197F1F7DF9144
:10060000CF910895CF92DF92EF92FF920F931F93B5
:10061000CF93DF936C017C0187E0E80EF11CD0E002
:10062000C0E0062F10E0B8010C2E02C0759567954A
:100630000A94E2F76170F70181917F010E94300214
:100640002196C430D10579F7C601DF91CF911F9172
:100650000F91FF90EF90DF90CF900C94EC02CF922F
:10066000DF92EF92FF920F931F93CF93DF93EC01F2
:10067000F62E642F8C810E9430028D818F3F19F0FD
:1006800060E00E9430020F2D10E08F8584FF25C0AE
:100690006E0187E0C80ED11CF12CE12CB8010E2CA4
:1006A00002C0759567950A94E2F76170F601819131
:1006B0006F010E943002FFEFEF1AFF0A88E0E81690
:1006C000F10461F7CE01DF91CF911F910F91FF905F
:1006D000EF90DF90CF900C94EC02B80184E0759518
:1006E00067958A95E1F7CE010E9402036F2DCE0136
:1006F000DF91CF911F910F91FF90EF90DF90CF90FE
:100700000C94020340E0682F85E892E00C942F03DC
:1007100081E00E9482038BE39FE10197F1F7089546
:10072000CF93DF93823029F4909194029860909354
:100730009402809398021092990280E480939A0226
:1007400080E180939B0280E580939C0280918902E6
:100750000E94880080918A028F3F11F00E948800D9
:1007600080918B020E948800C5E8D2E09E01255846
:1007700032408091940284FD0AC084E090E021968A
:10078000281739073CF48E810E948800EFCF88E05B
:1007900090E0F5CF8BE39DE00197F1F760E0809169
:1007A00089020E94300260E080918B020E94300238
:1007B00080918A028F3F19F060E00E9430028091A0
:1007C000940284FD34C063E085E892E00E94020355
:1007D000CBE4D6E4CE010197F1F763E085E892E03F
:1007E0000E9402032197F1F763E085E892E00E94FE
:1007F000020383E592E00197F1F762E085E892E079
:100800000E9402038091940280620E94820384E02D
:10081000809395028CE00E9482030E94880382E00C
:100820008093960286E0DF91CF910C9482038062E0
:100830000E9482038BE496E40197F1F78091940281
:1008400080620E94820383E592E00197F1F7809134
:10085000940280620E948203D5CF9091980269171A
:1008600010F06FEF690FE62FF0E0EB57FD4F948922
:10087000890F80680C94820341E00E942F0381E07D
:1008800090E00895FB0101900020E9F73197AF0156
:10089000461B570BDC01ED91FC910280F381E02DAA
:1008A0000994BC0185E892E00C9442040F931F93D5
:1008B000CF93DF93EC0188819981009759F02A81C9
:1008C0003B812617370730F081E0DF91CF911F91F0
:1008D0000F9108958B016F5F7F4F0E94EF0B009780
:1008E00059F0998388831B830A832C813D81232BB4
:1008F00059F7FC011082E8CF80E0E7CFEF92FF923A
:100900000F931F93CF93DF93EC017B018A01BA0110
:100910000E94560428813981811114C021153105A6
:1009200019F0C9010E94660B198218821D821C826F
:100930001B821A82CE01DF91CF911F910F91FF9000
:10094000EF9008951D830C83B701C9010E94BE0C6E
:10095000F1CFCF93DF93EC0170E060E00E9456048A
:100960002881398181110FC02115310519F0C90184
:100970000E94660B198218821D821C821B821A82B9
:10098000DF91CF9108951D821C826AE771E0C90151
:10099000DF91CF910C94BE0CEF92FF920F931F93B7
:1009A000CF93DF9341155105B1F07B01EC010C8130
:1009B0001D81040F151FB8010E945604882361F0A1
:1009C000288139818C819D81B701820F931F0E94FC
:1009D000BE0C1D830C8381E0DF91CF911F910F919D
:1009E000FF90EF9008951F920F920FB60F9211246F
:1009F0002F933F934F935F936F937F938F939F9327
:100A0000AF93BF93EF93FF938AEB91E00E94A10114
:100A1000FF91EF91BF91AF919F918F917F916F91D6
:100A20005F914F913F912F910F900FBE0F901F90AC
:100A300018951F920F920FB60F9211242F938F9338
:100A40009F93EF93FF93E091CA01F091CB018081D6
:100A5000E091D001F091D10182FD1BC09081809185
:100A6000D3018F5F8F732091D401821741F0E09101
:100A7000D301F0E0E654FE4F958F8093D301FF91B0
:100A8000EF919F918F912F910F900FBE0F901F901C
:100A900018958081F4CF1F920F920FB60F921124F8
:100AA0002F933F938F939F93AF93BF938091B20106
:100AB0009091B301A091B401B091B5013091B10111
:100AC00023E0230F2D3758F50196A11DB11D20936A
:100AD000B1018093B2019093B301A093B401B0939C
:100AE000B5018091B6019091B701A091B801B09184
:100AF000B9010196A11DB11D8093B6019093B70174
:100B0000A093B801B093B901BF91AF919F918F911C
:100B10003F912F910F900FBE0F901F90189526E8D0
:100B2000230F0296A11DB11DD2CF1F920F920FB6B7
:100B30000F9211242F933F934F935F936F937F9363
:100B40008F939F93AF93BF93CF93DF93EF93FF93D5
:100B50008091B001C0917B02D0E087FF24C0109249
:100B60008500109284008091B0018F5F8093B00166
:100B70008091B001082E000C990B8C179D0724F46E
:100B80008091B0018C30C4F18091840090918500F7
:100B9000049680349C4908F47AC080918400909136
:100BA0008500049676C08091B001082E000C990B48
:100BB0008C179D07C4F6E091B0018E2FEE0F990BB4
:100BC000FC01EE0FFF1FE80FF91FE95AFD4F80816E
:100BD00086FFC9CFE091B0018E2FEE0F990BFC017B
:100BE000EE0FFF1FE80FF91FE95AFD4F808160E00B
:100BF0008F730E943002B7CF20918400309185001E
:100C0000E091B0018E2FEE0F990BFC01EE0FFF1F4C
:100C1000E80FF91FE95AFD4F81819281820F931FDE
:100C20009093890080938800E091B0018E2FEE0FA1
:100C3000990BFC01EE0FFF1FE80FF91FE95AFD4F5A
:100C4000808186FF11C0E091B0018E2FEE0F990BCD
:100C5000FC01EE0FFF1FE80FF91FE95AFD4F8081DD
:100C600061E08F730E943002FF91EF91DF91CF918D
:100C7000BF91AF919F918F917F916F915F914F91B4
:100C80003F912F910F900FBE0F901F90189580E409
:100C90009CE990938900809388008FEF8093B00146
:100CA000E3CFCF931092BD011092BC0188EE93E088
:100CB000A0E0B0E08093BE019093BF01A093C0017B
:100CC000B093C10182E291E09093BB018093BA019D
:100CD00085EC90E09093C7018093C60184EC90E08E
:100CE0009093C9018093C80180EC90E09093CB0170
:100CF0008093CA0181EC90E09093CD018093CC0168
:100D000082EC90E09093CF018093CE0186EC90E04E
:100D10009093D1018093D0011092D3011092D4010D
:100D20001092D5011092D60110928802109287027B
:100D300084E391E090938602809385028CE0809317
:100D40008902CFEFC0938A028BE080938B0289E007
:100D500080938C0288E080938D0287E080938E02DE
:100D600086E080938F02109290021092910210926E
:100D70009202109293021092940281E00E949003DA
:100D800080917B028C3038F591E0980F90937B0234
:100D90008093820290E0FC01EE0FFF1FE80FF91F25
:100DA000E95AFD4F88EB9BE09283818310927D028C
:100DB00010927C0210927F0210927E0210928102A9
:100DC0001092800244E050E06CE371E08CE792E026
:100DD000CF910C947E04C0938202E8CFCF93DF932F
:100DE000CDB7DEB7AA970FB6F894DEBF0FBECDBF62
:100DF000789484B5826084BD84B5816084BD85B5F6
:100E0000826085BD85B5816085BD80916E00816001
:100E100080936E00109281008091810082608093A7
:100E200081008091810081608093810080918000A9
:100E30008160809380008091B10084608093B100D4
:100E40008091B00081608093B00080917A008460CE
:100E500080937A0080917A00826080937A008091FA
:100E60007A00816080937A0080917A008068809314
:100E70007A001092C100E091CA01F091CB0182E0AA
:100E80008083E091C601F091C7011082E091C80112
:100E9000F091C9018FEC80831092D201E091CE01D4
:100EA000F091CF0186E08083E091CC01F091CD01FB
:100EB000808180618083E091CC01F091CD018081BF
:100EC00088608083E091CC01F091CD0180818068C1
:100ED0008083E091CC01F091CD0180818F7D808372
:100EE000809182028C3008F050C08AE00E94880015
:100EF00080918202282F30E0F901EE0FFF1FE20FF0
:100F0000F31FE95AFD4F9081907C9A609083109274
:100F10008302109284022CE0622F0E94B80A829F02
:100F2000B001112430E020E0AB01420F531FFA0161
:100F3000EE0FFF1FE40FF51FE95AFD4F908196FD5C
:100F400016C02F5F3F4F2C30310571F781110FC054
:100F50001092800082E080938100109285001092B0
:100F60008400B19A80916F00826080936F00E0915D
:100F700082028E2F90E0FC01EE0FFF1FE80FF91F99
:100F8000E95AFD4F80818064808390E080E00E9478
:100F9000A70082E00E9490030E94880360E082E044
:100FA0000E942D0481E491E00E94510461E083E0FD
:100FB0000E942D048FE491E00E94510468EE73E0DA
:100FC00080E090E00E94B6020E948803CE01019664
:100FD0001C012AE0422E512C612C712C1BA21AA25A
:100FE0001DA21CA21FA21EA250E040E06AE771E011
:100FF000CE0182960E947E0460E083E00E942D0470
:1010000088E591E00E94510482E1E82E81E0F82E0B
:1010100092E098A719A661E088A50E94300205E039
:1010200010E00AA7802F0E947C02843893400CF4C1
:10103000E8C0F801EE0FFF1F7697EE0DFF1DC08090
:10104000D180FCE0CF16D104E9F441E050E067E63E
:1010500071E0CE0182960E94CC04D12CC12C8EA1CD
:101060009FA101978C159D0508F4BAC061E08C2DF5
:101070000E942D0487E691E00E9451042FEFC21ACE
:10108000D20AEDCF8DE0C816D104E9F441E050E07A
:1010900069E671E0CE0182960E94CC04D12CC12C6D
:1010A0008EA19FA101978C159D0508F499C061E060
:1010B0008C2D0E942D0487E691E00E9451049FEF41
:1010C000C91AD90AEDCF46010D2C000CAA08BB089D
:1010D000B7FE4EC06DE28AEB91E00E94C301222769
:1010E0003327A901281939094A095B0919A2FE0108
:1010F000B1965F01CA01B901A30192010E94870A5A
:10110000605DF50162935F012115310541055105CF
:1011100089F7A114B10429F0B5018AEB91E00E948E
:1011200042044AE0B101C6010E94E909F1010190BF
:101130000020E9F73197AF0142195309B101CE01FF
:1011400082960E94CC04D12CC12C8EA19FA1019724
:101150008C159D0508F444C061E08C2D0E942D047F
:1011600087E691E00E945104FFEFCF1ADF0AEDCF2E
:10117000A501940119A2CE0181965C01CA01B901B1
:10118000A30192010E94870A605DF50162935F01ED
:10119000211531054105510589F7BBCF82E00E9439
:1011A0007C0284389340B4F00E948803CE0182967A
:1011B0000E94A90461E083E00E942D048BE691E087
:1011C0000E9451046CE271E080E090E00E94B6025F
:1011D0000E9488038AA50E947C02843893408CF088
:1011E00081E00E947C0284389340C4F264E670E09F
:1011F00080E090E00E94B6020E94880381E089A707
:10120000E9CF0F5F1F4F0830110509F00ACF81E0C9
:101210000E947C02843893400CF452C064E670E073
:1012200080E090E00E94B6020E94880321E029A796
:1012300060E088A50E943002F8A5FF5FF8A726E0CD
:10124000E20EF11CF63009F0E6CE99A5992309F4D7
:10125000DBCE4EA15FA16AA17BA18AEB91E00E9447
:10126000230168E771E08AEB91E00E94420460E0AC
:1012700082E00E942D048BE791E00E94510468EE09
:1012800073E080E090E00E94B602209180023091ED
:1012900081028EA19FA12817390799F580917C02C0
:1012A00090917D026AA17BA10097F1F16115710512
:1012B00029F5232B09F445C0FC01808190E03FC053
:1012C00082E00E947C02843893400CF4B1CF0E94EB
:1012D0008803CE0182960E94A90461E083E00E9407
:1012E0002D048BE691E00E9451046CE271E080E0F5
:1012F00090E00E94B6020E9488039ACF0E94B50C2B
:101300001EC00E94880360E083E00E942D0482EAF0
:1013100091E00E94510468EB7BE080E090E00E9445
:10132000B6020E94880339C06115710551F0232B64
:1013300041F0FB01808190E0919581959109892B85
:1013400001F760E083E00E942D0480E991E00E94B3
:10135000510484EB90E00E94A70068EB7BE080E002
:1013600090E00E94B6020E94880360E083E00E9441
:101370002D0489E991E00E94510468EE73E080E059
:1013800090E00E94B60290E080E00E94A7000E94D8
:101390008803CE0182960E94A9048AA19BA100978E
:1013A00011F00E94660B80E090E0892B09F416CEC4
:1013B0000E948D01882309F411CE0E9400000ECEF8
:1013C00080917C0290917D02009711F00C94660B45
:1013D0000895BB274A3031F4992322F4BDE2909559
:1013E00081959F4F0C94F509BB27FB015527AA2730
:1013F000880F991FAA1FA41710F0A41B83955051A2
:10140000B9F7A05DAA3308F0A95DA193009779F719
:10141000B111B1931192CB010C940E0ADC01FC01C5
:10142000672F71917723E1F7329704C07C916D9318
:1014300070836291AE17BF07C8F30895052E97FB1E
:101440001EF400940E94350A57FD07D00E94870AB7
:1014500007FC03D04EF40C94350A50954095309516
:1014600021953F4F4F4F5F4F089590958095709510
:1014700061957F4F8F4F9F4F08950E94A90AA59FA6
:10148000900DB49F900DA49F800D911D112408957F
:10149000B7FF0C943D0A0E943D0A821B930B0895EE
:1014A0002F923F924F925F926F927F928F929F9274
:1014B000AF92BF92CF92DF92EF92FF920F931F9362
:1014C000CF93DF93CDB7DEB7CA1BDB0B0FB6F89413
:1014D000DEBF0FBECDBF09942A88398848885F8453
:1014E0006E847D848C849B84AA84B984C884DF80C4
:1014F000EE80FD800C811B81AA81B981CE0FD11DA8
:101500000FB6F894DEBF0FBECDBFED010895A1E286
:101510001A2EAA1BBB1BFD010DC0AA1FBB1FEE1F6D
:10152000FF1FA217B307E407F50720F0A21BB30BB8
:10153000E40BF50B661F771F881F991F1A9469F734
:1015400060957095809590959B01AC01BD01CF0190
:101550000895A29FB001B39FC001A39F700D811D8C
:101560001124911DB29F700D811D1124911D0895AC
:10157000991B79E004C0991F961708F0961B881FE5
:101580007A95C9F780950895EE0FFF1F0590F491A5
:10159000E02D09940F931F93CF93DF938230910531
:1015A00010F482E090E0E0919F02F091A00230E020
:1015B00020E0B0E0A0E0309799F42115310509F45E
:1015C0004AC0281B390B24303105D8F58A819B810C
:1015D0006115710589F1FB0193838283FE0111C0BE
:1015E000408151810281138148175907E0F0481763
:1015F000590799F4109761F012960C93129713966D
:101600001C933296CF01DF91CF911F910F910895D6
:1016100000939F021093A002F4CF2115310551F0E1
:101620004217530738F0A901DB019A01BD01DF0120
:10163000F801C1CFEF01F9CF9093A00280939F02F0
:10164000CDCFFE01E20FF31F819391932250310918
:1016500039832883D7CF20919D0230919E02232B7E
:1016600041F4209102013091030130939E022093B6
:101670009D0220910001309101012115310541F4B5
:101680002DB73EB74091040150910501241B350B45
:10169000E0919D02F0919E02E217F307A0F42E1B49
:1016A0003F0B2817390778F0AC014E5F5F4F2417C6
:1016B000350748F04E0F5F1F50939E0240939D02E6
:1016C000819391939FCFF0E0E0E09CCFCF93DF93A5
:1016D0000097E9F0FC01329713821282A0919F02D9
:1016E000B091A002ED0130E020E01097A1F420813C
:1016F0003181820F931F20919D0230919E02281705
:10170000390709F061C0F0939E02E0939D02DF91DA
:10171000CF910895EA01CE17DF07E8F54A815B8192
:101720009E0141155105B1F7E901FB83EA83499117
:101730005991C40FD51FEC17FD0761F48081918189
:101740000296840F951FE901998388838281938192
:101750009B838A83F0E0E0E012968D919C91139731
:101760000097B9F52D913C911197CD010296820F0A
:10177000931F20919D0230919E022817390739F658
:10178000309751F51092A00210929F02B0939E02E2
:10179000A0939D02BCCFD383C28340815181840F2B
:1017A000951FC817D90761F44E5F5F4F88819981F3
:1017B000480F591F518340838A819B819383828381
:1017C0002115310509F0B0CFF093A002E0939F02FC
:1017D0009ECFFD01DC01C0CF13821282D7CFB0E0D3
:1017E000A0E0E5EFFBE00C94520A8C01009751F465
:1017F000CB010E94CA0A8C01C801CDB7DEB7E0E177
:101800000C946E0AFC01E60FF71F9C01225031096F
:10181000E217F30708F49DC0D901CD91DC9111972F
:10182000C617D70798F0C530D10530F3CE0104971D
:101830008617970708F3C61BD70B2297C193D1933E
:101840006D937C93CF010E94660BD6CF5B01AC1ADF
:10185000BD0A4C018C0E9D1EA0919F02B091A0026A
:10186000512C412CF12CE12C109731F580919D02E7
:1018700090919E028815990509F05CC0461657069E
:1018800008F058C08091000190910101009741F447
:101890008DB79EB74091040150910501841B950BB3
:1018A000E817F90708F055C0F0939E02E0939D02F7
:1018B000F90171836083A0CF8D919C91119712964D
:1018C0006C90129713967C901397A815B90559F54B
:1018D0006C0142E0C40ED11CCA14DB0420F1AC013F
:1018E0004A195B09DA011296159780F062827382B9
:1018F00051834083D9016D937C93E114F10471F01D
:10190000D7011396FC93EE93129776CF22968C0F05
:101910009D1FF90191838083F301EFCFF093A00223
:10192000E0939F0269CF4816590608F42C017D0107
:10193000D3019ACFCB010E94CA0A7C01009749F0DB
:10194000AE01B8010E94AC0CC8010E94660B870171
:1019500053CF10E000E050CFFB01DC0102C001904A
:101960000D9241505040D8F70895FB01DC018D9154
:10197000019080190110D9F3990B0895FB01DC0146
:1019800001900D920020E1F7089510E0CDE5D0E040
:1019900004C0FE010E94C40A2196CE35D107C9F7C2
:0419A000F894FFCFE9
:1019A4000000A10280000100020003000400050001
:1019B40006000700080009000C0000000D000000EC
:1019C4000000C30123015001100281015F01730172
:1019D400000000003C042301E902E8023132333004
:1019E40000496E696369616E646F202E2E2E004C6F
:1019F4004344203136783200446967697465206154
:101A04002073656E6861002A002300526573657453
:101A1400616E646F2E2E2E000D0A00566572696683
:101A24006963616E646F2073656E68612E2E2E008B
:101A34004C6962657261646F0046656368616E64D7
:101A44006F0053656E6861206572726164610000A5
:00000001FF
