:100000000C9462000C948A000C948A000C948A0070
:100010000C948A000C948A000C948A000C948A0038
:100020000C948A000C948A000C948A000C948A0028
:100030000C948A000C948A000C948A000C948A0018
:100040000C9412030C948A000C94E0020C94BA02F3
:100050000C948A000C948A000C948A000C948A00F8
:100060000C948A000C948A000000000024002700F1
:100070002A0000000000250028002B0000000000DE
:1000800023002600290004040404040404040202DA
:100090000202020203030303030301020408102007
:1000A0004080010204081020010204081020000012
:1000B0000008000201000003040700000000000027
:1000C0000000890411241FBECFEFD8E0DEBFCDBFF2
:1000D00011E0A0E0B1E0E0ECF9E002C005900D9283
:1000E000A832B107D9F721E0A8E2B1E001C01D9222
:1000F000AE3CB207E1F710E0C2E6D0E004C02197C1
:10010000FE010E94D804C136D107C9F70E945C03E2
:100110000C94DE040C94000080E480937C008091B9
:100120007A00806480937A0080917A0086FDFCCF0B
:1001300080917800909179000895AF92BF92CF920C
:10014000DF92EF92FF920F931F93CF93DF936C0197
:100150007B018B01040F151FEB015E01AE18BF0878
:10016000C017D10759F06991D601ED91FC9101902A
:10017000F081E02DC6010995892B79F7C501DF9142
:10018000CF911F910F91FF90EF90DF90CF90BF9094
:10019000AF900895FC01538D448D252F30E0842FBE
:1001A00090E0821B930B541710F0CF96089501979F
:1001B0000895FC01918D828D981761F0A28DAE0F8C
:1001C000BF2FB11D5D968C91928D9F5F9F73928F13
:1001D00090E008958FEF9FEF0895FC01918D828D3F
:1001E000981731F0828DE80FF11D858D90E008950C
:1001F0008FEF9FEF0895FC01918D228D892F90E064
:10020000805C9F4F821B91098F739927089581E32A
:1002100091E00E94FB0021E0892B09F420E0822F6D
:10022000089580E090E0892B29F00E940701811158
:100230000C9400000895FC01A48DA80FB92FB11DE6
:10024000A35ABF4F2C91848D90E001968F7399270C
:10025000848FA689B7892C93A089B1898C918370EA
:1002600080648C93938D848D981306C00288F389E3
:10027000E02D80818F7D80830895EF92FF920F9310
:100280001F93CF93DF93EC0181E0888F9B8D8C8D42
:1002900098131AC0E889F989808185FF15C09FB736
:1002A000F894EE89FF896083E889F98980818370F9
:1002B000806480839FBF81E090E0DF91CF911F91A8
:1002C0000F91FF90EF900895F62E0B8D10E00F5FC9
:1002D0001F4F0F731127E02E8C8D8E110CC00FB69F
:1002E00007FCFACFE889F989808185FFF5CFCE0137
:1002F0000E941B01F1CFEB8DEC0FFD2FF11DE35A96
:10030000FF4FF0829FB7F8940B8FEA89FB898081B9
:100310008062CFCFCF93DF93EC01888D8823B9F033
:10032000AA89BB89E889F9898C9185FD03C0808100
:1003300086FD0DC00FB607FCF7CF8C9185FFF2CF7D
:10034000808185FFEDCFCE010E941B01E9CFDF91B7
:10035000CF910895833081F028F4813099F0823074
:10036000A9F008958730A9F08830C9F08430B1F43D
:10037000809180008F7D03C0809180008F77809373
:100380008000089584B58F7784BD089584B58F7DEE
:10039000FBCF8091B0008F778093B000089580915B
:1003A000B0008F7DF9CFCF93DF93E8EBF0E084913D
:1003B000E4EAF0E0D491E0E9F0E0C491CC23A1F0CC
:1003C00081110E94AA01EC2FF0E0EE0FFF1FE4580C
:1003D000FF4FA591B491EC91ED2381E090E009F4F9
:1003E00080E0DF91CF91089580E090E0FACF1F93F5
:1003F000CF93DF93282F30E0F901E255FF4F84912E
:10040000F901E656FF4FD491F901EA57FF4FC49125
:10041000CC23A9F0162F81110E94AA01EC2FF0E045
:10042000EE0FFF1FEE58FF4FA591B4918FB7F894D0
:10043000EC91111108C0D095DE23DC938FBFDF91C2
:10044000CF911F910895DE2BF8CFCF93DF9390E0EB
:10045000FC01E656FF4F24918A579F4FFC0184917F
:100460008823D1F090E0880F991FFC01E859FF4FD5
:10047000A591B491FC01EE58FF4FC591D491611143
:100480000EC09FB7F8948C91E22FE0958E238C9349
:100490002881E223E8839FBFDF91CF9108958FB732
:1004A000F894EC91E22BEC938FBFF6CF3FB7F89422
:1004B00080912D0190912E01A0912F01B0913001DA
:1004C00026B5A89B05C02F3F19F00196A11DB11DAF
:1004D0003FBFBA2FA92F982F8827BC01CD01620FEB
:1004E000711D811D911D42E0660F771F881F991FA6
:1004F0004A95D1F708958F929F92AF92BF92CF9273
:10050000DF92EF92FF924B015C010E9456026B0159
:100510007C010E9456026C197D098E099F09683E74
:10052000734081059105A8F321E0821A9108A10882
:10053000B10888EEC80E83E0D81EE11CF11C8114BE
:100540009104A104B10429F7FF90EF90DF90CF90C0
:10055000BF90AF909F908F900895FC010190002074
:10056000E9F73197AF01481B590BBC0181E391E0DA
:100570000C949D001F920F920FB60F9211242F938F
:100580003F934F935F936F937F938F939F93AF931B
:10059000BF93EF93FF9381E391E00E941B01FF91D2
:1005A000EF91BF91AF919F918F917F916F915F91EB
:1005B0004F913F912F910F900FBE0F901F90189564
:1005C0001F920F920FB60F9211242F938F939F9328
:1005D000EF93FF93E0914101F09142018081E0911E
:1005E0004701F091480182FD1BC0908180914A0132
:1005F0008F5F8F7320914B01821741F0E0914A0188
:10060000F0E0EF5CFE4F958F80934A01FF91EF91F0
:100610009F918F912F910F900FBE0F901F90189563
:100620008081F4CF1F920F920FB60F9211242F9357
:100630003F938F939F93AF93BF93809129019091A4
:100640002A01A0912B01B0912C013091280123E0C7
:10065000230F2D3758F50196A11DB11D20932801B8
:100660008093290190932A01A0932B01B0932C0130
:1006700080912D0190912E01A0912F01B091300118
:100680000196A11DB11D80932D0190932E01A09381
:100690002F01B0933001BF91AF919F918F913F9106
:1006A0002F910F900FBE0F901F90189526E8230FE3
:1006B0000296A11DB11DD2CFCF93DF93CDB7DEB788
:1006C000A1970FB6F894DEBF0FBECDBF789484B566
:1006D000826084BD84B5816084BD85B5826085BD3E
:1006E00085B5816085BD80916E00816080936E00CC
:1006F00010928100809181008260809381008091BE
:10070000810081608093810080918000816080936E
:1007100080008091B10084608093B1008091B0002E
:1007200081608093B00080917A00846080937A0029
:1007300080917A00826080937A0080917A00816053
:1007400080937A0080917A00806880937A0010927A
:10075000C100E0914101F091420182E08083E0918B
:100760003D01F0913E011082E0913F01F091400186
:100770008FEC808310924901E0914501F091460190
:1007800086E08083E0914301F091440180818061A3
:100790008083E0914301F0914401808188608083EF
:1007A000E0914301F0914401808180688083E09171
:1007B0004301F091440180818F7D808382E191E04B
:1007C0000E94AD0284E291E00E94AD0268EE73E007
:1007D00080E090E00E947B0260E08AE00E942502B7
:1007E00061E087E00E94250260E087E00E94F70157
:1007F00061E088E00E94250260E088E00E94F70145
:1008000061E089E00E94250260E089E00E94F70132
:100810008AE0882E912CA12CB12C00E010E00E94DF
:10082000D30161E0019709F060E087E00E94F701E1
:100830000E948C006C01990FEE08FF08F7FE53C070
:100840006DE281E391E00E943D0122273327A90157
:100850002C193D094E095F0919A2CE0181967C0130
:10086000CA01B901A50194010E94B604605DF701B7
:1008700062937F01211531054105510589F7E11486
:10088000F10419F0C7010E94AD0284E291E00E94D8
:10089000AD0268EC70E080E090E00E947B020E9474
:1008A0008C0061E08D3B92400CF460E088E00E9497
:1008B000F7010E948C008C3B92402CF00E94D301E7
:1008C00061E0019709F060E089E00E94F7010115FD
:1008D000110509F4A4CF0E940701882309F49FCFD2
:1008E0000E9400009CCFA701960119A2CE0181961B
:1008F0007C01CA01B901A50194010E94B604605DA2
:10090000F70162937F01211531054105510589F7F2
:10091000B6CFE1E3F1E01382128288EE93E0A0E02B
:10092000B0E084839583A683B78384E091E09183CC
:10093000808385EC90E09587848784EC90E09787AE
:10094000868780EC90E0918B808B81EC90E0938B9C
:10095000828B82EC90E0958B848B86EC90E0978B79
:10096000868B118E128E138E148E0895A1E21A2E8C
:10097000AA1BBB1BFD010DC0AA1FBB1FEE1FFF1F43
:10098000A217B307E407F50720F0A21BB30BE40B93
:10099000F50B661F771F881F991F1A9469F76095DA
:1009A0007095809590959B01AC01BD01CF01089594
:1009B000EE0FFF1F0590F491E02D0994F894FFCFFE
:1009C000000000003D019D00CA008A01FB00D90023
:1009D000ED00696E696369616C697A616E646F20AC
:0809E0002E2E2E000D0A00006E
:00000001FF
