:100000000C945C000C9479000C9479000C947900A9
:100010000C9479000C9479000C9479000C9479007C
:100020000C9479000C9479000C9479000C9479006C
:100030000C9479000C9479000C9479000C9479005C
:100040000C94EC000C9479000C9479000C947900D9
:100050000C9479000C9479000C9479000C9479003C
:100060000C9479000C947900000000080002010053
:100070000003040700000000000000000000000072
:10008000250028002B0000000000240027002A0083
:10009000040404040404040402020202020203032E
:1000A0000303030301020408102040800102040836
:1000B000102001020408102011241FBECFEFD8E049
:1000C000DEBFCDBF11E0A0E0B1E0EAEAF4E002C09B
:1000D00005900D92A030B107D9F721E0A0E0B1E082
:1000E00001C01D92A930B207E1F70E9436010C94BD
:1000F00053020C94000090E0FC01E859FF4F24915A
:10010000FC01EC55FF4F3491FC01E057FF4FE491A7
:10011000EE23C9F0222339F0233001F1A8F4213075
:1001200019F1223029F1F0E0EE0FFF1FE458FF4FE4
:10013000A591B4918FB7F894EC91611126C03095D8
:100140003E233C938FBF08952730A9F02830C9F093
:10015000243049F7809180008F7D03C0809180001A
:100160008F7780938000DFCF84B58F7784BDDBCF1E
:1001700084B58F7DFBCF8091B0008F778093B000E6
:10018000D2CF8091B0008F7DF9CF3E2BDACF3FB731
:10019000F8948091050190910601A0910701B0911A
:1001A000080126B5A89B05C02F3F19F00196A11D97
:1001B000B11D3FBFBA2FA92F982F8827BC01CD01B1
:1001C000620F711D811D911D42E0660F771F881F10
:1001D000991F4A95D1F708951F920F920FB60F926B
:1001E00011242F933F938F939F93AF93BF9380914D
:1001F000010190910201A0910301B091040130919D
:10020000000123E0230F2D3758F50196A11DB11DE4
:10021000209300018093010190930201A0930301B8
:10022000B09304018091050190910601A09107010E
:10023000B09108010196A11DB11D80930501909315
:100240000601A0930701B0930801BF91AF919F9160
:100250008F913F912F910F900FBE0F901F90189587
:1002600026E8230F0296A11DB11DD2CF789484B544
:10027000826084BD84B5816084BD85B5826085BDA2
:1002800085B5816085BD80916E00816080936E0030
:100290001092810080918100826080938100809122
:1002A00081008160809381008091800081608093D3
:1002B00080008091B10084608093B1008091B00093
:1002C00081608093B00080917A00846080937A008E
:1002D00080917A00826080937A0080917A008160B8
:1002E00080937A0080917A00806880937A001092DF
:1002F000C100C2E0D0E08C2FFE01EC55FF4F94917D
:10030000FE01E057FF4F2491222399F030E0220FA5
:10031000331FF901EA57FF4FA591B491F901E45851
:10032000FF4F259134912FB7F894EC91E92BEC9382
:100330002FBF60E00E947B002196C630D105D9F620
:10034000D0E4412C84E0582E612C712C00E010E0A8
:10035000C2E061E08C2F0E947B00D0937C008091F2
:100360007A00806480937A0080917A0086FDFCCFC9
:1003700080917800A0917900BA2FA82F2AE530E06B
:100380000E944C02A30192010E94FC0169017A01C2
:100390008AE0C80ED11CE11CF11C0E94C7004B0171
:1003A0005C01C114D104E104F104B9F00E94C7005A
:1003B000681979098A099B09683E7340810591058E
:1003C00080F321E0C21AD108E108F10888EE880E16
:1003D00083E0981EA11CB11CE4CF60E08C2F0E942A
:1003E0007B00CF5FC63009F0B4CF0115110509F4C9
:1003F000AFCF0E940000ACCF052E97FB1EF40094F7
:100400000E94130257FD07D00E941B0207FC03D075
:100410004EF40C94130250954095309521953F4F22
:100420004F4F5F4F089590958095709561957F4FE0
:100430008F4F9F4F0895A1E21A2EAA1BBB1BFD01EF
:100440000DC0AA1FBB1FEE1FFF1FA217B307E407B3
:10045000F50720F0A21BB30BE40BF50B661F771F0B
:10046000881F991F1A9469F76095709580959095EB
:100470009B01AC01BD01CF010895A29FB001B39FC4
:10048000C001A39F700D811D1124911DB29F700D9D
:10049000811D1124911D08950E943D02B7FF08950A
:0A04A000821B930B0895F894FFCF20
:00000001FF
