:100000000C945D000C9485000C9485000C94850084
:100010000C9485000C9485000C9485000C9485004C
:100020000C9485000C9485000C9485000C94D902E6
:100030000C9485000C9485000C9485000C9485002C
:100040000C948F020C9485000C945D020C94370282
:100050000C9485000C9485000C9485000C9485000C
:100060000C9485000C94850000000008000201003B
:100070000003040700000000000000000000000072
:10008000250028002B0000000000240027002A0083
:10009000040404040404040402020202020203032E
:1000A0000303030301020408102040800102040836
:1000B0001020010204081020950311241FBECFEF69
:1000C000D8E0DEBFCDBF11E0A0E0B1E0ECE3FCE0A2
:1000D00002C005900D92A432B107D9F721E0A4E245
:1000E000B1E001C01D92A33FB207E1F710E0CDE5FA
:1000F000D0E004C02197FE010E941606CC35D1073E
:10010000C9F70E94F2030C941C060C940000AF92F5
:10011000BF92CF92DF92EF92FF920F931F93CF93F4
:10012000DF936C017B018B01040F151FEB015E0156
:10013000AE18BF08C017D10759F06991D601ED91EB
:10014000FC910190F081E02DC6010995892B79F78A
:10015000C501DF91CF911F910F91FF90EF90DF903C
:10016000CF90BF90AF900895FC01538D448D252F03
:1001700030E0842F90E0821B930B541710F0CF9641
:10018000089501970895FC01918D828D981761F073
:10019000A28DAE0FBF2FB11D5D968C91928D9F5F8A
:1001A0009F73928F90E008958FEF9FEF0895FC0169
:1001B000918D828D981731F0828DE80FF11D858D1C
:1001C00090E008958FEF9FEF0895FC01918D228DAF
:1001D000892F90E0805C9F4F821B91098F73992734
:1001E00008958EE291E00E94E50021E0892B09F458
:1001F00020E0822F089580E090E0892B29F00E9472
:10020000F10081110C9400000895FC01A48DA80F49
:10021000B92FB11DA35ABF4F2C91848D90E0019648
:100220008F739927848FA689B7892C93A089B18968
:100230008C91837080648C93938D848D981306C009
:100240000288F389E02D80818F7D80830895EF926D
:10025000FF920F931F93CF93DF93EC0181E0888F80
:100260009B8D8C8D98131AC0E889F989808185FF50
:1002700015C09FB7F894EE89FF896083E889F989F2
:1002800080818370806480839FBF81E090E0DF91F4
:10029000CF911F910F91FF90EF900895F62E0B8D47
:1002A00010E00F5F1F4F0F731127E02E8C8D8E1102
:1002B0000CC00FB607FCFACFE889F989808185FF69
:1002C000F5CFCE010E940501F1CFEB8DEC0FFD2F94
:1002D000F11DE35AFF4FF0829FB7F8940B8FEA8924
:1002E000FB8980818062CFCFCF93DF93EC01888D33
:1002F0008823B9F0AA89BB89E889F9898C9185FDA1
:1003000003C0808186FD0DC00FB607FCF7CF8C912E
:1003100085FFF2CF808185FFEDCFCE010E940501E0
:10032000E9CFDF91CF91089590E0FC01E859FF4FAC
:100330002491FC01EC55FF4F3491FC01E057FF4F35
:10034000E491EE23C9F0222339F0233001F1A8F41F
:10035000213019F1223029F1F0E0EE0FFF1FE458AF
:10036000FF4FA591B4918FB7F894EC91611126C01D
:1003700030953E233C938FBF08952730A9F0283055
:10038000C9F0243049F7809180008F7D03C08091AF
:1003900080008F7780938000DFCF84B58F7784BD16
:1003A000DBCF84B58F7DFBCF8091B0008F778093BA
:1003B000B000D2CF8091B0008F7DF9CF3E2BDACF45
:1003C0003FB7F89480912A0190912B01A0912C01C4
:1003D000B0912D0126B5A89B05C02F3F19F00196BD
:1003E000A11DB11D3FBFBA2FA92F982F8827BC018F
:1003F000CD01620F711D811D911D42E0660F771FB7
:10040000881F991F4A95D1F708958F929F92AF92B6
:10041000BF92CF92DF92EF92FF924B015C010E945C
:10042000E0016B017C010E94E0016C197D098E09DD
:100430009F09683E734081059105A8F321E0821A67
:100440009108A108B10888EEC80E83E0D81EE11C0F
:10045000F11C81149104A104B10429F7FF90EF90DD
:10046000DF90CF90BF90AF909F908F9008951F9294
:100470000F920FB60F9211242F933F934F935F93D8
:100480006F937F938F939F93AF93BF93EF93FF935C
:100490008EE291E00E940501FF91EF91BF91AF9133
:1004A0009F918F917F916F915F914F913F912F918C
:1004B0000F900FBE0F901F9018951F920F920FB6BE
:1004C0000F9211242F938F939F93EF93FF93E091BB
:1004D0003E01F0913F018081E0914401F09145019E
:1004E00082FD1BC09081809147018F5F8F732091A7
:1004F0004801821741F0E0914701F0E0E25DFE4FD4
:10050000958F80934701FF91EF919F918F912F914C
:100510000F900FBE0F901F9018958081F4CF1F92FF
:100520000F920FB60F9211242F933F938F939F93A7
:10053000AF93BF938091260190912701A09128014C
:10054000B09129013091250123E0230F2D3758F573
:100550000196A11DB11D2093250180932601909342
:100560002701A0932801B093290180912A0190913D
:100570002B01A0912C01B0912D010196A11DB11D5F
:1005800080932A0190932B01A0932C01B0932D010D
:10059000BF91AF919F918F913F912F910F900FBE7F
:1005A0000F901F90189526E8230F0296A11DB11DEC
:1005B000D2CF1F920F920FB60F9211242F933F9319
:1005C0004F935F936F937F938F939F93AF93BF935B
:1005D000CF93DF93EF93FF9380912401C091EF01BC
:1005E000D0E087FF24C01092850010928400809193
:1005F00024018F5F8093240180912401082E000C38
:10060000990B8C179D0724F4809124018C30C4F140
:100610008091840090918500049680349C4908F470
:100620007AC08091840090918500049676C0809174
:100630002401082E000C990B8C179D07C4F6E0913D
:1006400024018E2FEE0F990BFC01EE0FFF1FE80F18
:10065000F91FE553FE4F808186FFC9CFE091240149
:100660008E2FEE0F990BFC01EE0FFF1FE80FF91F05
:10067000E553FE4F808160E08F730E949401B7CFF5
:100680002091840030918500E09124018E2FEE0F9F
:10069000990BFC01EE0FFF1FE80FF91FE553FE4F0A
:1006A00081819281820F931F9093890080938800AB
:1006B000E09124018E2FEE0F990BFC01EE0FFF1F2E
:1006C000E80FF91FE553FE4F808186FF11C0E091CE
:1006D00024018E2FEE0F990BFC01EE0FFF1FE80F88
:1006E000F91FE553FE4F808161E08F730E949401F2
:1006F000FF91EF91DF91CF91BF91AF919F918F913A
:100700007F916F915F914F913F912F910F900FBE0D
:100710000F901F90189580E49CE990938900809336
:1007200088008FEF80932401E3CF10923101109263
:10073000300188EE93E0A0E0B0E080933201909326
:100740003301A0933401B093350184E091E090939C
:100750002F0180932E0185EC90E090933B018093D4
:100760003A0184EC90E090933D0180933C0180EC51
:1007700090E090933F0180933E0181EC90E0909354
:1007800041018093400182EC90E09093430180937B
:10079000420186EC90E090934501809344011092D1
:1007A0004701109248011092490110924A0180912C
:1007B000EF018C3098F491E0980F9093EF018093C3
:1007C000F00190E0FC01EE0FFF1FE80FF91FE55369
:1007D000FE4F88EB9BE09283818308958FEF809397
:1007E000F0010895789484B5826084BD84B58160F9
:1007F00084BD85B5826085BD85B5816085BD8091EC
:100800006E00816080936E00109281008091810063
:10081000826080938100809181008160809381005B
:10082000809180008160809380008091B10084601D
:100830008093B1008091B00081608093B00080917E
:100840007A00846080937A0080917A00826080933D
:100850007A0080917A00816080937A0080917A009A
:10086000806880937A001092C100E0913E01F0917F
:100870003F0182E08083E0913A01F0913B011082D8
:10088000E0913C01F0913D018FEC80831092460194
:10089000E0914201F091430186E08083E0914001C4
:1008A000F0914101808180618083E0914001F0916D
:1008B0004101808188608083E0914001F091410195
:1008C000808180688083E0914001F09141018081C6
:1008D0008F7D80838091F0018C3008F068C0E9EA58
:1008E000F0E02491E5E9F0E08491882399F090E02C
:1008F000880F991FFC01EA57FF4FA591B491FC01A5
:10090000E458FF4F859194918FB7F894EC91E22BC6
:10091000EC938FBF8091F001282F30E0F901EE0FAA
:10092000FF1FE20FF31FE553FE4F9081907C95600F
:1009300090831092F1011092F2012CE0622F0E943C
:100940000306829FB001112430E020E0AB01420F8A
:10095000531FFA01EE0FFF1FE40FF51FE553FE4F83
:10096000908196FD16C02F5F3F4F2C30310571F7F7
:1009700081110FC01092800082E08093810010925C
:10098000850010928400B19A80916F0082608093FC
:100990006F00E091F0018E2F90E0FC01EE0FFF1F41
:1009A000E80FF91FE553FE4F8081806480834DE09E
:1009B00050E062E171E08EE291E00E94870042E047
:1009C00050E060E271E08EE291E00E94870064E610
:1009D00070E080E090E00E940502C12CC4E0DC2EB3
:1009E000E12CF12CC8E8D0E008E512E084EB882E79
:1009F000912CA12CB12C90E0292E90E0392E40E4CE
:100A000040937C0080917A00806480937A0080918A
:100A10007A0086FDFCCF80917800A0917900BA2FF2
:100A2000A82F2AE530E00E940F06A70196010E9438
:100A3000A005DA01C9010A96A11DB11D9C018032F1
:100A400052E09507BCF52091F1012E01421A5108A0
:100A500027FD5394440C551C440C551C052C000CCC
:100A6000660877082091F201B801621B710927FD21
:100A700073959B01220F331F220F331F032E000C8F
:100A8000440B550B2419350946095709DC01853BF0
:100A9000910514F0A4EBB0E0B7FF02C0B0E0A0E015
:100AA0000E94CA05A50194010E94A005240D351DD0
:100AB000461D571D4091F0014C3080F58091F101A9
:100AC000BE01681B710987FD7395CB01880F991FC3
:100AD000880F991F2817390784F08091F201B80117
:100AE000681B710987FD7395CB01880F991F880FCB
:100AF000991F281739070CF4C9010297880F991F0D
:100B00006FB7F89450E09A01220F331F240F351F5E
:100B1000F901E553FE4F928381836FBF62E370E07A
:100B200080E090E00E9405022114310409F467CFAF
:100B30000E94F100882309F462CF0E9400005FCF79
:100B4000052E97FB1EF400940E94B70557FD07D0B1
:100B50000E94D20507FC03D04EF40C94B7055095C3
:100B60004095309521953F4F4F4F5F4F0895909599
:100B70008095709561957F4F8F4F9F4F08950E948C
:100B8000F405A59F900DB49F900DA49F800D911D1D
:100B900011240895B7FF0C94BF050E94BF05821B66
:100BA000930B0895A1E21A2EAA1BBB1BFD010DC0D9
:100BB000AA1FBB1FEE1FFF1FA217B307E407F5070D
:100BC00020F0A21BB30BE40BF50B661F771F881FE9
:100BD000991F1A9469F760957095809590959B017F
:100BE000AC01BD01CF010895A29FB001B39FC00128
:100BF000A39F700D811D1124911DB29F700D811D49
:100C00001124911D0895991B79E004C0991F96172E
:100C100008F0961B881F7A95C9F7809508950E9461
:100C2000F405B7FF0895821B930B0895EE0FFF1F85
:0C0C30000590F491E02D0994F894FFCF9A
:100C3C000000000027018700B4007401E500C30028
:100C4C00D700696E696369616E646F202E2E2E0069
:040C5C000D0A00007D
:00000001FF
