:100000000C945C000C9479000C9479000C947900A9
:100010000C9479000C9479000C9479000C9479007C
:100020000C9479000C9479000C9479000C9479006C
:100030000C9479000C9479000C9479000C9479005C
:100040000C947B000C9479000C9479000C9479004A
:100050000C9479000C9479000C9479000C9479003C
:100060000C9479000C947900000000002400270013
:100070002A0000000000250028002B0004040404CE
:100080000404040402020202020203030303030342
:10009000010204081020408001020408102001021F
:1000A00004081020000000080002010000030407FB
:1000B000000000000000000011241FBECFEFD8E0B8
:1000C000DEBFCDBF11E0A0E0B1E0E6E2F4E002C0A7
:1000D00005900D92A030B107D9F721E0A0E0B1E082
:1000E00001C01D92A930B207E1F70E94C5000C942F
:1000F00011020C9400001F920F920FB60F92112460
:100100002F933F938F939F93AF93BF93809105015C
:1001100090910601A0910701B0910801309104016E
:1001200023E0230F2D3758F50196A11DB11D209313
:1001300004018093050190930601A0930701B093F9
:1001400008018091000190910101A0910201B091FC
:1001500003010196A11DB11D80930001909301013F
:10016000A0930201B0930301BF91AF919F918F9132
:100170003F912F910F900FBE0F901F90189526E87A
:10018000230F0296A11DB11DD2CF789484B5826051
:1001900084BD84B5816084BD85B5826085BD85B52B
:1001A000816085BD80916E00816080936E001092A9
:1001B0008100809181008260809381008091810024
:1001C00081608093810080918000816080938000B5
:1001D0008091B10084608093B1008091B000816013
:1001E0008093B00080917A00846080937A0080913F
:1001F0007A00826080937A0080917A008160809397
:100200007A0080917A00806880937A001092C10011
:10021000C9E9D0E0FE01249105E810E0F8018491DD
:10022000882399F090E0880F991FFC01E859FF4F4F
:10023000A591B491FC01EE58FF4F859194918FB731
:10024000F8949C91292B2C938FBFFE012491F801E7
:1002500084918823C9F090E0880F991FFC01E85928
:10026000FF4FA591B491FC01EE58FF4F4591549179
:100270003FB7F8949C91822F809598239C93FA0124
:100280009081892380833FBF20E4822E3DEAC32EE4
:1002900030E0D32E44244A9443E0542E612C712C38
:1002A00050E0A52E50E0B52E80927C0080917A001F
:1002B000806480937A0080917A0086FDFCCF8091E3
:1002C0007800A0917900F6019491FE019490F801D4
:1002D0002491222329F1992339F0933091F138F5B3
:1002E0009130A9F19230B9F1E22FF0E0EE0FFF1F4B
:1002F000EE58FF4FE590F4903FB6F894BA2FA82F30
:100300002FEF30E00E940A02A30192010E94BA017D
:10031000F701808121112CC09094982290823FBED9
:10032000A114B10409F4C0CF0E940000BDCF9730E2
:10033000A9F09830C9F09430B9F6909180009F7D73
:1003400003C0909180009F7790938000CDCF94B5AB
:100350009F7794BDC9CF94B59F7DFBCF9091B0009E
:100360009F779093B000C0CF9091B0009F7DF9CF60
:10037000982AD4CF052E97FB1EF400940E94D10139
:1003800057FD07D00E94D90107FC03D04EF40C940E
:10039000D10150954095309521953F4F4F4F5F4F7C
:1003A000089590958095709561957F4F8F4F9F4FE1
:1003B0000895A1E21A2EAA1BBB1BFD010DC0AA1FA6
:1003C000BB1FEE1FFF1FA217B307E407F50720F0BE
:1003D000A21BB30BE40BF50B661F771F881F991F39
:1003E0001A9469F760957095809590959B01AC0182
:1003F000BD01CF010895A29FB001B39FC001A39F8B
:10040000700D811D1124911DB29F700D811D11244D
:10041000911D08950E94FB01B7FF0895821B930B65
:060420000895F894FFCFDF
:00000001FF
