:100000000C9463000C948B000C948B000C948B006C
:100010000C948B000C948B000C948B000C949B0222
:100020000C948B000C948B000C948B000C948B0024
:100030000C948B000C948B000C948B000C948B0014
:100040000C9451020C948B000C941D030C94F70239
:100050000C948B000C948B000C948B000C948B00F4
:100060000C948B000C948B000000000024002700EF
:100070002A000000000023002600290000000008DC
:10008000000201000003040700000000000000005F
:10009000010204081020408001020408102001021F
:1000A0000408102000000000250028002B00040494
:1000B0000404040404040202020202020303030310
:1000C00003030200BE0411241FBECFEFD8E0DEBF41
:1000D000CDBF11E0A0E0B1E0E6EEF9E002C005908E
:1000E0000D92AE33B107D9F721E0AEE3B1E001C024
:1000F0001D92A53FB207E1F710E0C3E6D0E004C0CF
:100100002197FE010E94EB04C236D107C9F70E9475
:100110004F030C94F1040C940000FC01538D448DAA
:10012000252F30E0842F90E0821B930B541710F0A2
:10013000CF96089501970895FC01918D828D9817AF
:1001400061F0A28DAE0FBF2FB11D5D968C91928D87
:100150009F5F9F73928F90E008958FEF9FEF0895B8
:10016000FC01918D828D981731F0828DE80FF11D81
:10017000858D90E008958FEF9FEF0895FC01918D9C
:10018000228D892F90E0805C9F4F821B91098F7395
:1001900099270895FC01A48DA80FB92FB11DA35A6A
:1001A000BF4F2C91848D90E001968F739927848F97
:1001B000A689B7892C93A089B1898C9183708064BA
:1001C0008C93938D848D981306C00288F389E02D5B
:1001D00080818F7D80830895EF92FF920F931F930C
:1001E000CF93DF93EC0181E0888F9B8D8C8D9813EA
:1001F0001AC0E889F989808185FF15C09FB7F894F6
:10020000EE89FF896083E889F98980818370806441
:1002100080839FBF81E090E0DF91CF911F910F918C
:10022000FF90EF900895F62E0B8D10E00F5F1F4F9B
:100230000F731127E02E8C8D8E110CC00FB607FCAA
:10024000FACFE889F989808185FFF5CFCE010E9438
:10025000CA00F1CFEB8DEC0FFD2FF11DE35AFF4FDC
:10026000F0829FB7F8940B8FEA89FB8980818062C6
:10027000CFCFCF93DF93EC01888D8823B9F0AA8983
:10028000BB89E889F9898C9185FD03C0808186FD51
:100290000DC00FB607FCF7CF8C9185FFF2CF8081A0
:1002A00085FFEDCFCE010E94CA00E9CFDF91CF914B
:1002B000089588E591E00E94BE0021E0892B09F4B1
:1002C00020E0822F089580E090E0892B29F00E94A1
:1002D000590181110C9400000895AF92BF92CF9202
:1002E000DF92EF92FF920F931F93CF93DF936C01F6
:1002F0007B018B01040F151FEB015E01AE18BF08D7
:10030000C017D10759F06991D601ED91FC91019088
:10031000F081E02DC6010995892B79F7C501DF91A0
:10032000CF911F910F91FF90EF90DF90CF90BF90F2
:10033000AF900895833081F028F4813099F08230B5
:10034000A9F008958730A9F08830C9F08430B1F45D
:10035000809180008F7D03C0809180008F77809393
:100360008000089584B58F7784BD089584B58F7D0E
:10037000FBCF8091B0008F778093B000089580917B
:10038000B0008F7DF9CFCF93DF9390910001891357
:100390000BC0E2ECF0E0E4919FEF90930001E130BC
:1003A00059F138F1E23071F1282F30E0F901E458C9
:1003B000FF4F8491F901E057FF4FD491F901E255C5
:1003C000FF4FC491CC2391F081110E949A01EC2F30
:1003D000F0E0EE0FFF1FEC55FF4FA591B4918FB7E2
:1003E000F894EC91D095DE23DC938FBFDF91CF9111
:1003F000089510926E00D8CF90916F009D7F9093DA
:100400006F00D2CF909170009D7F9093700091E02B
:100410009093B0009091B100987F94609093B10058
:100420001092B300C1CFCF93DF9390E0FC01E0576F
:10043000FF4F249182559F4FFC0184918823D1F076
:1004400090E0880F991FFC01E859FF4FA591B491E6
:10045000FC01EC55FF4FC591D49161110EC09FB7BF
:10046000F8948C91E22FE0958E238C932881E223DF
:10047000E8839FBFDF91CF9108958FB7F894EC91F7
:10048000E22BEC938FBFF6CFFC0101900020E9F73F
:100490003197AF01481B590BBC0188E591E00C94E2
:1004A0006D011F920F920FB60F9211242F933F935D
:1004B0008F939F93AF93BF93809154019091550177
:1004C000A0915601B09157013091530123E0230FC1
:1004D0002D3758F50196A11DB11D2093530180932E
:1004E000540190935501A0935601B0935701809108
:1004F0004F0190915001A0915101B091520101968C
:10050000A11DB11D80934F0190935001A093510103
:10051000B0935201BF91AF919F918F913F912F91D5
:100520000F900FBE0F901F90189526E8230F02968C
:10053000A11DB11DD2CF1F920F920FB60F921124A1
:100540002F933F934F935F936F937F938F939F93DB
:10055000AF93BF93EF93FF93809143019091440138
:10056000A0914501B0914601892B8A2B8B2BD1F1AB
:1005700090913E01E0913F01F091400180818927F7
:1005800080838091430190914401A0914501B091F5
:100590004601181619061A061B069CF480914301A1
:1005A00090914401A0914501B09146010197A109A4
:1005B000B1098093430190934401A0934501B09306
:1005C0004601FF91EF91BF91AF919F918F917F91E4
:1005D0006F915F914F913F912F910F900FBE0F90B0
:1005E0001F901895809100010E94C301EACF1F92CD
:1005F0000F920FB60F9211242F933F934F935F9357
:100600006F937F938F939F93AF93BF93EF93FF93DA
:1006100088E591E00E94CA00FF91EF91BF91AF91F0
:100620009F918F917F916F915F914F913F912F910A
:100630000F900FBE0F901F9018951F920F920FB63C
:100640000F9211242F938F939F93EF93FF93E09139
:100650006801F09169018081E0916E01F0916F0174
:1006600082FD1BC09081809171018F5F8F732091FB
:100670007201821741F0E0917101F0E0E85AFE4FFB
:10068000958F80937101FF91EF919F918F912F91A1
:100690000F900FBE0F901F9018958081F4CF789423
:1006A00084B5826084BD84B5816084BD85B5826077
:1006B00085BD85B5816085BD80916E008160809328
:1006C0006E00109281008091810082608093810091
:1006D00080918100816080938100809180008160A1
:1006E000809380008091B10084608093B1008091FC
:1006F000B00081608093B00080917A008460809324
:100700007A0080917A00826080937A0080917A00EA
:10071000816080937A0080917A00806880937A006B
:100720001092C10083E191E00E94440282E291E0D4
:100730000E94440260E086E00E94130261E088E0CB
:100740000E94130260E088E00E94130264E5C62E56
:1007500060EDD62E72ECE72E70E0F72EE6EB4E2E13
:10076000E0E05E2E08E910E088248A94982C540179
:1007700056E9252E50E0352E40E0642E40E0742EE0
:10078000E2E8F0E08491F101C491E4EBF0E0D4916F
:10079000DD2309F4EFC081110E949A01ED2FF0E0F2
:1007A000EE0FFF1FEE58FF4FA591B4918C918C2353
:1007B00009F4E0C085E291E00E94440282E291E007
:1007C0000E94440280910001883029F5F701C4910C
:1007D000C7FDBCC061E088E00E941302CC2309F48D
:1007E00088C0C23009F099C08091B100887F8660CE
:1007F0008093B1008FEC8093B3008092430190927C
:100800004401A0924501B09246018091700082603F
:10081000809370009BC08F3F09F098C088E0809360
:100820000001F701C491CF3F09F490C0C13019F124
:1008300050F0C23009F43CC0C7FD88C061E088E0D8
:100840000E941302CECF14BC15BC84B5826084BD57
:1008500085B5816085BDF2018491E82FF0E0EE0F4F
:10086000FF1FEC55FF4F85919491F801849180937F
:100870004201C0E0AFCF10928000109281008091C1
:1008800081008860809381008091810081608093E5
:100890008100F2018491E82FF0E0EE0FFF1FEC558C
:1008A000FF4F85919491F80184918093410192CFFB
:1008B0001092B0001092B1008091B00082608093DD
:1008C000B0008091B10081608093B100F201849109
:1008D000E82FF0E0EE0FFF1FEC55FF4F859194914C
:1008E0009093400180933F01F801849180933E01F1
:1008F00071CF85B5887F846085BD8FEC87BD809280
:100900004B0190924C01A0924D01B0924E0180910A
:100910006E00826080936E0019C0C13019F580911D
:100920008100887F816080938100D0928900C0928D
:1009300088008092470190924801A0924901B092AC
:100940004A0180916F00826080936F00611471048E
:1009500009F416CF0E945901882309F40DCF0E9493
:10096000000006CFC23021F0C111F0CF84E5C6CF20
:1009700084E541CF88E00E94C301E8CFE8E5F1E0DB
:100980001382128288EE93E0A0E0B0E08483958326
:10099000A683B78385E091E09183808385EC90E026
:1009A0009587848784EC90E09787868780EC90E039
:1009B000918B808B81EC90E0938B828B82EC90E02A
:1009C000958B848B86EC90E0978B868B118E128EA4
:1009D000138E148E0895EE0FFF1F0590F491E02DF5
:0609E0000994F894FFCF1A
:1009E600FF00000000EC006D018D003901BE009C87
:1009F60000B000496E696369616E646F202E2E2E09
:100A06002E000D0A00536F6D2073656E646F2061B2
:0E0A16007469766961646F202E2E2E2E00000A
:00000001FF
