:100000000C945D000C9485000C9485000C94850084
:100010000C9485000C9485000C9485000C9485004C
:100020000C9485000C9485000C9485000C9485003C
:100030000C9485000C9485000C9485000C9485002C
:100040000C94A7020C9485000C9475020C944F023A
:100050000C9485000C9485000C9485000C9485000C
:100060000C9485000C94850000000008000201003B
:100070000003040700000000000000000000000072
:10008000250028002B0000000000240027002A0083
:10009000040404040404040402020202020203032E
:1000A0000303030301020408102040800102040836
:1000B0001020010204081020DA0311241FBECFEF24
:1000C000D8E0DEBFCDBF11E0A0E0B1E0EEE1F8E0A6
:1000D00002C005900D92AE37B107D9F722E0AEE726
:1000E000B1E001C01D92A432B207E1F710E0CDE506
:1000F000D0E004C02197FE010E940704CC35D1074F
:10010000C9F70E94F1020C940D040C940000AF9208
:10011000BF92CF92DF92EF92FF920F931F93CF93F4
:10012000DF936C017B018B01040F151FEB015E0156
:10013000AE18BF08C017D10759F06991D601ED91EB
:10014000FC910190F081E02DC6010995892B79F78A
:10015000C501DF91CF911F910F91FF90EF90DF903C
:10016000CF90BF90AF900895FC01538D448D252F03
:1001700030E0842F90E0821B930B541710F0CF9641
:10018000089501970895FC01918D828D981761F073
:10019000A28DAE0FBF2FB11D5D968C91928D9F5F8A
:1001A0009F73928F90E008958FEF9FEF0895FC0169
:1001B000918D828D981731F0828DE80FF11D858D1C
:1001C00090E008958FEF9FEF0895FC01918D228DAF
:1001D000892F90E0805C9F4F821B91098F73992734
:1001E000089587E891E00E94E50021E0892B09F459
:1001F00020E0822F089580E090E0892B29F00E9472
:10020000F10081110C9400000895FC01A48DA80F49
:10021000B92FB11DA35ABF4F2C91848D90E0019648
:100220008F739927848FA689B7892C93A089B18968
:100230008C91837080648C93938D848D981306C009
:100240000288F389E02D80818F7D80830895EF926D
:10025000FF920F931F93CF93DF93EC0181E0888F80
:100260009B8D8C8D98131AC0E889F989808185FF50
:1002700015C09FB7F894EE89FF896083E889F989F2
:1002800080818370806480839FBF81E090E0DF91F4
:10029000CF911F910F91FF90EF900895F62E0B8D47
:1002A00010E00F5F1F4F0F731127E02E8C8D8E1102
:1002B0000CC00FB607FCFACFE889F989808185FF69
:1002C000F5CFCE010E940501F1CFEB8DEC0FFD2F94
:1002D000F11DE35AFF4FF0829FB7F8940B8FEA8924
:1002E000FB8980818062CFCFCF93DF93EC01888D33
:1002F0008823B9F0AA89BB89E889F9898C9185FDA1
:1003000003C0808186FD0DC00FB607FCF7CF8C912E
:1003100085FFF2CF808185FFEDCFCE010E940501E0
:10032000E9CFDF91CF91089590E0FC01E859FF4FAC
:100330002491FC01EC55FF4F3491FC01E057FF4F35
:10034000E491EE23C9F0222339F0233001F1A8F41F
:10035000213019F1223029F1F0E0EE0FFF1FE458AF
:10036000FF4FA591B4918FB7F894EC91611126C01D
:1003700030953E233C938FBF08952730A9F0283055
:10038000C9F0243049F7809180008F7D03C08091AF
:1003900080008F7780938000DFCF84B58F7784BD16
:1003A000DBCF84B58F7DFBCF8091B0008F778093BA
:1003B000B000D2CF8091B0008F7DF9CF3E2BDACF45
:1003C0003FB7F8948091830190918401A0918501B9
:1003D000B091860126B5A89B05C02F3F19F0019664
:1003E000A11DB11D3FBFBA2FA92F982F8827BC018F
:1003F000CD01620F711D811D911D42E0660F771FB7
:10040000881F991F4A95D1F708958F929F92AF92B6
:10041000BF92CF92DF92EF92FF924B015C010E945C
:10042000E0016B017C010E94E0016C197D098E09DD
:100430009F09683E734081059105A8F321E0821A67
:100440009108A108B10888EEC80E83E0D81EE11C0F
:10045000F11C81149104A104B10429F7FF90EF90DD
:10046000DF90CF90BF90AF909F908F900895CF93E3
:10047000C2E060E08C2F0E949401CF5FCA30C9F7C0
:10048000CF910895FC0101900020E9F73197AF0169
:10049000481B590BBC0187E891E00C9487001F9220
:1004A0000F920FB60F9211242F933F934F935F93A8
:1004B0006F937F938F939F93AF93BF93EF93FF932C
:1004C00087E891E00E940501FF91EF91BF91AF9104
:1004D0009F918F917F916F915F914F913F912F915C
:1004E0000F900FBE0F901F9018951F920F920FB68E
:1004F0000F9211242F938F939F93EF93FF93E0918B
:100500009701F09198018081E0919D01F0919E0109
:1005100082FD1BC090818091A0018F5F8F7320911D
:10052000A101821741F0E091A001F0E0E957FE4FF0
:10053000958F8093A001FF91EF919F918F912F91C3
:100540000F900FBE0F901F9018958081F4CF1F92CF
:100550000F920FB60F9211242F933F938F939F9377
:10056000AF93BF9380917F0190918001A091810111
:10057000B091820130917E0123E0230F2D3758F591
:100580000196A11DB11D20937E0180937F01909360
:100590008001A0938101B0938201809183019091A9
:1005A0008401A0918501B09186010196A11DB11D24
:1005B0008093830190938401A0938501B093860179
:1005C000BF91AF919F918F913F912F910F900FBE4F
:1005D0000F901F90189526E8230F0296A11DB11DBC
:1005E000D2CFCF93DF93CDB7DEB7A1970FB6F894F4
:1005F000DEBF0FBECDBF789484B5826084BD84B564
:10060000816084BD85B5826085BD85B5816085BD0D
:1006100080916E00816080936E00109281008091C5
:10062000810082608093810080918100816080934D
:100630008100809180008160809380008091B10072
:1006400084608093B1008091B00081608093B0009D
:1006500080917A00846080937A0080917A00826031
:1006600080937A0080917A00816080937A008091F3
:100670007A00806880937A001092C100E09197011F
:10068000F091980182E08083E0919301F0919401D0
:100690001082E0919501F09196018FEC8083109289
:1006A0009F01E0919B01F0919C0186E08083E091A5
:1006B0009901F0919A01808180618083E091990194
:1006C000F0919A01808188608083E0919901F09196
:1006D0009A01808180688083E0919901F0919A016C
:1006E00080818F7D808382E691E00E9442028BE7C9
:1006F00091E00E9442026AE070E080E090E00E9497
:100700000502E4EAF0E02491E0E9F0E08491882336
:1007100099F090E0880F991FFC01EA57FF4FA591CF
:10072000B491FC01E458FF4F859194918FB7F894F0
:10073000EC91E22BEC938FBF0E94370290E0A92E40
:1007400090E0B92E82E1E82E81E0F82E10E319A2A4
:1007500018A3CE0180960E9442028BE791E00E948E
:100760004202670102E0F60161916F01802F0E9451
:1007700094010F5F0A30B9F768EE73E080E090E013
:100780000E9405021F5FF8E0EF0EF11C1A33F9F624
:100790000E94370260EA7FE080E090E00E9405025C
:1007A000A114B10479F20E94F100882359F20E9449
:1007B0000000C8CFE7E8F1E01382128288EE93E0F0
:1007C000A0E0B0E084839583A683B78384E091E0C2
:1007D0009183808385EC90E09587848784EC90E01A
:1007E0009787868780EC90E0918B808B81EC90E0FE
:1007F000938B828B82EC90E0958B848B86EC90E0DF
:10080000978B868B118E128E138E148E0895EE0F99
:0E081000FF1F0590F491E02D0994F894FFCF9E
:10081E000000000027018700B4007401E500C3004A
:10082E00D7000000010101010101000000000001DC
:10083E0001000001000101000101000100000101A1
:10084E000101000101000001010000010100010190
:10085E000001000101010101000100000000000182
:10086E00010100010101010101010001010000016E
:10087E000101696E696369616C697A616E646F20EA
:0E088E00646973706C61792E2E2E000D0A00C5
:00000001FF
