:100000000C9435000C945D000C945D000C945D0024
:100010000C945D000C945D000C945D000C945D00EC
:100020000C945D000C945D000C945D000C945D00DC
:100030000C945D000C945D000C945D000C945D00CC
:100040000C946C020C945D000C943A020C94140213
:100050000C945D000C945D000C945D000C945D00AC
:100060000C945D000C945D00180411241FBECFEFAA
:10007000D8E0DEBFCDBF11E0A0E0B1E0E2E7FCE0F8
:1000800002C005900D92A433B107D9F721E0A4E393
:10009000B1E001C01D92AA3DB207E1F710E0C5E34F
:1000A000D0E004C02197FE010E943106C433D1077D
:1000B000C9F70E94B6020C9437060C940000AF9268
:1000C000BF92CF92DF92EF92FF920F931F93CF9345
:1000D000DF936C017B018B01040F151FEB015E01A7
:1000E000AE18BF08C017D10759F06991D601ED913C
:1000F000FC910190F081E02DC6010995892B79F7DB
:10010000C501DF91CF911F910F91FF90EF90DF908C
:10011000CF90BF90AF900895FC01538D448D252F53
:1001200030E0842F90E0821B930B541710F0CF9691
:10013000089501970895FC01918D828D981761F0C3
:10014000A28DAE0FBF2FB11D5D968C91928D9F5FDA
:100150009F73928F90E008958FEF9FEF0895FC01B9
:10016000918D828D981731F0828DE80FF11D858D6C
:1001700090E008958FEF9FEF0895FC01918D228DFF
:10018000892F90E0805C9F4F821B91098F73992784
:1001900008958DE391E00E94BD0021E0892B09F4D0
:1001A00020E0822F089580E090E0892B29F00E94C2
:1001B000C90081110C9400000895FC01A48DA80FC2
:1001C000B92FB11DA35ABF4F2C91848D90E0019699
:1001D0008F739927848FA689B7892C93A089B189B9
:1001E0008C91837080648C93938D848D981306C05A
:1001F0000288F389E02D80818F7D80830895EF92BE
:10020000FF920F931F93CF93DF93EC0181E0888FD0
:100210009B8D8C8D98131AC0E889F989808185FFA0
:1002200015C09FB7F894EE89FF896083E889F98942
:1002300080818370806480839FBF81E090E0DF9144
:10024000CF911F910F91FF90EF900895F62E0B8D97
:1002500010E00F5F1F4F0F731127E02E8C8D8E1152
:100260000CC00FB607FCFACFE889F989808185FFB9
:10027000F5CFCE010E94DD00F1CFEB8DEC0FFD2F0D
:10028000F11DE35AFF4FF0829FB7F8940B8FEA8974
:10029000FB8980818062CFCFCF93DF93EC01888D83
:1002A0008823B9F0AA89BB89E889F9898C9185FDF1
:1002B00003C0808186FD0DC00FB607FCF7CF8C917F
:1002C00085FFF2CF808185FFEDCFCE010E94DD005A
:1002D000E9CFDF91CF9108953FB7F894809139012C
:1002E00090913A01A0913B01B0913C0126B5A89BA9
:1002F00005C02F3F19F00196A11DB11D3FBFBA2FB8
:10030000A92F982F8827BC01CD01620F711D811D77
:10031000911D42E0660F771F881F991F4A95D1F7FC
:1003200008958F929F92AF92BF92CF92DF92EF92F9
:10033000FF924B015C010E946C016B017C010E94E9
:100340006C016C197D098E099F09683E7340810517
:100350009105A8F321E0821A9108A108B10888EE5E
:10036000C80E83E0D81EE11CF11C81149104A10485
:10037000B10429F7FF90EF90DF90CF90BF90AF903E
:100380009F908F900895FC0101900020E9F731972C
:10039000AF01481B590BBC018DE391E00C945F0049
:1003A0008F929F92AF92BF920F931F93CF93DF9341
:1003B000CDB7DEB7A1970FB6F894DEBF0FBECDBFA5
:1003C00019A2423008F44AE08E010F5D1F4F842EBF
:1003D000912CB12CA12CA50194010E940F06E62FAF
:1003E000B901CA01EA30F4F4E05DD801EE938D0161
:1003F000232B242B252B79F790E080E0109719F020
:10040000CD010E94C301A1960FB6F894DEBF0FBEC6
:10041000CDBFDF91CF911F910F91BF90AF909F9073
:100420008F900895E95CE1CF1F920F920FB60F9263
:1004300011242F933F934F935F936F937F938F93E9
:100440009F93AF93BF93EF93FF938DE391E00E944F
:10045000DD00FF91EF91BF91AF919F918F917F91BF
:100460006F915F914F913F912F910F900FBE0F9021
:100470001F9018951F920F920FB60F9211242F9371
:100480008F939F93EF93FF93E0914D01F0914E0175
:100490008081E0915301F091540182FD1BC0908155
:1004A000809156018F5F8F7320915701821741F021
:1004B000E0915601F0E0E35CFE4F958F809356018A
:1004C000FF91EF919F918F912F910F900FBE0F9001
:1004D0001F9018958081F4CF1F920F920FB60F9244
:1004E00011242F933F938F939F93AF93BF9380914A
:1004F000350190913601A0913701B09138013091CA
:10050000340123E0230F2D3758F50196A11DB11DAD
:10051000209334018093350190933601A0933701E5
:10052000B09338018091390190913A01A0913B013B
:10053000B0913C010196A11DB11D809339019093AA
:100540003A01A0933B01B0933C01BF91AF919F91C1
:100550008F913F912F910F900FBE0F901F90189584
:1005600026E8230F0296A11DB11DD2CF789484B541
:10057000826084BD84B5816084BD85B5826085BD9F
:1005800085B5816085BD80916E00816080936E002D
:10059000109281008091810082608093810080911F
:1005A00081008160809381008091800081608093D0
:1005B00080008091B10084608093B1008091B00090
:1005C00081608093B00080917A00846080937A008B
:1005D00080917A00826080937A0080917A008160B5
:1005E00080937A0080917A00806880937A001092DC
:1005F000C100E0914D01F0914E0182E08083E091D5
:100600004901F0914A011082E0914B01F0914C01B7
:100610008FEC808310925501E0915101F0915201CD
:1006200086E08083E0914F01F091500180818061EC
:100630008083E0914F01F091500180818860808338
:10064000E0914F01F0915001808180688083E091BA
:100650004F01F091500180818F7D808382E191E094
:100660000E94C30184E291E00E94C30160ED77E043
:1006700080E090E00E94910110E4C0E0D0E010938F
:100680007C0080917A00806480937A0080917A0067
:1006900086FDFCCF8091780060917900762F682FDD
:1006A000072E000C880B990B0E94E80420E030E034
:1006B00040EA50E40E949D0520E030E040E85AE323
:1006C0000E949D056B017C014B015C01AC019B010B
:1006D0000E940A068823C1F087E291E00E94C301CC
:1006E00084E291E00E94C30168EE73E080E090E054
:1006F0000E949101209719F20E94C900882309F4F1
:10070000BECF0E940000BBCF26013701E89477F8E6
:100710002FEF3FEF4FE75FE7C301B2010E940A06E8
:1007200081110DC02FEF3FEF4FE75FE7C301B2012B
:100730000E94B20418161CF48BE291E0CFCF2FEF89
:100740003FEF4FE75FE4C701B6010E949805181616
:100750001CF48FE291E0C2CF2FEF3FEF4FE75FEC49
:10076000C701B6010E94B20487FDF3CF20E030E05C
:10077000A901C701B6010E94B20487FF0BC06DE258
:100780008DE391E00E94FF0046015701B7FAB09453
:10079000B7F8B0942AE037ED43EA5BE3C501B40152
:1007A0000E9446044B015C010E94B7046B017C016E
:1007B0000E94E6049B01AC01C501B4010E944504FE
:1007C0004B015C014AE0C701B6010E94D0016EE214
:1007D0008DE391E00E94FF0020E030E040E251E430
:1007E000C501B4010E949D054B015C010E94B70444
:1007F0006B01F12CE12C4AE0C701B6010E94D00147
:10080000C701B6010E94E6049B01AC01C501B40119
:100810000E94450420E030E040E251E40E949D0542
:100820000E94B70490E080E04AE00E94D00158CFD7
:10083000EDE3F1E01382128288EE93E0A0E0B0E0F5
:1008400084839583A683B78384E091E0918380833A
:1008500085EC90E09587848784EC90E09787868785
:1008600080EC90E0918B808B81EC90E0938B828B7D
:1008700082EC90E0958B848B86EC90E0978B868B56
:10088000118E128E138E148E08955058BB27AA27EE
:100890000E945D040C945E050E94500538F00E9491
:1008A000570520F039F49F3F19F426F40C944D05B8
:1008B0000EF4E095E7FB0C944705E92F0E946F05C5
:1008C00058F3BA17620773078407950720F079F485
:1008D000A6F50C9491050EF4E0950B2EBA2FA02DE1
:1008E0000B01B90190010C01CA01A0011124FF27DD
:1008F000591B99F0593F50F4503E68F11A16F040D8
:10090000A22F232F342F4427585FF3CF46953795D6
:100910002795A795F0405395C9F77EF41F16BA0B9B
:10092000620B730B840BBAF09150A1F0FF0FBB1F49
:10093000661F771F881FC2F70EC0BA0F621F731F92
:10094000841F48F4879577956795B795F7959E3FEF
:1009500008F0B0CF9395880F08F09927EE0F979580
:10096000879508950E94230508F481E008950E9468
:10097000770588F09F5798F0B92F9927B751B0F0B5
:10098000E1F0660F771F881F991F1AF0BA95C9F713
:1009900014C0B13091F00E949105B1E008950C941B
:1009A0009105672F782F8827B85F39F0B93FCCF3CE
:1009B000869577956795B395D9F73EF49095809590
:1009C000709561957F4F8F4F9F4F0895E89409C0B0
:1009D00097FB3EF490958095709561957F4F8F4F72
:1009E0009F4F9923A9F0F92F96E9BB279395F69588
:1009F000879577956795B795F111F8CFFAF4BB0F06
:100A000011F460FF1BC06F5F7F4F8F4F9F4F16C069
:100A1000882311F096E911C0772321F09EE8872FF3
:100A2000762F05C0662371F096E8862F70E060E0AF
:100A30002AF09A95660F771F881FDAF7880F969528
:100A4000879597F90895990F0008550FAA0BE0E8CC
:100A5000FEEF16161706E807F907C0F01216130680
:100A6000E407F50798F0621B730B840B950B39F4C0
:100A70000A2661F0232B242B252B21F408950A2626
:100A800009F4A140A6958FEF811D811D089597F966
:100A90009F6780E870E060E008959FEF80EC089524
:100AA00000240A941616170618060906089500244D
:100AB0000A9412161306140605060895092E0394C7
:100AC000000C11F4882352F0BB0F40F4BF2B11F43B
:100AD00060FF04C06F5F7F4F8F4F9F4F089557FD9A
:100AE0009058440F551F59F05F3F71F04795880F9C
:100AF00097FB991F61F09F3F79F087950895121633
:100B000013061406551FF2CF4695F1DF08C01616DE
:100B100017061806991FF1CF86957105610508948F
:100B20000895E894BB2766277727CB0197F90895A6
:100B30000E94230508F48FEF08950E94B0050C94DD
:100B40005E050E94500538F00E94570520F095235D
:100B500011F00C9447050C944D0511240C9492054A
:100B60000E946F0570F3959FC1F3950F50E0551FDC
:100B7000629FF001729FBB27F00DB11D639FAA27F2
:100B8000F00DB11DAA1F649F6627B00DA11D661F41
:100B9000829F2227B00DA11D621F739FB00DA11D62
:100BA000621F839FA00D611D221F749F3327A00D1C
:100BB000611D231F849F600D211D822F762F6A2FB8
:100BC00011249F5750409AF0F1F088234AF0EE0F1D
:100BD000FF1FBB1F661F771F881F91505040A9F74A
:100BE0009E3F510580F00C9447050C9492055F3FA1
:100BF000E4F3983ED4F3869577956795B795F79586
:100C0000E7959F5FC1F7FE2B880F911D96958795FD
:100C100097F908950E942305880B990B0895A1E286
:100C20001A2EAA1BBB1BFD010DC0AA1FBB1FEE1F66
:100C3000FF1FA217B307E407F50720F0A21BB30BB1
:100C4000E40BF50B661F771F881F991F1A9469F72D
:100C500060957095809590959B01AC01BD01CF0189
:100C60000895EE0FFF1F0590F491E02D0994F8947C
:020C7000FFCFB4
:100C720000000000FF005F008C004C01BD009B00E3
:100C8200AF00496E696369616C697A616E646F2055
:100C92002E2E2E000D0A006E616E00696E66006FC8
:040CA2007666000072
:00000001FF
