:100000000C9480000C94A8000C94A8000C94A800F8
:100010000C94A8000C94A8000C94A8000C94A800C0
:100020000C94A8000C94A8000C94A8000C94A800B0
:100030000C94A8000C94A8000C94A8000C94A800A0
:100040000C940A050C94A8000C94D8040C94B204E7
:100050000C94A8000C94A8000C94A8000C94A80080
:100060000C94A8000C94A8004E414E494E49545996
:10007000494E46CDCCCC3D0AD7233C17B7D1387773
:10008000CC2B329595E6241FB14F0A000020410089
:1000900000C84200401C4620BCBE4CCA1B0E5AAED3
:1000A000C59D740000000023002600290000000008
:1000B0000800020100000304070000000000000027
:1000C0000000000000250028002B00000000002494
:1000D0000027002A000404040404040404020202A9
:1000E0000202020303030303030102040810204079
:1000F00080010204081020010204081020001307E8
:1001000011241FBECFEFD8E0DEBFCDBF23E0ACE7A8
:10011000B2E001C01D92A033B207E1F712E0A0E007
:10012000B1E0EAE3FBE102C005900D92AC37B10704
:10013000D9F710E0C0E8D0E004C02197FE010E948A
:10014000A30BCF37D107C9F70E9454050C949B0D20
:100150000C940000AF92BF92CF92DF92EF92FF9289
:100160000F931F93CF93DF936C017B018B01040FDF
:10017000151FEB015E01AE18BF08C017D10759F07B
:100180006991D601ED91FC910190F081E02DC601BD
:100190000995892B79F7C501DF91CF911F910F91B7
:1001A000FF90EF90DF90CF90BF90AF900895FC014B
:1001B000538D448D252F30E0842F90E0821B930BCC
:1001C000541710F0CF96089501970895FC01918D72
:1001D000828D981761F0A28DAE0FBF2FB11D5D9675
:1001E0008C91928D9F5F9F73928F90E008958FEF17
:1001F0009FEF0895FC01918D828D981731F0828DCB
:10020000E80FF11D858D90E008958FEF9FEF089521
:10021000FC01918D228D892F90E0805C9F4F821B85
:1002200091098F73992708958DE892E00E94080143
:1002300021E0892B09F420E0822F089580E090E0EE
:10024000892B29F00E94140181110C94000008955B
:10025000FC01A48DA80FB92FB11DA35ABF4F2C913B
:10026000848D90E001968F739927848FA689B78932
:100270002C93A089B1898C91837080648C93938D29
:10028000848D981306C00288F389E02D80818F7DCC
:1002900080830895EF92FF920F931F93CF93DF9384
:1002A000EC0181E0888F9B8D8C8D98131AC0E889B2
:1002B000F989808185FF15C09FB7F894EE89FF8981
:1002C0006083E889F98980818370806480839FBF1F
:1002D00081E090E0DF91CF911F910F91FF90EF901F
:1002E0000895F62E0B8D10E00F5F1F4F0F7311272F
:1002F000E02E8C8D8E110CC00FB607FCFACFE8896A
:10030000F989808185FFF5CFCE010E942801F1CFC8
:10031000EB8DEC0FFD2FF11DE35AFF4FF0829FB7DD
:10032000F8940B8FEA89FB8980818062CFCFCF93CD
:10033000DF93EC01888D8823B9F0AA89BB89E8890D
:10034000F9898C9185FD03C0808186FD0DC00FB6B3
:1003500007FCF7CF8C9185FFF2CF808185FFEDCF31
:10036000CE010E942801E9CFDF91CF91089583301B
:1003700081F028F4813099F08230A9F00895873017
:10038000A9F08830C9F08430B1F4809180008F7D6D
:1003900003C0809180008F7780938000089584B59A
:1003A0008F7784BD089584B58F7DFBCF8091B00099
:1003B0008F778093B00008958091B0008F7DF9CF42
:1003C000CF93DF93282F30E0F901E355FF4F84915D
:1003D000F901E751FF4FD491F901EB52FF4FC4915E
:1003E000CC23A1F081110E94B701EC2FF0E0EE0FB9
:1003F000FF1FED55FF4FA591B491EC91ED2381E0E6
:1004000090E009F480E0DF91CF91089580E090E0E2
:10041000FACF1F93CF93DF93282F30E0F901E355F4
:10042000FF4F8491F901E751FF4FD491F901EB524D
:10043000FF4FC491CC23A9F0162F81110E94B70160
:10044000EC2FF0E0EE0FFF1FEF53FF4FA591B4919B
:100450008FB7F894EC91111108C0D095DE23DC938E
:100460008FBFDF91CF911F910895DE2BF8CF3FB75B
:10047000F8948091810290918202A0918302B091C0
:10048000840226B5A89B05C02F3F19F00196A11D37
:10049000B11D3FBFBA2FA92F982F8827BC01CD01CE
:1004A000620F711D811D911D42E0660F771F881F2D
:1004B000991F4A95D1F708958F929F92AF92BF925C
:1004C000CF92DF92EF92FF924B015C010E943702C4
:1004D0006B017C010E9437026C197D098E099F090E
:1004E000683E734081059105A8F321E0821A9108C6
:1004F000A108B10888EEC80E83E0D81EE11CF11CEB
:1005000081149104A104B10429F7FF90EF90DF90CA
:10051000CF90BF90AF909F908F900895FC01019075
:100520000020E9F73197AF01481B590BBC018DE85A
:1005300092E00C94AA008F929F92AF92BF920F9379
:100540001F93CF93DF93CDB7DEB7A1970FB6F89483
:10055000DEBF0FBECDBF19A2423008F44AE08E01C3
:100560000F5D1F4F842E912CB12CA12CA50194015D
:100570000E94810BE62FB901CA01EA30F4F4E05D74
:10058000D801EE938D01232B242B252B79F790E0B6
:1005900080E0109719F0CD010E948E02A1960FB64F
:1005A000F894DEBF0FBECDBFDF91CF911F910F91A9
:1005B000BF90AF909F908F900895E95CE1CFCF936B
:1005C000DF930E948E02EC0184E291E00E948E0291
:1005D0008C0F9D1FDF91CF9108954F925F926F9284
:1005E0007F928F929F92AF92BF92CF92DF92EF92C3
:1005F000FF926B017C01AC019B010E947C0B882364
:10060000C1F087E291E00E948E027C0184E291E0D9
:100610000E948E028E0D9F1DFF90EF90DF90CF9075
:10062000BF90AF909F908F907F906F905F904F9012
:10063000089546015701E894B7F82FEF3FEF4FE7D1
:100640005FE7C501B4010E947C0B81110DC02FEF43
:100650003FEF4FE75FE7C501B4010E94EA081816B3
:100660001CF48BE291E0CFCF2FEF3FEF4FE75FE439
:10067000C701B6010E94770B18161CF48FE291E0B7
:10068000C2CF2FEF3FEF4FE75FECC701B6010E94EB
:10069000EA0887FDF3CF20E030E0A901C701B601E9
:1006A0000E94EA08B12CA12C87FF0AC06DE28DE8F8
:1006B00092E00E944A015C01F7FAF094F7F8F09496
:1006C0002AE037ED43EA5BE3C701B6010E94630A03
:1006D0002B013C010E94480B6B017C010E94EF083A
:1006E0009B01AC01C301B2010E94620A2B013C01D3
:1006F0004AE0C701B6010E949B027C01EA0CFB1C88
:100700006EE28DE892E00E944A01E80EF91E20E0B8
:1007100030E040E251E4C301B2010E9450092B01D4
:100720003C010E94480B4B01B12CA12C4AE0C501B1
:10073000B4010E949B02E80EF91EC501B4010E949B
:10074000EF089B01AC01C301B2010E94620A20E0E4
:1007500030E040E251E40E9450090E94480B90E0D2
:1007600080E04AE00E949B02E80EF91E4FCF0F93F3
:100770001F93CF93DF93EC0188819981009759F003
:100780002A813B812617370730F081E0DF91CF9136
:100790001F910F9108958B016F5F7F4F0E94CE0CC8
:1007A000009759F0998388831B830A832C813D81AC
:1007B000232B59F7FC011082E8CF80E0E7CF5F924E
:1007C0006F927F928F929F92AF92BF92CF92DF9261
:1007D000EF92FF920F931F93CF93DF93CDB7DEB7C6
:1007E0002A970FB6F894DEBF0FBECDBF1A821982CA
:1007F0001C821B821E821D8270E060E0CE01019689
:100800000E94B70329813A818111A1C021153105C8
:1008100019F0C9010E94450C1A8219821E821D829C
:100820001C821B825E0187E0A80EB11C02E010E072
:10083000712C602E61E0802F0E9409026801CC0CAF
:10084000DD1CC00ED11EC6018A5F9E4F6C0196E072
:10085000E92EF12C5E2C8E2D0E94E0010197C9F546
:10086000F7013C97EC0DFD1D90809BE0991508F475
:1008700076C0692D70E090E080E04AE00E949B0223
:100880004AE0B501892D90E00E944407F5010190EE
:100890000020E9F73197EA19FB09B1F08D809E80BD
:1008A0008E0E9F1EB401CE0101960E94B7038823CD
:1008B00059F029813A818D819E81B501820F931F64
:1008C0000E94940D9E828D82852D0E94E0010197E9
:1008D000D9F38FEFE81AF80A99E0E916F10409F064
:1008E000B9CF60E0862D0E9409020F5F1F4F0630CE
:1008F000110509F09ECF772009F498CF89819A815C
:10090000C12CD12C7601009721F00E9440076B0189
:100910007C0189819A81009711F00E94450CC701E2
:10092000B6012A960FB6F894DEBF0FBECDBFDF9199
:10093000CF911F910F91FF90EF90DF90CF90BF90DC
:10094000AF909F908F907F906F905F9008951E82E0
:100950001D8266E271E0C9010E94940D63CF772485
:100960007394B2CF1F920F920FB60F9211242F9350
:100970003F934F935F936F937F938F939F93AF9327
:10098000BF93EF93FF938DE892E00E942801FF91BF
:10099000EF91BF91AF919F918F917F916F915F91F7
:1009A0004F913F912F910F900FBE0F901F90189570
:1009B0001F920F920FB60F9211242F938F939F9334
:1009C000EF93FF93E0919D02F0919E028081E09170
:1009D000A302F091A40282FD1BC090818091A60227
:1009E0008F5F8F732091A702821741F0E091A602DA
:1009F000F0E0E357FD4F958F8093A602FF91EF91B2
:100A00009F918F912F910F900FBE0F901F9018956F
:100A10008081F4CF1F920F920FB60F9211242F9363
:100A20003F938F939F93AF93BF9380917D0290915B
:100A30007E02A0917F02B091800230917C0223E07F
:100A4000230F2D3758F50196A11DB11D20937C026F
:100A500080937D0290937E02A0937F02B0938002E8
:100A60008091810290918202A0918302B0918402D0
:100A70000196A11DB11D8093810290938202A093E3
:100A80008302B0938402BF91AF919F918F913F9168
:100A90002F910F900FBE0F901F90189526E8230FEF
:100AA0000296A11DB11DD2CF789484B5826084BD19
:100AB00084B5816084BD85B5826085BD85B5816062
:100AC00085BD80916E00816080936E0010928100E0
:100AD000809181008260809381008091810081609B
:100AE000809381008091800081608093800080915C
:100AF000B10084608093B1008091B00081608093E8
:100B0000B00080917A00846080937A0080917A00AE
:100B1000826080937A0080917A00816080937A006D
:100B200080917A00806880937A001092C100E091F1
:100B30009D02F0919E0282E08083E0919902F09103
:100B40009A021082E0919B02F0919C028FEC8083CC
:100B50001092A502E091A102F091A20286E08083AA
:100B6000E0919F02F091A002808180618083E091FA
:100B70009F02F091A002808188608083E0919F02B3
:100B8000F091A002808180688083E0919F02F091C3
:100B9000A00280818F7D8083C2E0D0E08C2FFE0197
:100BA000E751FF4F9491FE01EB52FF4F2491222316
:100BB00099F030E0220F331FF901E553FF4FA59163
:100BC000B491F901EF53FF4F259134912FB7F89469
:100BD000EC91E92BEC932FBF60E00E940902219673
:100BE000C630D105D9F6FE01E751FF4F2491FE0131
:100BF000EB52FF4F84918823C9F090E0880F991F32
:100C0000FC01E553FF4F45915491FC01EF53FF4F19
:100C1000A591B4919FB7F894FA0180812095822321
:100C200080838C91E22FE823EC939FBF2196C930FB
:100C3000D105C9F683E391E00E94DF0264E670E02B
:100C400080E090E00E945C02C0E0D0E085E491E0AA
:100C50000E94DF0281E691E00E94DF0285E491E0DC
:100C60000E94DF0287E891E00E94DF020E94DF031A
:100C70006093890270938A0280938B0290938C0216
:100C80000E94ED0286E291E00E94DF0281EA91E09B
:100C90000E94DF020E94DF03609385027093860248
:100CA00080938702909388020E94ED0285E891E08C
:100CB0000E94DF0264E670E080E090E00E945C0247
:100CC0008AEB91E00E94DF028FEC91E00E94DF024C
:100CD00087ED91E00E94DF0284EE91E00E94DF0246
:100CE00085EF91E00E94DF020E94DF030E94410B2A
:100CF0006130710599F580E092E00E948E022091AA
:100D0000850230918602409187025091880260915D
:100D1000890270918A0280918B0290918C020E94CC
:100D2000630A0E94ED026CE271E080E090E00E94B4
:100D30005C0285E891E00E94DF0268EE73E080E0EB
:100D400090E00E945C02209709F480CF0E94140179
:100D5000882309F47BCF0E94000078CF62307105B0
:100D6000B9F487E092E00E948E02209185023091D2
:100D700086024091870250918802609189027091A9
:100D80008A0280918B0290918C020E94620AC9CFE4
:100D900063307105B9F483E292E00E948E022091E3
:100DA00085023091860240918702509188026091BD
:100DB000890270918A0280918B0290918C020E942C
:100DC0005009AFCF6430710559F520E030E0A9013A
:100DD00060918502709186028091870290918802CD
:100DE0000E94EA088823B9F083E492E00E948E0210
:100DF00020918502309186024091870250918802AD
:100E00006091890270918A0280918B0290918C028C
:100E10000E94CF0A86CF8DE492E00E94DF0283CF4A
:100E200084E692E0FACFEDE8F2E01382128288EED7
:100E300093E0A0E0B0E084839583A683B78386E146
:100E400091E09183808385EC90E09587848784ECA2
:100E500090E09787868780EC90E0918B808B81EC87
:100E600090E0938B828B82EC90E0958B848B86EC68
:100E700090E0978B868B118E128E138E148E0895B0
:100E8000662777270C946907BB274A3031F49923EA
:100E900022F4BDE2909581959F4F0C945007BB279B
:100EA000FB015527AA27880F991FAA1FA41710F026
:100EB000A41B83955051B9F7A05DAA3308F0A95D32
:100EC000A193009779F7B111B1931192CB010C94D2
:100ED000DA08B0E0A0E0EFE6F7E00C94220A5C014B
:100EE0007B016115710519F0DB018D939C938501E0
:100EF0000F5F1F4FF501D0818D2F90E00E94B90840
:100F00006C01892BB9F5DD32B9F50F5F1F4FD501A3
:100F10001196DC91C1E05801F1E0AF1AB10843E04D
:100F200050E060E770E0C5010E94C208892B69F5B6
:100F3000680182E0C80ED11C45E050E06BE670E02D
:100F4000C6010E94C208892B21F4680197E0C90EEE
:100F5000D11CE114F10419F0D701CD92DC9260E0CC
:100F600070E080E89FEFC111FFC060E070E080E8B2
:100F70009FE7FAC05801BBCFDB3229F485010E5F31
:100F80001F4FF501D181C0E0C6CF43E050E068E6D5
:100F900070E0C5010E94C208892BE9F0F80110E059
:100FA00000E020E030E0A9015F01B0ED8B2E8D0E56
:100FB00089E08815C8F19C2E689491F88C2F887070
:100FC000C2FF16C0811102C00F5F1F4F3196D501BD
:100FD000DC91C92DE9CFE114F10429F00E5F1F4F18
:100FE000F7011183008360E070E080EC9FE7BCC0F4
:100FF000882311F001501109A5E0B0E00E94110A08
:101000009B01AC01220F331F441F551F280D311DBA
:10101000411D511D283999E93907490799E15907B7
:10102000A8F2C6609C2ED2CFAEEF8A1206C0C3FDD6
:101030003CC09C2E689493F8C9CFDF7DD534A9F5C8
:1010400080818D3239F4C061DF011296818162E0C6
:1010500070E006C0DF018B32C1F3119661E070E0F1
:1010600080535D01A61AB70A8A30F8F4E0E8CE167C
:10107000ECE0DE065CF4B601660F771F660F771FA3
:10108000C60ED71ECC0CDD1CC80ED11C5D01FFEFB7
:10109000AF1ABF0A8C9180538A30A8F1C4FF03C0F5
:1010A000D194C194D1080C0D1D1DC1FF09C0E114DC
:1010B000F10431F081E0A81AB108D701AD92BC92D9
:1010C000CA01B9010E94EF08C370C33009F49058F7
:1010D0004B015C0120E030E0A9010E94EA0888236E
:1010E00009F440C0CFE9D0E017FF05C01195019584
:1010F0001109C7E8D0E06E01B8E1CB1AD10880E24F
:10110000E82EF12C0FC0D501B1CFFE01259135910C
:10111000459154910E191F09C501B4010E9450094F
:101120004B015C01D501C4010E151F0574F724970E
:10113000F594E794CC16DD06A9F78A2F880F8B2F3C
:10114000881F8F3F49F020E030E0A901C501B401BC
:101150000E94EA08811106C082E290E090932B037E
:1011600080932A03C501B401CDB7DEB7ECE00C943F
:101170003E0A91110C94BD09803219F089508550B6
:10118000C8F70895FB01DC014150504088F08D9173
:1011900081341CF08B350CF4805E659161341CF059
:1011A0006B350CF4605E861B611171F3990B089529
:1011B000881BFCCFDC01FC01672F71917723E1F7DD
:1011C000329704C07C916D9370836291AE17BF0714
:1011D000C8F308950E942C0908F481E00895E8946A
:1011E00009C097FB3EF490958095709561957F4F6F
:1011F0008F4F9F4F9923A9F0F92F96E9BB2793951D
:10120000F695879577956795B795F111F8CFFAF42C
:10121000BB0F11F460FF1BC06F5F7F4F8F4F9F4F5D
:1012200016C0882311F096E911C0772321F09EE8BB
:10123000872F762F05C0662371F096E8862F70E021
:1012400060E02AF09A95660F771F881FDAF7880FFB
:101250009695879597F90895990F0008550FAA0B51
:10126000E0E8FEEF16161706E807F907C0F01216B9
:101270001306E407F50798F0621B730B840B950BBC
:1012800039F40A2661F0232B242B252B21F4089511
:101290000A2609F4A140A6958FEF811D811D0895AE
:1012A0000E9463090C94D7090E94C90938F00E9472
:1012B000D00920F0952311F00C94C0090C94C609B4
:1012C00011240C940B0A0E94E80970F3959FC1F356
:1012D000950F50E0551F629FF001729FBB27F00DE4
:1012E000B11D639FAA27F00DB11DAA1F649F662739
:1012F000B00DA11D661F829F2227B00DA11D621F88
:10130000739FB00DA11D621F839FA00D611D221F41
:10131000749F3327A00D611D231F849F600D211D25
:10132000822F762F6A2F11249F5750409AF0F1F0A8
:1013300088234AF0EE0FFF1FBB1F661F771F881F11
:1013400091505040A9F79E3F510580F00C94C00980
:101350000C940B0A5F3FE4F3983ED4F3869577959F
:101360006795B795F795E7959F5FC1F7FE2B880FB7
:10137000911D9695879597F908959927882708953F
:1013800097F99F6780E870E060E008959FEF80EC38
:10139000089500240A9416161706180609060895DB
:1013A00000240A9412161306140605060895092E41
:1013B0000394000C11F4882352F0BB0F40F4BF2BB0
:1013C00011F460FF04C06F5F7F4F8F4F9F4F0895F0
:1013D00057FD9058440F551F59F05F3F71F04795E6
:1013E000880F97FB991F61F09F3F79F087950895CB
:1013F000121613061406551FF2CF4695F1DF08C0EA
:10140000161617061806991FF1CF86957105610506
:1014100008940895E894BB2766277727CB0197F9AE
:1014200008950E94530AA59F900DB49F900DA49F0C
:10143000800D911D112408952F923F924F925F923B
:101440006F927F928F929F92AF92BF92CF92DF92D4
:10145000EF92FF920F931F93CF93DF93CDB7DEB739
:10146000CA1BDB0B0FB6F894DEBF0FBECDBF0994CD
:101470002A88398848885F846E847D848C849B8424
:10148000AA84B984C884DF80EE80FD800C811B8132
:10149000AA81B981CE0FD11D0FB6F894DEBF0FBE61
:1014A000CDBFED010895A29FB001B39FC001A39FDE
:1014B000700D811D1124911DB29F700D811D11248D
:1014C000911D08955058BB27AA270E947A0A0C94B0
:1014D000D7090E94C90938F00E94D00920F039F4D8
:1014E0009F3F19F426F40C94C6090EF4E095E7FB2F
:1014F0000C94C009E92F0E94E80958F3BA17620753
:1015000073078407950720F079F4A6F50C940A0A6E
:101510000EF4E0950B2EBA2FA02D0B01B90190010E
:101520000C01CA01A0011124FF27591B99F0593F52
:1015300050F4503E68F11A16F040A22F232F342F9A
:101540004427585FF3CF469537952795A795F040E8
:101550005395C9F77EF41F16BA0B620B730B840BFD
:10156000BAF09150A1F0FF0FBB1F661F771F881FB5
:10157000C2F70EC0BA0F621F731F841F48F487950D
:1015800077956795B795F7959E3F08F0B0CF9395FF
:10159000880F08F09927EE0F9795879508950E9478
:1015A000E30A0C94D7090E94D00958F00E94C90997
:1015B00040F029F45F3F29F00C94C00951110C94BC
:1015C0000B0A0C94C6090E94E80968F39923B1F349
:1015D000552391F3951B550BBB27AA276217730759
:1015E000840738F09F5F5F4F220F331F441FAA1FED
:1015F000A9F335D00E2E3AF0E0E832D091505040A9
:10160000E695001CCAF72BD0FE2F29D0660F771F56
:10161000881FBB1F261737074807AB07B0E809F03C
:10162000BB0B802DBF01FF2793585F4F3AF09E3FC1
:10163000510578F00C94C0090C940B0A5F3FE4F359
:10164000983ED4F3869577956795B795F7959F5F04
:10165000C9F7880F911D9695879597F90895E1E050
:10166000660F771F881FBB1F621773078407BA07AF
:1016700020F0621B730B840BBA0BEE1F88F7E0950A
:1016800008950E94480B6894B1110C940B0A0895B8
:101690000E94F00988F09F5798F0B92F9927B75109
:1016A000B0F0E1F0660F771F881F991F1AF0BA9506
:1016B000C9F714C0B13091F00E940A0AB1E0089550
:1016C0000C940A0A672F782F8827B85F39F0B93F42
:1016D000CCF3869577956795B395D9F73EF49095B9
:1016E0008095709561957F4F8F4F9F4F08950E9411
:1016F0002C0908F48FEF08950E942C09880B990B90
:101700000895A1E21A2EAA1BBB1BFD010DC0AA1F42
:10171000BB1FEE1FFF1FA217B307E407F50720F05A
:10172000A21BB30BE40BF50B661F771F881F991FD5
:101730001A9469F760957095809590959B01AC011E
:10174000BD01CF010895EE0FFF1F0590F491E02D2C
:1017500009940F931F93CF93DF938230910510F478
:1017600082E090E0E0912E03F0912F0330E020E042
:10177000B0E0A0E0309799F42115310509F44AC092
:10178000281B390B24303105D8F58A819B816115DE
:10179000710589F1FB0193838283FE0111C04081B1
:1017A00051810281138148175907E0F04817590702
:1017B00099F4109761F012960C93129713961C935C
:1017C0003296CF01DF91CF911F910F910895009331
:1017D0002E0310932F03F4CF2115310551F042173A
:1017E000530738F0A901DB019A01BD01DF01F801BF
:1017F000C1CFEF01F9CF90932F0380932E03CDCF6C
:10180000FE01E20FF31F8193919322503109398336
:101810002883D7CF20912C0330912D03232B41F423
:10182000209102013091030130932D0320932C036A
:1018300020910001309101012115310541F42DB7AE
:101840003EB74091040150910501241B350BE091F6
:101850002C03F0912D03E217F307A0F42E1B3F0B8E
:101860002817390778F0AC014E5F5F4F2417350712
:1018700048F04E0F5F1F50932D0340932C0381932C
:1018800091939FCFF0E0E0E09CCFCF93DF93009760
:10189000E9F0FC01329713821282A0912E03B091DD
:1018A0002F03ED0130E020E01097A1F42081318179
:1018B000820F931F20912C0330912D032817390795
:1018C00009F061C0F0932D03E0932C03DF91CF91D9
:1018D0000895EA01CE17DF07E8F54A815B819E0192
:1018E00041155105B1F7E901FB83EA83499159910B
:1018F000C40FD51FEC17FD0761F48081918102961A
:10190000840F951FE90199838883828193819B834A
:101910008A83F0E0E0E012968D919C9113970097F6
:10192000B9F52D913C911197CD010296820F931F2D
:1019300020912C0330912D032817390739F6309761
:1019400051F510922F0310922E03B0932D03A09304
:101950002C03BCCFD383C28340815181840F951F58
:10196000C817D90761F44E5F5F4F88819981480F8E
:10197000591F518340838A819B81938382832115E0
:10198000310509F0B0CFF0932F03E0932E039ECFE3
:10199000FD01DC01C0CF13821282D7CFB0E0A0E0FE
:1019A000E4EDFCE00C941E0A8C01009751F4CB018D
:1019B0000E94A90B8C01C801CDB7DEB7E0E10C9401
:1019C0003A0AFC01E60FF71F9C0122503109E21789
:1019D000F30708F49DC0D901CD91DC911197C6178A
:1019E000D70798F0C530D10530F3CE01049786179C
:1019F000970708F3C61BD70B2297C193D1936D931A
:101A00007C93CF010E94450CD6CF5B01AC1ABD0A76
:101A10004C018C0E9D1EA0912E03B0912F03512CD2
:101A2000412CF12CE12C109731F580912C039091F1
:101A30002D038815990509F05CC04616570608F075
:101A400058C08091000190910101009741F48DB739
:101A50009EB74091040150910501841B950BE81736
:101A6000F90708F055C0F0932D03E0932C03F9011A
:101A700071836083A0CF8D919C91119712966C9089
:101A8000129713967C901397A815B90559F56C0118
:101A900042E0C40ED11CCA14DB0420F1AC014A1987
:101AA0005B09DA011296159780F062827382518386
:101AB0004083D9016D937C93E114F10471F0D70157
:101AC0001396FC93EE93129776CF22968C0F9D1F60
:101AD000F90191838083F301EFCFF0932F03E0931B
:101AE0002E0369CF4816590608F42C017D01D30155
:101AF0009ACFCB010E94A90B7C01009749F0AE015F
:101B0000B8010E948B0DC8010E94450C870153CF7C
:101B100010E000E050CFFB01DC0102C001900D920B
:101B200041505040D8F70895FB01DC0101900D921F
:0A1B30000020E1F70895F894FFCFBC
:101B3A000000300380000102030405060708090CAF
:101B4A00000D000000004A01AA00D7009701080111
:101B5A00E600FA000D0A006E616E00696E66006F9B
:101B6A00766600696E696369616C697A616E646F31
:101B7A00202E2E2E002D2D2D2D2D2D2D2D2D2D2DC2
:101B8A002D2D2D2D2D2D2D2D2D2D2D2D2D2D2D2D7B
:101B9A00005061726120636F6E6669726D617220B6
:101BAA006F206E756D65726F207061727465202387
:101BBA00206F75202A2000496E666F726D65206F4E
:101BCA00207072696D6569726F206E756D65726FCE
:101BDA0000496E666F726D65206F20736567756E5A
:101BEA00646F206E756D65726F004573636F6C6804
:101BFA006120756D61206F7065726163616F00317C
:101C0A002D20536F6D6100322D20537562747261FD
:101C1A0063616F00332D204D756C7469706C696354
:101C2A006163616F00342D204469766973616F00C6
:101C3A00736F6D613A20004120726573706F73741F
:101C4A00612064612073756274726163616F2065DB
:101C5A003A20004120726573706F73746120646169
:101C6A00206D756C7469706C69636163616F20655E
:101C7A003A20006469766973616F3A20006E616F79
:101C8A0020706F6465206469766973616F20706F74
:101C9A00722030006E616F20657869737465206503
:0C1CAA00737361206F7063616F2E000087
:00000001FF
