:100000000C9462000C948A000C948A000C948A0070
:100010000C948A000C948A000C948A000C948A0038
:100020000C948A000C948A000C948A000C948A0028
:100030000C948A000C948A000C948A000C948A0018
:100040000C94B1020C948A000C947F020C94590217
:100050000C948A000C948A000C948A000C948A00F8
:100060000C948A000C948A000000000023002600F3
:10007000290000000008000201000003040700003E
:1000800000000000000000000000250028002B00F8
:1000900000000000240027002A00040404040404D3
:1000A0000404020202020202030303030303010227
:1000B00004081020408001020408102001020408F6
:1000C0001020950411241FBECFEFD8E0DEBFCDBFB6
:1000D00011E0A0E0B1E0E8EDF9E002C005900D927A
:1000E000A434B107D9F721E0A4E4B1E001C01D9226
:1000F000AA3EB207E1F710E0C2E6D0E004C02197C3
:10010000FE010E94E404C136D107C9F70E94FB0238
:100110000C94EA040C940000AF92BF92CF92DF924D
:10012000EF92FF920F931F93CF93DF936C017B01AC
:100130008B01040F151FEB015E01AE18BF08C0173D
:10014000D10759F06991D601ED91FC910190F081B0
:10015000E02DC6010995892B79F7C501DF91CF9173
:100160001F910F91FF90EF90DF90CF90BF90AF90D5
:100170000895FC01538D448D252F30E0842F90E0AD
:10018000821B930B541710F0CF9608950197089592
:10019000FC01918D828D981761F0A28DAE0FBF2F5B
:1001A000B11D5D968C91928D9F5F9F73928F90E0B1
:1001B00008958FEF9FEF0895FC01918D828D981720
:1001C00031F0828DE80FF11D858D90E008958FEF5D
:1001D0009FEF0895FC01918D228D892F90E0805C26
:1001E0009F4F821B91098F73992708958DE491E0A9
:1001F0000E94EA0021E0892B09F420E0822F089573
:1002000080E090E0892B29F00E94F60081110C9487
:1002100000000895FC01A48DA80FB92FB11DA35AA9
:10022000BF4F2C91848D90E001968F739927848F16
:10023000A689B7892C93A089B1898C918370806439
:100240008C93938D848D981306C00288F389E02DDA
:1002500080818F7D80830895EF92FF920F931F938B
:10026000CF93DF93EC0181E0888F9B8D8C8D981369
:100270001AC0E889F989808185FF15C09FB7F89475
:10028000EE89FF896083E889F989808183708064C1
:1002900080839FBF81E090E0DF91CF911F910F910C
:1002A000FF90EF900895F62E0B8D10E00F5F1F4F1B
:1002B0000F731127E02E8C8D8E110CC00FB607FC2A
:1002C000FACFE889F989808185FFF5CFCE010E94B8
:1002D0000A01F1CFEB8DEC0FFD2FF11DE35AFF4F1B
:1002E000F0829FB7F8940B8FEA89FB898081806246
:1002F000CFCFCF93DF93EC01888D8823B9F0AA8903
:10030000BB89E889F9898C9185FD03C0808186FDD0
:100310000DC00FB607FCF7CF8C9185FFF2CF80811F
:1003200085FFEDCFCE010E940A01E9CFDF91CF9189
:100330000895833081F028F4813099F08230A9F05B
:1003400008958730A9F08830C9F08430B1F48091E5
:1003500080008F7D03C0809180008F778093800024
:10036000089584B58F7784BD089584B58F7DFBCFC4
:100370008091B0008F778093B00008958091B00095
:100380008F7DF9CFCF93DF93282F30E0F901EE581E
:10039000FF4F8491F901E255FF4FD491F901E656E0
:1003A000FF4FC491CC23A1F081110E949901EC2F41
:1003B000F0E0EE0FFF1FE859FF4FA591B491EC91CB
:1003C000ED2381E090E009F480E0DF91CF91089582
:1003D00080E090E0FACF1F93CF93DF93282F30E097
:1003E000F901EE58FF4F8491F901E255FF4FD49186
:1003F000F901E656FF4FC491CC23A9F0162F8111C5
:100400000E949901EC2FF0E0EE0FFF1FEA57FF4F1B
:10041000A591B4918FB7F894EC91111108C0D095C3
:10042000DE23DC938FBFDF91CF911F910895DE2BE8
:10043000F8CF3FB7F8948091490190914A01A0917B
:100440004B01B0914C0126B5A89B05C02F3F19F078
:100450000196A11DB11D3FBFBA2FA92F982F882744
:10046000BC01CD01620F711D811D911D42E0660F1F
:10047000771F881F991F4A95D1F70895FC010190B5
:100480000020E9F73197AF01481B590BBC018DE4FF
:1004900091E00C948C00CF93DF930E943E02EC011C
:1004A0008AE291E00E943E028C0F9D1FDF91CF9166
:1004B00008951F920F920FB60F9211242F933F931E
:1004C0004F935F936F937F938F939F93AF93BF935C
:1004D000EF93FF938DE491E00E940A01FF91EF9169
:1004E000BF91AF919F918F917F916F915F914F914C
:1004F0003F912F910F900FBE0F901F9018951F9254
:100500000F920FB60F9211242F938F939F93EF9317
:10051000FF93E0915D01F0915E018081E0916301C4
:10052000F091640182FD1BC09081809166018F5F14
:100530008F7320916701821741F0E0916601F0E02E
:10054000E35BFE4F958F80936601FF91EF919F9142
:100550008F912F910F900FBE0F901F901895808153
:10056000F4CF1F920F920FB60F9211242F933F9347
:100570008F939F93AF93BF938091450190914601D4
:10058000A0914701B09148013091440123E0230F2D
:100590002D3758F50196A11DB11D2093440180937C
:1005A000450190934601A0934701B0934801809183
:1005B000490190914A01A0914B01B0914C010196E3
:1005C000A11DB11D8093490190934A01A0934B0155
:1005D000B0934C01BF91AF919F918F913F912F911B
:1005E0000F900FBE0F901F90189526E8230F0296CC
:1005F000A11DB11DD2CFCF93DF93CDB7DEB7A397A7
:100600000FB6F894DEBF0FBECDBF789484B582607C
:1006100084BD84B5816084BD85B5826085BD85B5A6
:10062000816085BD80916E00816080936E00109224
:10063000810080918100826080938100809181009F
:100640008160809381008091800081608093800030
:100650008091B10084608093B1008091B00081608E
:100660008093B00080917A00846080937A008091BA
:100670007A00826080937A0080917A008160809312
:100680007A0080917A00806880937A001092C1008D
:10069000E0915D01F0915E0182E08083E09159017B
:1006A000F0915A011082E0915B01F0915C018FECB6
:1006B000808310926501E0916101F091620186E012
:1006C0008083E0915F01F09160018081806180838F
:1006D000E0915F01F0916001808188608083E0910A
:1006E0005F01F0916001808180688083E0915F010B
:1006F000F091600180818F7D808302E010E0802F87
:10070000F801E255FF4F9491F801E656FF4F24910E
:10071000222399F030E0220F331FF901E057FF4FF9
:10072000A591B491F901EA57FF4F259134912FB764
:10073000F894EC91E92BEC932FBF60E00E94EB0161
:100740000F5F1F4F06301105D1F646E050E0FA0169
:10075000E255FF4F2491FA01E656FF4F849188231A
:10076000C9F090E0880F991FFC01E057FF4FA59159
:10077000B491FC01EA57FF4F659174919FB7F894CB
:100780008C91E22FE0958E238C93DB018C91E823F2
:10079000EC939FBF4F5F5F4F49305105C1F68DE22B
:1007A00091E00E944B020E9419024B015C0142E35E
:1007B000C42ED12CE12CF12C0E9419026819790960
:1007C0008A099B09683E734081059105A8F3B1E051
:1007D000CB1AD108E108F108E8EE8E0EE3E09E1E88
:1007E000A11CB11CC114D104E104F10429F72AE0D1
:1007F000422E512C612C712C30E0232E30E0332E10
:1008000092E1A92E91E0B92E22E02AA361E08AA10B
:100810000E94EB0106E010E045018CE0880E911C7F
:100820000BA3802F0E94C2010197A9F4F801EE0FDB
:10083000FF1F7897E80DF91DC080D1809CE0C91694
:10084000D10429F58BE391E00E944B028BA10E9419
:10085000C2010197D9F30F5F1F4F0930110501F74E
:1008600060E08AA10E94EB01BAA1BF5FBAA3E6E0F3
:10087000AE0EB11CB63051F62114310409F20E94BB
:10088000F600882309F4BCCF0E940000B9CF8DE3A5
:1008900091E0ADE0CA16D104B9F20D2C000CEE08BF
:1008A000FF08F7FE2CC06DE28DE491E00E942C0160
:1008B00022273327A9012C193D094E095F0919A2E6
:1008C000FE01B1966F01CA01B901A30192010E9414
:1008D000C204605DD6016E936D012115310541059D
:1008E000510589F7C114D10419F0C6010E943E02D6
:1008F0008AE291E00E943E028FE391E0A5CFA7013A
:10090000960119A2FE01B1966F01CA01B901A301B6
:1009100092010E94C204605DD6016E936D012115A3
:1009200031054105510589F7DDCFEDE4F1E0138292
:10093000128288EE93E0A0E0B0E084839583A683E2
:10094000B78384E091E09183808385EC90E0958784
:10095000848784EC90E09787868780EC90E0918B89
:10096000808B81EC90E0938B828B82EC90E0958B76
:10097000848B86EC90E0978B868B118E128E138E73
:10098000148E0895A1E21A2EAA1BBB1BFD010DC0F7
:10099000AA1FBB1FEE1FFF1FA217B307E407F5072F
:1009A00020F0A21BB30BE40BF50B661F771F881F0B
:1009B000991F1A9469F760957095809590959B01A1
:1009C000AC01BD01CF010895EE0FFF1F0590F4911A
:0809D000E02D0994F894FFCF1B
:1009D800000000002C018C00B9007901EA00C80071
:1009E800DC00010002000300040005000600070007
:1009F800080009000C0000000D000D0A00696E696E
:100A08006369616E646F202E2E2E002A0023006118
:040A1800717569008B
:00000001FF
