:100000000C9462000C948A000C948A000C948A0070
:100010000C948A000C948A000C948A000C948A0038
:100020000C948A000C948A000C948A000C948A0028
:100030000C948A000C948A000C948A000C948A0018
:100040000C94AB020C948A000C9479020C94530229
:100050000C948A000C948A000C948A000C948A00F8
:100060000C948A000C948A000000000024002700F1
:100070002A000000000023002600290000000000E4
:10008000250028002B0004040404040404040202D4
:100090000202020203030303030301020408102007
:1000A0004080010204081020010204081020000012
:1000B0000008000201000003040700000000000027
:1000C00000002C0411241FBECFEFD8E0DEBFCDBF4F
:1000D00011E0A0E0B1E0E2ECF8E002C005900D9282
:1000E000AC37B107D9F722E0ACE7B1E001C01D920F
:1000F000A432B207E1F710E0C2E6D0E004C02197D5
:10010000FE010E945904C136D107C9F70E94F502C9
:100110000C945F040C940000AF92BF92CF92DF92D8
:10012000EF92FF920F931F93CF93DF936C017B01AC
:100130008B01040F151FEB015E01AE18BF08C0173D
:10014000D10759F06991D601ED91FC910190F081B0
:10015000E02DC6010995892B79F7C501DF91CF9173
:100160001F910F91FF90EF90DF90CF90BF90AF90D5
:100170000895FC01538D448D252F30E0842F90E0AD
:10018000821B930B541710F0CF9608950197089592
:10019000FC01918D828D981761F0A28DAE0FBF2F5B
:1001A000B11D5D968C91928D9F5F9F73928F90E0B1
:1001B00008958FEF9FEF0895FC01918D828D981720
:1001C00031F0828DE80FF11D858D90E008958FEF5D
:1001D0009FEF0895FC01918D228D892F90E0805C26
:1001E0009F4F821B91098F739927089587E891E0AB
:1001F0000E94EA0021E0892B09F420E0822F089573
:1002000080E090E0892B29F00E94F60081110C9487
:1002100000000895FC01A48DA80FB92FB11DA35AA9
:10022000BF4F2C91848D90E001968F739927848F16
:10023000A689B7892C93A089B1898C918370806439
:100240008C93938D848D981306C00288F389E02DDA
:1002500080818F7D80830895EF92FF920F931F938B
:10026000CF93DF93EC0181E0888F9B8D8C8D981369
:100270001AC0E889F989808185FF15C09FB7F89475
:10028000EE89FF896083E889F989808183708064C1
:1002900080839FBF81E090E0DF91CF911F910F910C
:1002A000FF90EF900895F62E0B8D10E00F5F1F4F1B
:1002B0000F731127E02E8C8D8E110CC00FB607FC2A
:1002C000FACFE889F989808185FFF5CFCE010E94B8
:1002D0000A01F1CFEB8DEC0FFD2FF11DE35AFF4F1B
:1002E000F0829FB7F8940B8FEA89FB898081806246
:1002F000CFCFCF93DF93EC01888D8823B9F0AA8903
:10030000BB89E889F9898C9185FD03C0808186FDD0
:100310000DC00FB607FCF7CF8C9185FFF2CF80811F
:1003200085FFEDCFCE010E940A01E9CFDF91CF9189
:100330000895833081F028F4813099F08230A9F05B
:1003400008958730A9F08830C9F08430B1F48091E5
:1003500080008F7D03C0809180008F778093800024
:10036000089584B58F7784BD089584B58F7DFBCFC4
:100370008091B0008F778093B00008958091B00095
:100380008F7DF9CF1F93CF93DF93E2EBF0E0949151
:10039000EEE9F0E0D491EAE8F0E0C491CC23B9F0C2
:1003A000182F992319F0892F0E949901EC2FF0E062
:1003B000EE0FFF1FE458FF4FA591B4918FB7F8944B
:1003C000EC91111108C0D095DE23DC938FBFDF9133
:1003D000CF911F910895DE2BF8CFCF93DF93E5EBFC
:1003E000F0E08491E1EAF0E0D491EDE8F0E0C4912E
:1003F000CC23A1F081110E949901EC2FF0E0EE0FC7
:10040000FF1FEE58FF4FA591B491EC91ED2381E0D1
:1004100090E009F480E0DF91CF91089580E090E0D2
:10042000FACF3FB7F8948091810190918201A09119
:100430008301B091840126B5A89B05C02F3F19F018
:100440000196A11DB11D3FBFBA2FA92F982F882754
:10045000BC01CD01620F711D811D911D42E0660F2F
:10046000771F881F991F4A95D1F70895CF93DF937F
:10047000FC0101900020E9F73197AF01481B590BAF
:10048000BC0187E891E00E948C00EC0142E050E062
:1004900062E171E087E891E00E948C008C0F9D1F63
:1004A000DF91CF9108951F920F920FB60F921124F2
:1004B0002F933F934F935F936F937F938F939F936C
:1004C000AF93BF93EF93FF9387E891E00E940A01F7
:1004D000FF91EF91BF91AF919F918F917F916F911C
:1004E0005F914F913F912F910F900FBE0F901F90F2
:1004F00018951F920F920FB60F9211242F938F937E
:100500009F93EF93FF93E0919701F0919801808181
:10051000E0919D01F0919E0182FD1BC09081809130
:10052000A0018F5F8F732091A101821741F0E091AC
:10053000A001F0E0E957FE4F958F8093A001FF9155
:10054000EF919F918F912F910F900FBE0F901F9061
:1005500018958081F4CF1F920F920FB60F9211243D
:100560002F933F938F939F93AF93BF9380917D0180
:1005700090917E01A0917F01B091800130917C012A
:1005800023E0230F2D3758F50196A11DB11D2093AF
:100590007C0180937D0190937E01A0937F01B093B5
:1005A00080018091810190918201A0918301B0919D
:1005B00084010196A11DB11D809381019093820158
:1005C000A0938301B0938401BF91AF919F918F91CC
:1005D0003F912F910F900FBE0F901F90189526E816
:1005E000230F0296A11DB11DD2CF789484B58260ED
:1005F00084BD84B5816084BD85B5826085BD85B5C7
:10060000816085BD80916E00816080936E00109244
:1006100081008091810082608093810080918100BF
:100620008160809381008091800081608093800050
:100630008091B10084608093B1008091B0008160AE
:100640008093B00080917A00846080937A008091DA
:100650007A00826080937A0080917A008160809332
:100660007A0080917A00806880937A001092C100AD
:10067000E0919701F091980182E08083E0919301ED
:10068000F09194011082E0919501F09196018FEC28
:10069000808310929F01E0919B01F0919C0186E084
:1006A0008083E0919901F0919A018081806180833B
:1006B000E0919901F0919A01808188608083E091B6
:1006C0009901F0919A01808180688083E09199017D
:1006D000F0919A0180818F7D808385E191E00E9475
:1006E00036020E9411024B015C0154EFC52EDD243D
:1006F000D394E12CF12C0E941102681979098A091E
:100700009B09683E734081059105A8F321E0C21A58
:10071000D108E108F10888EE880E83E0981EA11C3C
:10072000B11CC114D104E104F10429F7E1EAF0E0BD
:100730002491EDE8F0E084918823C1F090E0880FE7
:10074000991FFC01E859FF4FC591D491FC01E45871
:10075000FF4FA591B4919FB7F8948881E22FE0955F
:100760008E2388838C91E823EC939FBFEEE9F0E021
:100770002491EAE8F0E08491882399F090E0880FD2
:10078000991FFC01E859FF4FA591B491FC01E45871
:10079000FF4F859194918FB7F894EC91E22BEC93F5
:1007A0008FBF80E00E94C201C0E0D0E002E010E014
:1007B00083E0E82EF12C0E94ED012091850130911B
:1007C0008601232B51F4019741F486E291E00E94C7
:1007D00036021093860100938501809185019091E6
:1007E0008601892B71F181E00E94C2010E94ED0116
:1007F000892B21F4F0928601E09285010E94ED019F
:1008000020918501309186012330310569F40197EB
:1008100059F488E391E00E94360280E00E94C20110
:1008200081E591E00E9436020E94ED01892BA9F634
:1008300010928601109285018AE691E00E943602AC
:10084000CCCF209709F4B7CF0E94F600882309F493
:10085000B2CF0E940000AFCFE7E8F1E0138212822E
:1008600088EE93E0A0E0B0E084839583A683B7830D
:1008700084E091E09183808385EC90E09587848784
:1008800084EC90E09787868780EC90E0918B808B5A
:1008900081EC90E0938B828B82EC90E0958B848B43
:1008A00086EC90E0978B868B118E128E138E148EB1
:1008B0000895EE0FFF1F0590F491E02D0994F89430
:0208C000FFCF68
:1008C200000000002C018C00B9007901EA00C80088
:1008D200DC000D0A00696E6369616C697A616E649D
:1008E2006F202E2E2E0073697374656D61206C6902
:1008F200676164202E2E2E00626F74616F20616327
:10090200696F6E61646F206E6F76616D656E74657E
:10091200004F2073697374656D6120666F6920648E
:1009220065736C696761646F2100626F74616F2027
:0C0932006465736174697661646F000095
:00000001FF
