:100000000C945E000C9486000C9486000C94860080
:100010000C9486000C9486000C9486000C94E801E5
:100020000C9486000C9486000C9486000C94860038
:100030000C9486000C9486000C9486000C94860028
:100040000C9403030C9486000C94D1020C94AB0224
:100050000C9486000C9486000C9486000C94860008
:100060000C9486000C948600000000080002010039
:100070000003040700000000000000000200000070
:1000800000250028002B0000000000240027002A83
:100090000004040404040404040202020202020331
:1000A000030303030301020408102040800102043B
:1000B00008102001020408102000BC0511241FBEF6
:1000C000CFEFD8E0DEBFCDBF11E0A0E0B1E0E4E6C5
:1000D000FCE002C005900D92AE32B107D9F721E0E5
:1000E000AEE2B1E001C01D92A53EB207E1F710E01B
:1000F000CEE5D0E004C02197FE010E942A06CD354E
:10010000D107C9F70E944D030C9430060C940000EF
:10011000CF93DF93EDEAF0E09491E9E9F0E02491E8
:100120002223D1F030E0220F331FF901E957FF4FAE
:10013000A591B491F901E358FF4FC591D491811174
:100140000EC02FB7F8948C91E92FE0958E238C93F5
:100150009881E923E8832FBFDF91CF9108958FB76E
:10016000F894EC91E92BEC938FBFF6CFFC01538D03
:10017000448D252F30E0842F90E0821B930B541781
:1001800010F0CF96089501970895FC01918D828D0E
:10019000981761F0A28DAE0FBF2FB11D5D968C91A7
:1001A000928D9F5F9F73928F90E008958FEF9FEFE6
:1001B0000895FC01918D828D981731F0828DE80FA2
:1001C000F11D858D90E008958FEF9FEF0895FC015C
:1001D000918D228D892F90E0805C9F4F821B910929
:1001E0008F7399270895FC01A48DA80FB92FB11D15
:1001F000A35ABF4F2C91848D90E001968F7399275D
:10020000848FA689B7892C93A089B1898C9183703A
:1002100080648C93938D848D981306C00288F38933
:10022000E02D80818F7D80830895EF92FF920F9360
:100230001F93CF93DF93EC0181E0888F9B8D8C8D92
:1002400098131AC0E889F989808185FF15C09FB786
:10025000F894EE89FF896083E889F9898081837049
:10026000806480839FBF81E090E0DF91CF911F91F8
:100270000F91FF90EF900895F62E0B8D10E00F5F19
:100280001F4F0F731127E02E8C8D8E110CC00FB6EF
:1002900007FCFACFE889F989808185FFF5CFCE0187
:1002A0000E94F300F1CFEB8DEC0FFD2FF11DE35A0F
:1002B000FF4FF0829FB7F8940B8FEA89FB8980810A
:1002C0008062CFCFCF93DF93EC01888D8823B9F084
:1002D000AA89BB89E889F9898C9185FD03C0808151
:1002E00086FD0DC00FB607FCF7CF8C9185FFF2CFCE
:1002F000808185FFEDCFCE010E94F300E9CFDF9131
:10030000CF91089587E391E00E94E70021E0892BD7
:1003100009F420E0822F089580E090E0892B29F0F5
:100320000E94820181110C9400000895AF92BF9247
:10033000CF92DF92EF92FF920F931F93CF93DF93B1
:100340006C017B018B01040F151FEB015E01AE18E0
:10035000BF08C017D10759F06991D601ED91FC9102
:100360000190F081E02DC6010995892B79F7C5012F
:10037000DF91CF911F910F91FF90EF90DF90CF9081
:10038000BF90AF9008953FB7F8948091330190915A
:100390003401A0913501B091360126B5A89B05C066
:1003A0002F3F19F00196A11DB11D3FBFBA2FA92FF4
:1003B000982F8827BC01CD01620F711D811D911DF1
:1003C00042E0660F771F881F991F4A95D1F708955D
:1003D0001F920F920FB60F9211242F933F938F937A
:1003E0009F93AF93BF93EF93FF938091D901909127
:1003F000DA01A091DB01B091DC01892B8A2B8B2BD8
:10040000B1F19091D401E091D501F091D6018081B4
:10041000892780838091D9019091DA01A091DB0135
:10042000B091DC01181619061A061B069CF480917F
:10043000D9019091DA01A091DB01B091DC01019723
:10044000A109B1098093D9019093DA01A093DB014E
:10045000B093DC01FF91EF91BF91AF919F918F918C
:100460003F912F910F900FBE0F901F901895809184
:100470000001ECE7F0E0E4919FEF90930001E130A0
:1004800009F431C068F1E23009F433C090E0FC01B6
:10049000E859FF4F2491FC01EB55FF4F3491FC01CB
:1004A000EF56FF4FE491EE23A9F2222351F02330BF
:1004B00009F43AC078F5213009F43CC0223009F43F
:1004C0003DC0F0E0EE0FFF1FE358FF4FA591B49140
:1004D0008FB7F894EC9130953E233C938FBFBACF01
:1004E00010926E00D3CF90916F009D7F90936F001C
:1004F000CDCF909170009D7F9093700091E090938C
:10050000B0009091B100987F94609093B1001092E8
:10051000B300BCCF2730A9F02830C9F0243089F6C9
:10052000809180008F7D03C0809180008F778093C1
:100530008000C7CF84B58F7784BDC3CF84B58F7D4E
:10054000FBCF8091B0008F778093B000BACF8091BD
:10055000B0008F7DF9CF1F920F920FB60F9211242A
:100560002F933F934F935F936F937F938F939F93BB
:10057000AF93BF93EF93FF9387E391E00E94F30063
:10058000FF91EF91BF91AF919F918F917F916F916B
:100590005F914F913F912F910F900FBE0F901F9041
:1005A00018951F920F920FB60F9211242F938F93CD
:1005B0009F93EF93FF93E0914701F0914801808171
:1005C000E0914D01F0914E0182FD1BC09081809120
:1005D00050018F5F8F7320915101821741F0E0919C
:1005E0005001F0E0E95CFE4F958F80935001FF9140
:1005F000EF919F918F912F910F900FBE0F901F90B1
:1006000018958081F4CF1F920F920FB60F9211248C
:100610002F933F938F939F93AF93BF9380912F011D
:1006200090913001A0913101B091320130912E01B1
:1006300023E0230F2D3758F50196A11DB11D2093FE
:100640002E0180932F0190933001A0933101B0933C
:1006500032018091330190913401A0913501B09124
:1006600036010196A11DB11D809333019093340191
:10067000A0933501B0933601BF91AF919F918F91B7
:100680003F912F910F900FBE0F901F90189526E865
:10069000230F0296A11DB11DD2CF789484B582603C
:1006A00084BD84B5816084BD85B5826085BD85B516
:1006B000816085BD80916E00816080936E00109294
:1006C000810080918100826080938100809181000F
:1006D00081608093810080918000816080938000A0
:1006E0008091B10084608093B1008091B0008160FE
:1006F0008093B00080917A00846080937A0080912A
:100700007A00826080937A0080917A008160809381
:100710007A0080917A00806880937A001092C100FC
:1007200081E00E94880080E00E9488004EE050E056
:100730006BE171E087E391E00E94960142E050E0B6
:100740006AE271E087E391E00E9496010E94C30192
:100750004B015C0174E6C72ED12CE12CF12C0E94D8
:10076000C301681979098A099B09683E73408105AC
:100770009105A8F321E0C21AD108E108F10888EE3A
:10078000880E83E0981EA11CB11CC114D104E104A1
:10079000F10429F788248A94982C540103E111E08C
:1007A0005DEA252E50E0352EF801C190D1908F01E1
:1007B00080910001883009F065C0ECE7F0E0C49159
:1007C000C7FDC7C181E00E948800CC2319F0C23068
:1007D00009F021C1F12CE12C60E072E18AE790E0A0
:1007E000A70196010E94E90529013A01DA01C90130
:1007F0000197A109B1098F3F9105A105B10509F044
:100800000CF4F0C060E472E48FE090E0A701960180
:100810000E94E9052150310941095109C23009F00E
:10082000A2C082E02F3F31054105510509F00CF4CB
:1008300081C160E970ED83E090E0A70196010E941C
:10084000E905215031094109510983E02F3F310564
:100850004105510509F00CF46DC168E478EE81E0C2
:1008600090E0A70196010E94E90521503109410954
:1008700051092F3F31054105510511F00CF091C090
:1008800084E058C18F3F09F064C188E08093000183
:10089000ECE7F0E0C491CF3F09F45BC1C13019F13E
:1008A00048F0C23009F43DC0C7FD53C181E00E9449
:1008B00088008DCF14BC15BC84B5826084BD85B51D
:1008C000816085BDE9E9F0E08491E82FF0E0EE0F6A
:1008D000FF1FE358FF4F85919491F101849180931C
:1008E000D801C0E06FCF10928000109281008091FB
:1008F0008100886080938100809181008160809375
:100900008100E9E9F0E08491E82FF0E0EE0FFF1FAD
:10091000E358FF4F85919491F10184918093D70121
:1009200051CF1092B0001092B1008091B00082605F
:100930008093B0008091B10081608093B100E9E9BB
:10094000F0E08491E82FF0E0EE0FFF1FE358FF4F37
:10095000859194919093D6018093D501F101849172
:100960008093D4012FCF2F3F31054105510509F068
:100970000CF44FC068E478EE81E090E0A7019601A6
:100980000E94E9052150310941095109CC2309F49C
:10099000A6C02F3F31054105510511F00CF0A7C04D
:1009A0006FCF64E274EF80E090E0A70196010E94AF
:1009B000E905215031094109510985E02F3F3105F1
:1009C0004105510509F008F4B5C062E17AE780E01D
:1009D00090E0A70196010E94E905215031094109E3
:1009E000510993C09C0181E0C111A4C095B5987FC5
:1009F000892B85BD27BD8092E1019092E201A092F2
:100A0000E301B092E40180916E00826080936E00F9
:100A1000A0C082E0E9CFF12CE12C60E072E18AE72E
:100A200090E0A70196010E94E90521503109410992
:100A3000510991E021153105F1E04F0751056CF0A6
:100A400068E478EE81E090E0A70196010E94E90554
:100A5000215031094109510993E0C13009F070C0BA
:100A600080918100887F892B809381003093890059
:100A7000209388008092DD019092DE01A092DF0138
:100A8000B092E00180916F00826080936F0061C03E
:100A90002093B3008092D9019092DA01A092DB01F9
:100AA000B092DC018091700082608093700051C030
:100AB00084E02F3F31054105510509F008F496CF38
:100AC0009AE075946794579447949A95D1F7A30147
:100AD0009201215031094109510985E087CF83E016
:100AE0002F3F31054105510509F00CF47FCF62E13C
:100AF0007AE780E090E0A70196010E94E905215085
:100B0000310941095109CC2399F286E02F3F310583
:100B10004105510579F070F08AE075946794579417
:100B200047948A95D1F7A3019201215031094109D7
:100B3000510987E09091B100987F892B8093B10093
:100B4000C13009F493CFC23009F4A2CFCC2309F409
:100B500051CF8BE191E08017910709F025CE80E01D
:100B600090E0892B09F41ACE0E948201882309F4AF
:100B700015CE0E94000012CEE7E3F1E0138212824C
:100B800088EE93E0A0E0B0E084839583A683B783EA
:100B900085E091E09183808385EC90E09587848760
:100BA00084EC90E09787868780EC90E0918B808B37
:100BB00081EC90E0938B828B82EC90E0958B848B20
:100BC00086EC90E0978B868B118E128E138E148E8E
:100BD0000895052E97FB1EF400940E94000657FD11
:100BE00007D00E94080607FC03D04EF40C940006C0
:100BF00050954095309521953F4F4F4F5F4F089549
:100C000090958095709561957F4F8F4F9F4F089578
:100C1000A1E21A2EAA1BBB1BFD010DC0AA1FBB1F00
:100C2000EE1FFF1FA217B307E407F50720F0A21B72
:100C3000B30BE40BF50B661F771F881F991F1A94DF
:100C400069F760957095809590959B01AC01BD0109
:100C5000CF010895EE0FFF1F0590F491E02D099448
:040C6000F894FFCF36
:100C6400FF0000000015019601B6006201E700C50F
:100C740000D9009600AA00BE00C800496E696369E5
:0E0C8400616E646F202E2E2E2E000D0A0000D1
:00000001FF
