:100000000C9435000C945D000C945D000C945D0024
:100010000C945D000C945D000C945D000C945D00EC
:100020000C945D000C945D000C945D000C945D00DC
:100030000C945D000C945D000C945D000C945D00CC
:100040000C94F6010C945D000C94C4010C949E0178
:100050000C945D000C945D000C945D000C945D00AC
:100060000C945D000C945D005C0311241FBECFEF67
:10007000D8E0DEBFCDBF11E0A0E0B1E0E6E6F7E0FA
:1000800002C005900D92AC32B107D9F721E0ACE285
:10009000B1E001C01D92A23DB207E1F710E0C5E357
:1000A000D0E004C02197FE010E94AB03C433D10706
:1000B000C9F70E9440020C94B1030C940000AF9267
:1000C000BF92CF92DF92EF92FF920F931F93CF9345
:1000D000DF936C017B018B01040F151FEB015E01A7
:1000E000AE18BF08C017D10759F06991D601ED913C
:1000F000FC910190F081E02DC6010995892B79F7DB
:10010000C501DF91CF911F910F91FF90EF90DF908C
:10011000CF90BF90AF900895FC01538D448D252F53
:1001200030E0842F90E0821B930B541710F0CF9691
:10013000089501970895FC01918D828D981761F0C3
:10014000A28DAE0FBF2FB11D5D968C91928D9F5FDA
:100150009F73928F90E008958FEF9FEF0895FC01B9
:10016000918D828D981731F0828DE80FF11D858D6C
:1001700090E008958FEF9FEF0895FC01918D228DFF
:10018000892F90E0805C9F4F821B91098F73992784
:10019000089585E391E00E94BD0021E0892B09F4D8
:1001A00020E0822F089580E090E0892B29F00E94C2
:1001B000C90081110C9400000895FC01A48DA80FC2
:1001C000B92FB11DA35ABF4F2C91848D90E0019699
:1001D0008F739927848FA689B7892C93A089B189B9
:1001E0008C91837080648C93938D848D981306C05A
:1001F0000288F389E02D80818F7D80830895EF92BE
:10020000FF920F931F93CF93DF93EC0181E0888FD0
:100210009B8D8C8D98131AC0E889F989808185FFA0
:1002200015C09FB7F894EE89FF896083E889F98942
:1002300080818370806480839FBF81E090E0DF9144
:10024000CF911F910F91FF90EF900895F62E0B8D97
:1002500010E00F5F1F4F0F731127E02E8C8D8E1152
:100260000CC00FB607FCFACFE889F989808185FFB9
:10027000F5CFCE010E94DD00F1CFEB8DEC0FFD2F0D
:10028000F11DE35AFF4FF0829FB7F8940B8FEA8974
:10029000FB8980818062CFCFCF93DF93EC01888D83
:1002A0008823B9F0AA89BB89E889F9898C9185FDF1
:1002B00003C0808186FD0DC00FB607FCF7CF8C917F
:1002C00085FFF2CF808185FFEDCFCE010E94DD005A
:1002D000E9CFDF91CF9108953FB7F8948091310134
:1002E00090913201A0913301B091340126B5A89BC1
:1002F00005C02F3F19F00196A11DB11D3FBFBA2FB8
:10030000A92F982F8827BC01CD01620F711D811D77
:10031000911D42E0660F771F881F991F4A95D1F7FC
:100320000895FC0101900020E9F73197AF01481BC7
:10033000590BBC0185E391E00C945F001F920F9272
:100340000FB60F9211242F933F934F935F936F93A8
:100350007F938F939F93AF93BF93EF93FF9385E327
:1003600091E00E94DD00FF91EF91BF91AF919F91CD
:100370008F917F916F915F914F913F912F910F904E
:100380000FBE0F901F9018951F920F920FB60F92ED
:1003900011242F938F939F93EF93FF93E091450147
:1003A000F09146018081E0914B01F0914C0182FD7A
:1003B0001BC0908180914E018F5F8F7320914F0100
:1003C000821741F0E0914E01F0E0EB5CFE4F958F1B
:1003D00080934E01FF91EF919F918F912F910F90FC
:1003E0000FBE0F901F9018958081F4CF1F920F922F
:1003F0000FB60F9211242F933F938F939F93AF9338
:10040000BF9380912D0190912E01A0912F01B09169
:10041000300130912C0123E0230F2D3758F5019640
:10042000A11DB11D20932C0180932D0190932E01CD
:10043000A0932F01B093300180913101909132014E
:10044000A0913301B09134010196A11DB11D80939B
:10045000310190933201A0933301B0933401BF91E5
:10046000AF919F918F913F912F910F900FBE0F9061
:100470001F90189526E8230F0296A11DB11DD2CF1B
:10048000CF93DF93CDB7DEB7A1970FB6F894DEBF59
:100490000FBECDBF789484B5826084BD84B5816081
:1004A00084BD85B5826085BD85B5816085BD80913F
:1004B0006E00816080936E001092810080918100B7
:1004C00082608093810080918100816080938100AF
:1004D000809180008160809380008091B100846071
:1004E0008093B1008091B00081608093B0008091D2
:1004F0007A00846080937A0080917A008260809391
:100500007A0080917A00816080937A0080917A00ED
:10051000806880937A001092C100E0914501F091CB
:10052000460182E08083E0914101F0914201108216
:10053000E0914301F09144018FEC808310924D01D2
:10054000E0914901F0914A0186E08083E091470102
:10055000F0914801808180618083E0914701F091B2
:100560004801808188608083E0914701F0914801D3
:10057000808180688083E0914701F091480180810B
:100580008F7D808384E191E00E94910188E191E078
:100590000E94910181E291E00E9491019AE0892EEE
:1005A000912CA12CB12C00E010E084E291E00E949B
:1005B0009101C0900001D09001010D2C000CEE08BB
:1005C000FF08F7FE63C06DE285E391E00E94FF0043
:1005D00022273327A9012C193D094E095F0919A2C9
:1005E000CE0181967C01CA01B901A50194010E9446
:1005F0008903605DF70162937F0121153105410593
:10060000510589F7E114F10419F0C7010E94910125
:1006100081E291E00E94910180910001909101019D
:10062000019690930101809300010E946C012B01BF
:100630003C0180EDC82E87E0D82EE12CF12C0E94E1
:100640006C016419750986099709683E7340810534
:100650009105A8F3F1E0CF1AD108E108F10828EEDE
:10066000420E23E0521E611C711CC114D104E1042E
:10067000F10429F70115110509F497CF0E94C9006B
:10068000882309F492CF0E9400008FCFA701960122
:1006900019A2CE0181967C01CA01B901A50194017C
:1006A0000E948903605DF70162937F012115310586
:1006B0004105510589F7A6CFE5E3F1E013821282E7
:1006C00088EE93E0A0E0B0E084839583A683B783AF
:1006D00086E091E09183808385EC90E09587848724
:1006E00084EC90E09787868780EC90E0918B808BFC
:1006F00081EC90E0938B828B82EC90E0958B848BE5
:1007000086EC90E0978B868B118E128E138E148E52
:100710000895A1E21A2EAA1BBB1BFD010DC0AA1F42
:10072000BB1FEE1FFF1FA217B307E407F50720F05A
:10073000A21BB30BE40BF50B661F771F881F991FD5
:100740001A9469F760957095809590959B01AC011E
:10075000BD01CF010895EE0FFF1F0590F491E02D2C
:060760000994F894FFCF9C
:10076600010000000000FF005F008C004C01BD008E
:100776009B00AF006F6C61006D756E646F203A442C
:0C078600000D0A006C696E68613A2000EA
:00000001FF
